{
  "_format": "hh-sol-artifact-1",
  "contractName": "PositionRouter",
  "sourceName": "contracts/core/PositionRouter.sol",
  "abi": [
    {
      "inputs": [
        {
          "internalType": "address",
          "name": "_vault",
          "type": "address"
        },
        {
          "internalType": "address",
          "name": "_router",
          "type": "address"
        },
        {
          "internalType": "address",
          "name": "_weth",
          "type": "address"
        },
        {
          "internalType": "uint256",
          "name": "_depositFee",
          "type": "uint256"
        },
        {
          "internalType": "uint256",
          "name": "_minExecutionFee",
          "type": "uint256"
        }
      ],
      "stateMutability": "nonpayable",
      "type": "constructor"
    },
    {
      "anonymous": false,
      "inputs": [
        {
          "indexed": true,
          "internalType": "address",
          "name": "account",
          "type": "address"
        },
        {
          "indexed": false,
          "internalType": "address[]",
          "name": "path",
          "type": "address[]"
        },
        {
          "indexed": false,
          "internalType": "address",
          "name": "indexToken",
          "type": "address"
        },
        {
          "indexed": false,
          "internalType": "uint256",
          "name": "collateralDelta",
          "type": "uint256"
        },
        {
          "indexed": false,
          "internalType": "uint256",
          "name": "sizeDelta",
          "type": "uint256"
        },
        {
          "indexed": false,
          "internalType": "bool",
          "name": "isLong",
          "type": "bool"
        },
        {
          "indexed": false,
          "internalType": "address",
          "name": "receiver",
          "type": "address"
        },
        {
          "indexed": false,
          "internalType": "uint256",
          "name": "acceptablePrice",
          "type": "uint256"
        },
        {
          "indexed": false,
          "internalType": "uint256",
          "name": "minOut",
          "type": "uint256"
        },
        {
          "indexed": false,
          "internalType": "uint256",
          "name": "executionFee",
          "type": "uint256"
        },
        {
          "indexed": false,
          "internalType": "uint256",
          "name": "blockGap",
          "type": "uint256"
        },
        {
          "indexed": false,
          "internalType": "uint256",
          "name": "timeGap",
          "type": "uint256"
        }
      ],
      "name": "CancelDecreasePosition",
      "type": "event"
    },
    {
      "anonymous": false,
      "inputs": [
        {
          "indexed": true,
          "internalType": "address",
          "name": "account",
          "type": "address"
        },
        {
          "indexed": false,
          "internalType": "address[]",
          "name": "path",
          "type": "address[]"
        },
        {
          "indexed": false,
          "internalType": "address",
          "name": "indexToken",
          "type": "address"
        },
        {
          "indexed": false,
          "internalType": "uint256",
          "name": "amountIn",
          "type": "uint256"
        },
        {
          "indexed": false,
          "internalType": "uint256",
          "name": "minOut",
          "type": "uint256"
        },
        {
          "indexed": false,
          "internalType": "uint256",
          "name": "sizeDelta",
          "type": "uint256"
        },
        {
          "indexed": false,
          "internalType": "bool",
          "name": "isLong",
          "type": "bool"
        },
        {
          "indexed": false,
          "internalType": "uint256",
          "name": "acceptablePrice",
          "type": "uint256"
        },
        {
          "indexed": false,
          "internalType": "uint256",
          "name": "executionFee",
          "type": "uint256"
        },
        {
          "indexed": false,
          "internalType": "uint256",
          "name": "blockGap",
          "type": "uint256"
        },
        {
          "indexed": false,
          "internalType": "uint256",
          "name": "timeGap",
          "type": "uint256"
        }
      ],
      "name": "CancelIncreasePosition",
      "type": "event"
    },
    {
      "anonymous": false,
      "inputs": [
        {
          "indexed": true,
          "internalType": "address",
          "name": "account",
          "type": "address"
        },
        {
          "indexed": false,
          "internalType": "address[]",
          "name": "path",
          "type": "address[]"
        },
        {
          "indexed": false,
          "internalType": "address",
          "name": "indexToken",
          "type": "address"
        },
        {
          "indexed": false,
          "internalType": "uint256",
          "name": "collateralDelta",
          "type": "uint256"
        },
        {
          "indexed": false,
          "internalType": "uint256",
          "name": "sizeDelta",
          "type": "uint256"
        },
        {
          "indexed": false,
          "internalType": "bool",
          "name": "isLong",
          "type": "bool"
        },
        {
          "indexed": false,
          "internalType": "address",
          "name": "receiver",
          "type": "address"
        },
        {
          "indexed": false,
          "internalType": "uint256",
          "name": "acceptablePrice",
          "type": "uint256"
        },
        {
          "indexed": false,
          "internalType": "uint256",
          "name": "minOut",
          "type": "uint256"
        },
        {
          "indexed": false,
          "internalType": "uint256",
          "name": "executionFee",
          "type": "uint256"
        },
        {
          "indexed": false,
          "internalType": "uint256",
          "name": "index",
          "type": "uint256"
        },
        {
          "indexed": false,
          "internalType": "uint256",
          "name": "blockNumber",
          "type": "uint256"
        },
        {
          "indexed": false,
          "internalType": "uint256",
          "name": "blockTime",
          "type": "uint256"
        }
      ],
      "name": "CreateDecreasePosition",
      "type": "event"
    },
    {
      "anonymous": false,
      "inputs": [
        {
          "indexed": true,
          "internalType": "address",
          "name": "account",
          "type": "address"
        },
        {
          "indexed": false,
          "internalType": "address[]",
          "name": "path",
          "type": "address[]"
        },
        {
          "indexed": false,
          "internalType": "address",
          "name": "indexToken",
          "type": "address"
        },
        {
          "indexed": false,
          "internalType": "uint256",
          "name": "amountIn",
          "type": "uint256"
        },
        {
          "indexed": false,
          "internalType": "uint256",
          "name": "minOut",
          "type": "uint256"
        },
        {
          "indexed": false,
          "internalType": "uint256",
          "name": "sizeDelta",
          "type": "uint256"
        },
        {
          "indexed": false,
          "internalType": "bool",
          "name": "isLong",
          "type": "bool"
        },
        {
          "indexed": false,
          "internalType": "uint256",
          "name": "acceptablePrice",
          "type": "uint256"
        },
        {
          "indexed": false,
          "internalType": "uint256",
          "name": "executionFee",
          "type": "uint256"
        },
        {
          "indexed": false,
          "internalType": "uint256",
          "name": "index",
          "type": "uint256"
        },
        {
          "indexed": false,
          "internalType": "uint256",
          "name": "blockNumber",
          "type": "uint256"
        },
        {
          "indexed": false,
          "internalType": "uint256",
          "name": "blockTime",
          "type": "uint256"
        },
        {
          "indexed": false,
          "internalType": "uint256",
          "name": "gasPrice",
          "type": "uint256"
        }
      ],
      "name": "CreateIncreasePosition",
      "type": "event"
    },
    {
      "anonymous": false,
      "inputs": [
        {
          "indexed": false,
          "internalType": "address",
          "name": "account",
          "type": "address"
        },
        {
          "indexed": false,
          "internalType": "uint256",
          "name": "sizeDelta",
          "type": "uint256"
        },
        {
          "indexed": false,
          "internalType": "uint256",
          "name": "marginFeeBasisPoints",
          "type": "uint256"
        },
        {
          "indexed": false,
          "internalType": "bytes32",
          "name": "referralCode",
          "type": "bytes32"
        },
        {
          "indexed": false,
          "internalType": "address",
          "name": "referrer",
          "type": "address"
        }
      ],
      "name": "DecreasePositionReferral",
      "type": "event"
    },
    {
      "anonymous": false,
      "inputs": [
        {
          "indexed": true,
          "internalType": "address",
          "name": "account",
          "type": "address"
        },
        {
          "indexed": false,
          "internalType": "address[]",
          "name": "path",
          "type": "address[]"
        },
        {
          "indexed": false,
          "internalType": "address",
          "name": "indexToken",
          "type": "address"
        },
        {
          "indexed": false,
          "internalType": "uint256",
          "name": "collateralDelta",
          "type": "uint256"
        },
        {
          "indexed": false,
          "internalType": "uint256",
          "name": "sizeDelta",
          "type": "uint256"
        },
        {
          "indexed": false,
          "internalType": "bool",
          "name": "isLong",
          "type": "bool"
        },
        {
          "indexed": false,
          "internalType": "address",
          "name": "receiver",
          "type": "address"
        },
        {
          "indexed": false,
          "internalType": "uint256",
          "name": "acceptablePrice",
          "type": "uint256"
        },
        {
          "indexed": false,
          "internalType": "uint256",
          "name": "minOut",
          "type": "uint256"
        },
        {
          "indexed": false,
          "internalType": "uint256",
          "name": "executionFee",
          "type": "uint256"
        },
        {
          "indexed": false,
          "internalType": "uint256",
          "name": "blockGap",
          "type": "uint256"
        },
        {
          "indexed": false,
          "internalType": "uint256",
          "name": "timeGap",
          "type": "uint256"
        }
      ],
      "name": "ExecuteDecreasePosition",
      "type": "event"
    },
    {
      "anonymous": false,
      "inputs": [
        {
          "indexed": true,
          "internalType": "address",
          "name": "account",
          "type": "address"
        },
        {
          "indexed": false,
          "internalType": "address[]",
          "name": "path",
          "type": "address[]"
        },
        {
          "indexed": false,
          "internalType": "address",
          "name": "indexToken",
          "type": "address"
        },
        {
          "indexed": false,
          "internalType": "uint256",
          "name": "amountIn",
          "type": "uint256"
        },
        {
          "indexed": false,
          "internalType": "uint256",
          "name": "minOut",
          "type": "uint256"
        },
        {
          "indexed": false,
          "internalType": "uint256",
          "name": "sizeDelta",
          "type": "uint256"
        },
        {
          "indexed": false,
          "internalType": "bool",
          "name": "isLong",
          "type": "bool"
        },
        {
          "indexed": false,
          "internalType": "uint256",
          "name": "acceptablePrice",
          "type": "uint256"
        },
        {
          "indexed": false,
          "internalType": "uint256",
          "name": "executionFee",
          "type": "uint256"
        },
        {
          "indexed": false,
          "internalType": "uint256",
          "name": "blockGap",
          "type": "uint256"
        },
        {
          "indexed": false,
          "internalType": "uint256",
          "name": "timeGap",
          "type": "uint256"
        }
      ],
      "name": "ExecuteIncreasePosition",
      "type": "event"
    },
    {
      "anonymous": false,
      "inputs": [
        {
          "indexed": false,
          "internalType": "address",
          "name": "account",
          "type": "address"
        },
        {
          "indexed": false,
          "internalType": "uint256",
          "name": "sizeDelta",
          "type": "uint256"
        },
        {
          "indexed": false,
          "internalType": "uint256",
          "name": "marginFeeBasisPoints",
          "type": "uint256"
        },
        {
          "indexed": false,
          "internalType": "bytes32",
          "name": "referralCode",
          "type": "bytes32"
        },
        {
          "indexed": false,
          "internalType": "address",
          "name": "referrer",
          "type": "address"
        }
      ],
      "name": "IncreasePositionReferral",
      "type": "event"
    },
    {
      "anonymous": false,
      "inputs": [
        {
          "indexed": false,
          "internalType": "address",
          "name": "admin",
          "type": "address"
        }
      ],
      "name": "SetAdmin",
      "type": "event"
    },
    {
      "anonymous": false,
      "inputs": [
        {
          "indexed": false,
          "internalType": "uint256",
          "name": "minBlockDelayKeeper",
          "type": "uint256"
        },
        {
          "indexed": false,
          "internalType": "uint256",
          "name": "minTimeDelayPublic",
          "type": "uint256"
        },
        {
          "indexed": false,
          "internalType": "uint256",
          "name": "maxTimeDelay",
          "type": "uint256"
        }
      ],
      "name": "SetDelayValues",
      "type": "event"
    },
    {
      "anonymous": false,
      "inputs": [
        {
          "indexed": false,
          "internalType": "uint256",
          "name": "depositFee",
          "type": "uint256"
        }
      ],
      "name": "SetDepositFee",
      "type": "event"
    },
    {
      "anonymous": false,
      "inputs": [
        {
          "indexed": false,
          "internalType": "uint256",
          "name": "increasePositionBufferBps",
          "type": "uint256"
        }
      ],
      "name": "SetIncreasePositionBufferBps",
      "type": "event"
    },
    {
      "anonymous": false,
      "inputs": [
        {
          "indexed": false,
          "internalType": "bool",
          "name": "isLeverageEnabled",
          "type": "bool"
        }
      ],
      "name": "SetIsLeverageEnabled",
      "type": "event"
    },
    {
      "anonymous": false,
      "inputs": [
        {
          "indexed": false,
          "internalType": "address[]",
          "name": "tokens",
          "type": "address[]"
        },
        {
          "indexed": false,
          "internalType": "uint256[]",
          "name": "longSizes",
          "type": "uint256[]"
        },
        {
          "indexed": false,
          "internalType": "uint256[]",
          "name": "shortSizes",
          "type": "uint256[]"
        }
      ],
      "name": "SetMaxGlobalSizes",
      "type": "event"
    },
    {
      "anonymous": false,
      "inputs": [
        {
          "indexed": false,
          "internalType": "uint256",
          "name": "minExecutionFee",
          "type": "uint256"
        }
      ],
      "name": "SetMinExecutionFee",
      "type": "event"
    },
    {
      "anonymous": false,
      "inputs": [
        {
          "indexed": true,
          "internalType": "address",
          "name": "account",
          "type": "address"
        },
        {
          "indexed": false,
          "internalType": "bool",
          "name": "isActive",
          "type": "bool"
        }
      ],
      "name": "SetPositionKeeper",
      "type": "event"
    },
    {
      "anonymous": false,
      "inputs": [
        {
          "indexed": false,
          "internalType": "address",
          "name": "referralStorage",
          "type": "address"
        }
      ],
      "name": "SetReferralStorage",
      "type": "event"
    },
    {
      "anonymous": false,
      "inputs": [
        {
          "indexed": false,
          "internalType": "uint256",
          "name": "increasePositionRequestKeysStart",
          "type": "uint256"
        },
        {
          "indexed": false,
          "internalType": "uint256",
          "name": "decreasePositionRequestKeysStart",
          "type": "uint256"
        }
      ],
      "name": "SetRequestKeysStartValues",
      "type": "event"
    },
    {
      "anonymous": false,
      "inputs": [
        {
          "indexed": false,
          "internalType": "address",
          "name": "token",
          "type": "address"
        },
        {
          "indexed": false,
          "internalType": "address",
          "name": "receiver",
          "type": "address"
        },
        {
          "indexed": false,
          "internalType": "uint256",
          "name": "amount",
          "type": "uint256"
        }
      ],
      "name": "WithdrawFees",
      "type": "event"
    },
    {
      "inputs": [],
      "name": "BASIS_POINTS_DIVISOR",
      "outputs": [
        {
          "internalType": "uint256",
          "name": "",
          "type": "uint256"
        }
      ],
      "stateMutability": "view",
      "type": "function"
    },
    {
      "inputs": [],
      "name": "admin",
      "outputs": [
        {
          "internalType": "address",
          "name": "",
          "type": "address"
        }
      ],
      "stateMutability": "view",
      "type": "function"
    },
    {
      "inputs": [
        {
          "internalType": "address",
          "name": "_token",
          "type": "address"
        },
        {
          "internalType": "address",
          "name": "_spender",
          "type": "address"
        },
        {
          "internalType": "uint256",
          "name": "_amount",
          "type": "uint256"
        }
      ],
      "name": "approve",
      "outputs": [],
      "stateMutability": "nonpayable",
      "type": "function"
    },
    {
      "inputs": [
        {
          "internalType": "bytes32",
          "name": "_key",
          "type": "bytes32"
        },
        {
          "internalType": "address payable",
          "name": "_executionFeeReceiver",
          "type": "address"
        }
      ],
      "name": "cancelDecreasePosition",
      "outputs": [
        {
          "internalType": "bool",
          "name": "",
          "type": "bool"
        }
      ],
      "stateMutability": "nonpayable",
      "type": "function"
    },
    {
      "inputs": [
        {
          "internalType": "bytes32",
          "name": "_key",
          "type": "bytes32"
        },
        {
          "internalType": "address payable",
          "name": "_executionFeeReceiver",
          "type": "address"
        }
      ],
      "name": "cancelIncreasePosition",
      "outputs": [
        {
          "internalType": "bool",
          "name": "",
          "type": "bool"
        }
      ],
      "stateMutability": "nonpayable",
      "type": "function"
    },
    {
      "inputs": [
        {
          "internalType": "address[]",
          "name": "_path",
          "type": "address[]"
        },
        {
          "internalType": "address",
          "name": "_indexToken",
          "type": "address"
        },
        {
          "internalType": "uint256",
          "name": "_collateralDelta",
          "type": "uint256"
        },
        {
          "internalType": "uint256",
          "name": "_sizeDelta",
          "type": "uint256"
        },
        {
          "internalType": "bool",
          "name": "_isLong",
          "type": "bool"
        },
        {
          "internalType": "address",
          "name": "_receiver",
          "type": "address"
        },
        {
          "internalType": "uint256",
          "name": "_acceptablePrice",
          "type": "uint256"
        },
        {
          "internalType": "uint256",
          "name": "_minOut",
          "type": "uint256"
        },
        {
          "internalType": "uint256",
          "name": "_executionFee",
          "type": "uint256"
        },
        {
          "internalType": "bool",
          "name": "_withdrawETH",
          "type": "bool"
        }
      ],
      "name": "createDecreasePosition",
      "outputs": [],
      "stateMutability": "payable",
      "type": "function"
    },
    {
      "inputs": [
        {
          "internalType": "address[]",
          "name": "_path",
          "type": "address[]"
        },
        {
          "internalType": "address",
          "name": "_indexToken",
          "type": "address"
        },
        {
          "internalType": "uint256",
          "name": "_amountIn",
          "type": "uint256"
        },
        {
          "internalType": "uint256",
          "name": "_minOut",
          "type": "uint256"
        },
        {
          "internalType": "uint256",
          "name": "_sizeDelta",
          "type": "uint256"
        },
        {
          "internalType": "bool",
          "name": "_isLong",
          "type": "bool"
        },
        {
          "internalType": "uint256",
          "name": "_acceptablePrice",
          "type": "uint256"
        },
        {
          "internalType": "uint256",
          "name": "_executionFee",
          "type": "uint256"
        },
        {
          "internalType": "bytes32",
          "name": "_referralCode",
          "type": "bytes32"
        }
      ],
      "name": "createIncreasePosition",
      "outputs": [],
      "stateMutability": "payable",
      "type": "function"
    },
    {
      "inputs": [
        {
          "internalType": "address[]",
          "name": "_path",
          "type": "address[]"
        },
        {
          "internalType": "address",
          "name": "_indexToken",
          "type": "address"
        },
        {
          "internalType": "uint256",
          "name": "_minOut",
          "type": "uint256"
        },
        {
          "internalType": "uint256",
          "name": "_sizeDelta",
          "type": "uint256"
        },
        {
          "internalType": "bool",
          "name": "_isLong",
          "type": "bool"
        },
        {
          "internalType": "uint256",
          "name": "_acceptablePrice",
          "type": "uint256"
        },
        {
          "internalType": "uint256",
          "name": "_executionFee",
          "type": "uint256"
        },
        {
          "internalType": "bytes32",
          "name": "_referralCode",
          "type": "bytes32"
        }
      ],
      "name": "createIncreasePositionETH",
      "outputs": [],
      "stateMutability": "payable",
      "type": "function"
    },
    {
      "inputs": [
        {
          "internalType": "uint256",
          "name": "",
          "type": "uint256"
        }
      ],
      "name": "decreasePositionRequestKeys",
      "outputs": [
        {
          "internalType": "bytes32",
          "name": "",
          "type": "bytes32"
        }
      ],
      "stateMutability": "view",
      "type": "function"
    },
    {
      "inputs": [],
      "name": "decreasePositionRequestKeysStart",
      "outputs": [
        {
          "internalType": "uint256",
          "name": "",
          "type": "uint256"
        }
      ],
      "stateMutability": "view",
      "type": "function"
    },
    {
      "inputs": [
        {
          "internalType": "bytes32",
          "name": "",
          "type": "bytes32"
        }
      ],
      "name": "decreasePositionRequests",
      "outputs": [
        {
          "internalType": "address",
          "name": "account",
          "type": "address"
        },
        {
          "internalType": "address",
          "name": "indexToken",
          "type": "address"
        },
        {
          "internalType": "uint256",
          "name": "collateralDelta",
          "type": "uint256"
        },
        {
          "internalType": "uint256",
          "name": "sizeDelta",
          "type": "uint256"
        },
        {
          "internalType": "bool",
          "name": "isLong",
          "type": "bool"
        },
        {
          "internalType": "address",
          "name": "receiver",
          "type": "address"
        },
        {
          "internalType": "uint256",
          "name": "acceptablePrice",
          "type": "uint256"
        },
        {
          "internalType": "uint256",
          "name": "minOut",
          "type": "uint256"
        },
        {
          "internalType": "uint256",
          "name": "executionFee",
          "type": "uint256"
        },
        {
          "internalType": "uint256",
          "name": "blockNumber",
          "type": "uint256"
        },
        {
          "internalType": "uint256",
          "name": "blockTime",
          "type": "uint256"
        },
        {
          "internalType": "bool",
          "name": "withdrawETH",
          "type": "bool"
        }
      ],
      "stateMutability": "view",
      "type": "function"
    },
    {
      "inputs": [
        {
          "internalType": "address",
          "name": "",
          "type": "address"
        }
      ],
      "name": "decreasePositionsIndex",
      "outputs": [
        {
          "internalType": "uint256",
          "name": "",
          "type": "uint256"
        }
      ],
      "stateMutability": "view",
      "type": "function"
    },
    {
      "inputs": [],
      "name": "depositFee",
      "outputs": [
        {
          "internalType": "uint256",
          "name": "",
          "type": "uint256"
        }
      ],
      "stateMutability": "view",
      "type": "function"
    },
    {
      "inputs": [
        {
          "internalType": "bytes32",
          "name": "_key",
          "type": "bytes32"
        },
        {
          "internalType": "address payable",
          "name": "_executionFeeReceiver",
          "type": "address"
        }
      ],
      "name": "executeDecreasePosition",
      "outputs": [
        {
          "internalType": "bool",
          "name": "",
          "type": "bool"
        }
      ],
      "stateMutability": "nonpayable",
      "type": "function"
    },
    {
      "inputs": [
        {
          "internalType": "uint256",
          "name": "_endIndex",
          "type": "uint256"
        },
        {
          "internalType": "address payable",
          "name": "_executionFeeReceiver",
          "type": "address"
        }
      ],
      "name": "executeDecreasePositions",
      "outputs": [],
      "stateMutability": "nonpayable",
      "type": "function"
    },
    {
      "inputs": [
        {
          "internalType": "bytes32",
          "name": "_key",
          "type": "bytes32"
        },
        {
          "internalType": "address payable",
          "name": "_executionFeeReceiver",
          "type": "address"
        }
      ],
      "name": "executeIncreasePosition",
      "outputs": [
        {
          "internalType": "bool",
          "name": "",
          "type": "bool"
        }
      ],
      "stateMutability": "nonpayable",
      "type": "function"
    },
    {
      "inputs": [
        {
          "internalType": "uint256",
          "name": "_endIndex",
          "type": "uint256"
        },
        {
          "internalType": "address payable",
          "name": "_executionFeeReceiver",
          "type": "address"
        }
      ],
      "name": "executeIncreasePositions",
      "outputs": [],
      "stateMutability": "nonpayable",
      "type": "function"
    },
    {
      "inputs": [
        {
          "internalType": "address",
          "name": "",
          "type": "address"
        }
      ],
      "name": "feeReserves",
      "outputs": [
        {
          "internalType": "uint256",
          "name": "",
          "type": "uint256"
        }
      ],
      "stateMutability": "view",
      "type": "function"
    },
    {
      "inputs": [
        {
          "internalType": "bytes32",
          "name": "_key",
          "type": "bytes32"
        }
      ],
      "name": "getDecreasePositionRequestPath",
      "outputs": [
        {
          "internalType": "address[]",
          "name": "",
          "type": "address[]"
        }
      ],
      "stateMutability": "view",
      "type": "function"
    },
    {
      "inputs": [
        {
          "internalType": "bytes32",
          "name": "_key",
          "type": "bytes32"
        }
      ],
      "name": "getIncreasePositionRequestPath",
      "outputs": [
        {
          "internalType": "address[]",
          "name": "",
          "type": "address[]"
        }
      ],
      "stateMutability": "view",
      "type": "function"
    },
    {
      "inputs": [
        {
          "internalType": "address",
          "name": "_account",
          "type": "address"
        },
        {
          "internalType": "uint256",
          "name": "_index",
          "type": "uint256"
        }
      ],
      "name": "getRequestKey",
      "outputs": [
        {
          "internalType": "bytes32",
          "name": "",
          "type": "bytes32"
        }
      ],
      "stateMutability": "pure",
      "type": "function"
    },
    {
      "inputs": [],
      "name": "getRequestQueueLengths",
      "outputs": [
        {
          "internalType": "uint256",
          "name": "",
          "type": "uint256"
        },
        {
          "internalType": "uint256",
          "name": "",
          "type": "uint256"
        },
        {
          "internalType": "uint256",
          "name": "",
          "type": "uint256"
        },
        {
          "internalType": "uint256",
          "name": "",
          "type": "uint256"
        }
      ],
      "stateMutability": "view",
      "type": "function"
    },
    {
      "inputs": [],
      "name": "gov",
      "outputs": [
        {
          "internalType": "address",
          "name": "",
          "type": "address"
        }
      ],
      "stateMutability": "view",
      "type": "function"
    },
    {
      "inputs": [],
      "name": "increasePositionBufferBps",
      "outputs": [
        {
          "internalType": "uint256",
          "name": "",
          "type": "uint256"
        }
      ],
      "stateMutability": "view",
      "type": "function"
    },
    {
      "inputs": [
        {
          "internalType": "uint256",
          "name": "",
          "type": "uint256"
        }
      ],
      "name": "increasePositionRequestKeys",
      "outputs": [
        {
          "internalType": "bytes32",
          "name": "",
          "type": "bytes32"
        }
      ],
      "stateMutability": "view",
      "type": "function"
    },
    {
      "inputs": [],
      "name": "increasePositionRequestKeysStart",
      "outputs": [
        {
          "internalType": "uint256",
          "name": "",
          "type": "uint256"
        }
      ],
      "stateMutability": "view",
      "type": "function"
    },
    {
      "inputs": [
        {
          "internalType": "bytes32",
          "name": "",
          "type": "bytes32"
        }
      ],
      "name": "increasePositionRequests",
      "outputs": [
        {
          "internalType": "address",
          "name": "account",
          "type": "address"
        },
        {
          "internalType": "address",
          "name": "indexToken",
          "type": "address"
        },
        {
          "internalType": "uint256",
          "name": "amountIn",
          "type": "uint256"
        },
        {
          "internalType": "uint256",
          "name": "minOut",
          "type": "uint256"
        },
        {
          "internalType": "uint256",
          "name": "sizeDelta",
          "type": "uint256"
        },
        {
          "internalType": "bool",
          "name": "isLong",
          "type": "bool"
        },
        {
          "internalType": "uint256",
          "name": "acceptablePrice",
          "type": "uint256"
        },
        {
          "internalType": "uint256",
          "name": "executionFee",
          "type": "uint256"
        },
        {
          "internalType": "uint256",
          "name": "blockNumber",
          "type": "uint256"
        },
        {
          "internalType": "uint256",
          "name": "blockTime",
          "type": "uint256"
        },
        {
          "internalType": "bool",
          "name": "hasCollateralInETH",
          "type": "bool"
        }
      ],
      "stateMutability": "view",
      "type": "function"
    },
    {
      "inputs": [
        {
          "internalType": "address",
          "name": "",
          "type": "address"
        }
      ],
      "name": "increasePositionsIndex",
      "outputs": [
        {
          "internalType": "uint256",
          "name": "",
          "type": "uint256"
        }
      ],
      "stateMutability": "view",
      "type": "function"
    },
    {
      "inputs": [],
      "name": "isLeverageEnabled",
      "outputs": [
        {
          "internalType": "bool",
          "name": "",
          "type": "bool"
        }
      ],
      "stateMutability": "view",
      "type": "function"
    },
    {
      "inputs": [
        {
          "internalType": "address",
          "name": "",
          "type": "address"
        }
      ],
      "name": "isPositionKeeper",
      "outputs": [
        {
          "internalType": "bool",
          "name": "",
          "type": "bool"
        }
      ],
      "stateMutability": "view",
      "type": "function"
    },
    {
      "inputs": [
        {
          "internalType": "address",
          "name": "",
          "type": "address"
        }
      ],
      "name": "maxGlobalLongSizes",
      "outputs": [
        {
          "internalType": "uint256",
          "name": "",
          "type": "uint256"
        }
      ],
      "stateMutability": "view",
      "type": "function"
    },
    {
      "inputs": [
        {
          "internalType": "address",
          "name": "",
          "type": "address"
        }
      ],
      "name": "maxGlobalShortSizes",
      "outputs": [
        {
          "internalType": "uint256",
          "name": "",
          "type": "uint256"
        }
      ],
      "stateMutability": "view",
      "type": "function"
    },
    {
      "inputs": [],
      "name": "maxTimeDelay",
      "outputs": [
        {
          "internalType": "uint256",
          "name": "",
          "type": "uint256"
        }
      ],
      "stateMutability": "view",
      "type": "function"
    },
    {
      "inputs": [],
      "name": "minBlockDelayKeeper",
      "outputs": [
        {
          "internalType": "uint256",
          "name": "",
          "type": "uint256"
        }
      ],
      "stateMutability": "view",
      "type": "function"
    },
    {
      "inputs": [],
      "name": "minExecutionFee",
      "outputs": [
        {
          "internalType": "uint256",
          "name": "",
          "type": "uint256"
        }
      ],
      "stateMutability": "view",
      "type": "function"
    },
    {
      "inputs": [],
      "name": "minTimeDelayPublic",
      "outputs": [
        {
          "internalType": "uint256",
          "name": "",
          "type": "uint256"
        }
      ],
      "stateMutability": "view",
      "type": "function"
    },
    {
      "inputs": [],
      "name": "referralStorage",
      "outputs": [
        {
          "internalType": "address",
          "name": "",
          "type": "address"
        }
      ],
      "stateMutability": "view",
      "type": "function"
    },
    {
      "inputs": [],
      "name": "router",
      "outputs": [
        {
          "internalType": "address",
          "name": "",
          "type": "address"
        }
      ],
      "stateMutability": "view",
      "type": "function"
    },
    {
      "inputs": [
        {
          "internalType": "address payable",
          "name": "_receiver",
          "type": "address"
        },
        {
          "internalType": "uint256",
          "name": "_amount",
          "type": "uint256"
        }
      ],
      "name": "sendValue",
      "outputs": [],
      "stateMutability": "nonpayable",
      "type": "function"
    },
    {
      "inputs": [
        {
          "internalType": "address",
          "name": "_admin",
          "type": "address"
        }
      ],
      "name": "setAdmin",
      "outputs": [],
      "stateMutability": "nonpayable",
      "type": "function"
    },
    {
      "inputs": [
        {
          "internalType": "uint256",
          "name": "_minBlockDelayKeeper",
          "type": "uint256"
        },
        {
          "internalType": "uint256",
          "name": "_minTimeDelayPublic",
          "type": "uint256"
        },
        {
          "internalType": "uint256",
          "name": "_maxTimeDelay",
          "type": "uint256"
        }
      ],
      "name": "setDelayValues",
      "outputs": [],
      "stateMutability": "nonpayable",
      "type": "function"
    },
    {
      "inputs": [
        {
          "internalType": "uint256",
          "name": "_depositFee",
          "type": "uint256"
        }
      ],
      "name": "setDepositFee",
      "outputs": [],
      "stateMutability": "nonpayable",
      "type": "function"
    },
    {
      "inputs": [
        {
          "internalType": "address",
          "name": "_gov",
          "type": "address"
        }
      ],
      "name": "setGov",
      "outputs": [],
      "stateMutability": "nonpayable",
      "type": "function"
    },
    {
      "inputs": [
        {
          "internalType": "uint256",
          "name": "_increasePositionBufferBps",
          "type": "uint256"
        }
      ],
      "name": "setIncreasePositionBufferBps",
      "outputs": [],
      "stateMutability": "nonpayable",
      "type": "function"
    },
    {
      "inputs": [
        {
          "internalType": "bool",
          "name": "_isLeverageEnabled",
          "type": "bool"
        }
      ],
      "name": "setIsLeverageEnabled",
      "outputs": [],
      "stateMutability": "nonpayable",
      "type": "function"
    },
    {
      "inputs": [
        {
          "internalType": "address[]",
          "name": "_tokens",
          "type": "address[]"
        },
        {
          "internalType": "uint256[]",
          "name": "_longSizes",
          "type": "uint256[]"
        },
        {
          "internalType": "uint256[]",
          "name": "_shortSizes",
          "type": "uint256[]"
        }
      ],
      "name": "setMaxGlobalSizes",
      "outputs": [],
      "stateMutability": "nonpayable",
      "type": "function"
    },
    {
      "inputs": [
        {
          "internalType": "uint256",
          "name": "_minExecutionFee",
          "type": "uint256"
        }
      ],
      "name": "setMinExecutionFee",
      "outputs": [],
      "stateMutability": "nonpayable",
      "type": "function"
    },
    {
      "inputs": [
        {
          "internalType": "address",
          "name": "_account",
          "type": "address"
        },
        {
          "internalType": "bool",
          "name": "_isActive",
          "type": "bool"
        }
      ],
      "name": "setPositionKeeper",
      "outputs": [],
      "stateMutability": "nonpayable",
      "type": "function"
    },
    {
      "inputs": [
        {
          "internalType": "address",
          "name": "_referralStorage",
          "type": "address"
        }
      ],
      "name": "setReferralStorage",
      "outputs": [],
      "stateMutability": "nonpayable",
      "type": "function"
    },
    {
      "inputs": [
        {
          "internalType": "uint256",
          "name": "_increasePositionRequestKeysStart",
          "type": "uint256"
        },
        {
          "internalType": "uint256",
          "name": "_decreasePositionRequestKeysStart",
          "type": "uint256"
        }
      ],
      "name": "setRequestKeysStartValues",
      "outputs": [],
      "stateMutability": "nonpayable",
      "type": "function"
    },
    {
      "inputs": [],
      "name": "vault",
      "outputs": [
        {
          "internalType": "address",
          "name": "",
          "type": "address"
        }
      ],
      "stateMutability": "view",
      "type": "function"
    },
    {
      "inputs": [],
      "name": "weth",
      "outputs": [
        {
          "internalType": "address",
          "name": "",
          "type": "address"
        }
      ],
      "stateMutability": "view",
      "type": "function"
    },
    {
      "inputs": [
        {
          "internalType": "address",
          "name": "_token",
          "type": "address"
        },
        {
          "internalType": "address",
          "name": "_receiver",
          "type": "address"
        }
      ],
      "name": "withdrawFees",
      "outputs": [],
      "stateMutability": "nonpayable",
      "type": "function"
    },
    {
      "stateMutability": "payable",
      "type": "receive"
    }
  ],
  "bytecode": "0x608060405260646007556010805460ff191660011790553480156200002357600080fd5b5060405162005d6138038062005d61833981810160405260a08110156200004957600080fd5b508051602082015160408301516060840151608090940151600160008181558154336001600160a01b031991821681179093556003805482166001600160a01b0398891617905560048054821696881696909617909555600580548616969094169590951790925560069490945560028054909216179055600c91909155615c89908190620000d890396000f3fe60806040526004361061025d5760003560e01c80626cc35e146102b257806304225954146102e35780630d4d003d1461031f5780631045c74e1461036c578063126082cf1461039f57806312d43a51146103b45780631bca8cf0146103c95780631ce9cb8f146103de5780631f28510614610411578063225fc9fd146104bd578063233bfe3b146104f657806324a084df1461052057806327b42c0f14610559578063308aa81f14610592578063332e0382146105c25780633422ead11461069257806336eba48a146106cd5780633a2a80c7146107005780633e72a262146107155780633fc8cef31461072a5780634067b1321461073f5780634278555f14610775578063490ae2101461079f5780635841fcaa146107c95780635d5c22e8146107de57806360a362e21461085857806362f8a3fe14610891578063633451de146108ca57806363ae2103146108fd57806367a5279314610912578063704b6c02146109275780637c2eb9f71461095a57806395e9bbd7146109865780639698d25a146109b057806398d1e03a146109e35780639a208100146109f85780639b57862014610a31578063ae4d7f9a14610a46578063c987417014610a79578063cb0269c914610b4f578063cfad57a214610b64578063e1f21c6714610b97578063e70dd2fc14610bda578063ef12c67e14610cbc578063f255527814610e6e578063f2cea6a514610ea9578063f3883d8b14610ee4578063f851a44014610f1d578063f887ea4014610f32578063fa44457714610f47578063faf990f314610f7a578063fbfa77cf14611008578063fc2cee621461101d576102ad565b366102ad576005546001600160a01b031633146102ab5760405162461bcd60e51b8152600401808060200182810382526023815260200180615be46023913960400191505060405180910390fd5b005b600080fd5b3480156102be57600080fd5b506102c7611047565b604080516001600160a01b039092168252519081900360200190f35b3480156102ef57600080fd5b5061030d6004803603602081101561030657600080fd5b5035611056565b60408051918252519081900360200190f35b34801561032b57600080fd5b506103586004803603604081101561034257600080fd5b50803590602001356001600160a01b0316611074565b604080519115158252519081900360200190f35b34801561037857600080fd5b5061030d6004803603602081101561038f57600080fd5b50356001600160a01b03166114ee565b3480156103ab57600080fd5b5061030d611500565b3480156103c057600080fd5b506102c7611506565b3480156103d557600080fd5b5061030d611515565b3480156103ea57600080fd5b5061030d6004803603602081101561040157600080fd5b50356001600160a01b031661151b565b34801561041d57600080fd5b5061043b6004803603602081101561043457600080fd5b503561152d565b604051808d6001600160a01b031681526020018c6001600160a01b031681526020018b81526020018a81526020018915158152602001886001600160a01b0316815260200187815260200186815260200185815260200184815260200183815260200182151581526020019c5050505050505050505050505060405180910390f35b3480156104c957600080fd5b50610358600480360360408110156104e057600080fd5b50803590602001356001600160a01b0316611599565b34801561050257600080fd5b506102ab6004803603602081101561051957600080fd5b5035611941565b34801561052c57600080fd5b506102ab6004803603604081101561054357600080fd5b506001600160a01b0381351690602001356119c9565b34801561056557600080fd5b506103586004803603604081101561057c57600080fd5b50803590602001356001600160a01b0316611a2d565b34801561059e57600080fd5b506102ab600480360360408110156105b557600080fd5b5080359060200135611dc0565b6102ab60048036036101008110156105d957600080fd5b810190602081018135600160201b8111156105f357600080fd5b82018360208201111561060557600080fd5b803590602001918460208302840111600160201b8311171561062657600080fd5b919080806020026020016040519081016040528093929190818152602001838360200280828437600092019190915250929550506001600160a01b0383351693505050602081013590604081013590606081013515159060808101359060a08101359060c00135611e56565b34801561069e57600080fd5b506102ab600480360360408110156106b557600080fd5b506001600160a01b038135169060200135151561201c565b3480156106d957600080fd5b50610358600480360360208110156106f057600080fd5b50356001600160a01b03166120c9565b34801561070c57600080fd5b5061030d6120de565b34801561072157600080fd5b506103586120e4565b34801561073657600080fd5b506102c76120ed565b34801561074b57600080fd5b506102ab6004803603606081101561076257600080fd5b50803590602081013590604001356120fc565b34801561078157600080fd5b5061030d6004803603602081101561079857600080fd5b503561219d565b3480156107ab57600080fd5b506102ab600480360360208110156107c257600080fd5b50356121aa565b3480156107d557600080fd5b5061030d612232565b3480156107ea57600080fd5b506108086004803603602081101561080157600080fd5b5035612238565b60408051602080825283518183015283519192839290830191858101910280838360005b8381101561084457818101518382015260200161082c565b505050509050019250505060405180910390f35b34801561086457600080fd5b506103586004803603604081101561087b57600080fd5b50803590602001356001600160a01b0316612363565b34801561089d57600080fd5b5061030d600480360360408110156108b457600080fd5b506001600160a01b0381351690602001356126f1565b3480156108d657600080fd5b5061030d600480360360208110156108ed57600080fd5b50356001600160a01b0316612737565b34801561090957600080fd5b5061030d612749565b34801561091e57600080fd5b5061030d61274f565b34801561093357600080fd5b506102ab6004803603602081101561094a57600080fd5b50356001600160a01b0316612755565b34801561096657600080fd5b506102ab6004803603602081101561097d57600080fd5b503515156127f6565b34801561099257600080fd5b50610808600480360360208110156109a957600080fd5b503561288a565b3480156109bc57600080fd5b5061030d600480360360208110156109d357600080fd5b50356001600160a01b03166129a7565b3480156109ef57600080fd5b5061030d6129b9565b348015610a0457600080fd5b506102ab60048036036040811015610a1b57600080fd5b50803590602001356001600160a01b03166129bf565b348015610a3d57600080fd5b5061030d612b9f565b348015610a5257600080fd5b506102ab60048036036020811015610a6957600080fd5b50356001600160a01b0316612ba5565b6102ab6004803603610120811015610a9057600080fd5b810190602081018135600160201b811115610aaa57600080fd5b820183602082011115610abc57600080fd5b803590602001918460208302840111600160201b83111715610add57600080fd5b919080806020026020016040519081016040528093929190818152602001838360200280828437600092019190915250929550506001600160a01b0383351693505050602081013590604081013590606081013590608081013515159060a08101359060c08101359060e00135612c46565b348015610b5b57600080fd5b5061030d612e32565b348015610b7057600080fd5b506102ab60048036036020811015610b8757600080fd5b50356001600160a01b0316612e38565b348015610ba357600080fd5b506102ab60048036036060811015610bba57600080fd5b506001600160a01b03813581169160208101359091169060400135612ea7565b6102ab6004803603610140811015610bf157600080fd5b810190602081018135600160201b811115610c0b57600080fd5b820183602082011115610c1d57600080fd5b803590602001918460208302840111600160201b83111715610c3e57600080fd5b919080806020026020016040519081016040528093929190818152602001838360200280828437600092019190915250929550505081356001600160a01b0390811693506020830135926040810135925060608101351515916080820135169060a08101359060c08101359060e08101359061010001351515612f7c565b348015610cc857600080fd5b506102ab60048036036060811015610cdf57600080fd5b810190602081018135600160201b811115610cf957600080fd5b820183602082011115610d0b57600080fd5b803590602001918460208302840111600160201b83111715610d2c57600080fd5b9190808060200260200160405190810160405280939291908181526020018383602002808284376000920191909152509295949360208101935035915050600160201b811115610d7b57600080fd5b820183602082011115610d8d57600080fd5b803590602001918460208302840111600160201b83111715610dae57600080fd5b9190808060200260200160405190810160405280939291908181526020018383602002808284376000920191909152509295949360208101935035915050600160201b811115610dfd57600080fd5b820183602082011115610e0f57600080fd5b803590602001918460208302840111600160201b83111715610e3057600080fd5b919080806020026020016040519081016040528093929190818152602001838360200280828437600092019190915250929550613136945050505050565b348015610e7a57600080fd5b506102ab60048036036040811015610e9157600080fd5b506001600160a01b0381358116916020013516613325565b348015610eb557600080fd5b50610ebe613409565b604080519485526020850193909352838301919091526060830152519081900360800190f35b348015610ef057600080fd5b506102ab60048036036040811015610f0757600080fd5b50803590602001356001600160a01b031661341b565b348015610f2957600080fd5b506102c76135fb565b348015610f3e57600080fd5b506102c761360a565b348015610f5357600080fd5b5061030d60048036036020811015610f6a57600080fd5b50356001600160a01b0316613619565b348015610f8657600080fd5b50610fa460048036036020811015610f9d57600080fd5b503561362b565b604080516001600160a01b039c8d1681529a909b1660208b0152898b01989098526060890196909652608088019490945291151560a087015260c086015260e085015261010084015261012083015215156101408201529051908190036101600190f35b34801561101457600080fd5b506102c7613695565b34801561102957600080fd5b506102ab6004803603602081101561104057600080fd5b50356136a4565b6008546001600160a01b031681565b6011818154811061106357fe5b600091825260209091200154905081565b6000600260005414156110bc576040805162461bcd60e51b815260206004820152601f6024820152600080516020615972833981519152604482015290519081900360640190fd5b60026000556110c961576a565b60008481526019602090815260409182902082516101a08101845281546001600160a01b031681526001820180548551818602810186019096528086529194929385810193929083018282801561114957602002820191906000526020600020905b81546001600160a01b0316815260019091019060200180831161112b575b505050918352505060028201546001600160a01b0390811660208301526003830154604083015260048301546060830152600583015460ff8082161515608085015261010091829004831660a0850152600685015460c0850152600785015460e08501526008850154918401919091526009840154610120840152600a840154610140840152600b909301549092161515610160909101528151919250166111f55760019150506114e3565b6000611210826101400151836101600151846000015161372c565b905080611222576000925050506114e3565b600085815260196020526040812080546001600160a01b03191681559061124c60018301826157f1565b506002810180546001600160a01b0319169055600060038201819055600482018190556005820180546001600160a81b031916905560068201819055600782018190556008820181905560098201819055600a8201819055600b909101805460ff191690558251602084015180516112ef92919084906112c857fe5b60200260200101518560400151866060015187608001518860a00151308a60e001516138c4565b9050600183602001515111156113595760035460208401518051611342926001600160a01b031691849160009061132257fe5b60200260200101516001600160a01b0316613c789092919063ffffffff16565b611356836020015184610100015130613ccf565b90505b8261018001511561137757611372818460c00151613d4d565b611398565b6113988360c001518285602001516001876020015151038151811061132257fe5b6113a783610120015186613de8565b82600001516001600160a01b03167f21435c5b618d77ff3657140cd3318e2cffaebc5e0e1b7318f56a9ba4044c3ed284602001518560400151866060015187608001518860a001518960c001518a60e001518b61010001518c610120015161141d8e610140015143613e6190919063ffffffff16565b6101608f015161142e904290613e61565b60405180806020018c6001600160a01b031681526020018b81526020018a81526020018915158152602001886001600160a01b0316815260200187815260200186815260200185815260200184815260200183815260200182810382528d818151815260200191508051906020019060200280838360005b838110156114be5781810151838201526020016114a6565b505050509050019c5050505050505050505050505060405180910390a2600193505050505b600160005592915050565b600a6020526000908152604090205481565b61271081565b6001546001600160a01b031681565b60145481565b60096020526000908152604090205481565b6019602052600090815260409020805460028201546003830154600484015460058501546006860154600787015460088801546009890154600a8a0154600b909a01546001600160a01b03998a169a988a16999798969760ff808816986101009098049091169691168c565b6000600260005414156115e1576040805162461bcd60e51b815260206004820152601f6024820152600080516020615972833981519152604482015290519081900360640190fd5b60026000556115ee61580f565b60008481526017602090815260409182902082516101808101845281546001600160a01b031681526001820180548551818602810186019096528086529194929385810193929083018282801561166e57602002820191906000526020600020905b81546001600160a01b03168152600190910190602001808311611650575b505050918352505060028201546001600160a01b039081166020830152600383015460408301526004830154606083015260058301546080830152600683015460ff908116151560a0840152600784015460c0840152600884015460e08401526009840154610100840152600a840154610120840152600b9093015490921615156101409091015281519192501661170a5760019150506114e3565b60006117258261012001518361014001518460000151613ea3565b905080611737576000925050506114e3565b600085815260176020526040812080546001600160a01b03191681559061176160018301826157f1565b506002810180546001600160a01b0319169055600060038201819055600482018190556005820181905560068201805460ff19908116909155600783018290556008830182905560098301829055600a830191909155600b90910180549091169055610160820151156117e5576117e082606001518360000151613d4d565b611803565b61180382600001518360600151846020015160008151811061132257fe5b61181282610100015185613de8565b81600001516001600160a01b03167f35b638e650e2328786fb405bd69d2083dbedc018d086662e74b775b4f1dae4bf83602001518460400151856060015186608001518760a001518860c001518960e001518a61010001516118828c610120015143613e6190919063ffffffff16565b6101408d0151611893904290613e61565b60405180806020018b6001600160a01b031681526020018a8152602001898152602001888152602001871515815260200186815260200185815260200184815260200183815260200182810382528c818151815260200191508051906020019060200280838360005b838110156119145781810151838201526020016118fc565b505050509050019b50505050505050505050505060405180910390a2600192505050600160005592915050565b6002546001600160a01b0316331461198e576040805162461bcd60e51b815260206004820152601e6024820152600080516020615ad2833981519152604482015290519081900360640190fd5b60078190556040805182815290517f21167d0d4661af93817ebce920f18986eed3d75d5e1c03f2aed05efcbafbc4529181900360200190a150565b6001546001600160a01b03163314611a16576040805162461bcd60e51b815260206004820152601560248201526000805160206159b3833981519152604482015290519081900360640190fd5b611a296001600160a01b03831682613f13565b5050565b600060026000541415611a75576040805162461bcd60e51b815260206004820152601f6024820152600080516020615972833981519152604482015290519081900360640190fd5b6002600055611a8261580f565b60008481526017602090815260409182902082516101808101845281546001600160a01b0316815260018201805485518186028101860190965280865291949293858101939290830182828015611b0257602002820191906000526020600020905b81546001600160a01b03168152600190910190602001808311611ae4575b505050918352505060028201546001600160a01b039081166020830152600383015460408301526004830154606083015260058301546080830152600683015460ff908116151560a0840152600784015460c0840152600884015460e08401526009840154610100840152600a840154610120840152600b90930154909216151561014090910152815191925016611b9e5760019150506114e3565b6000611bb9826101200151836101400151846000015161372c565b905080611bcb576000925050506114e3565b600085815260176020526040812080546001600160a01b031916815590611bf560018301826157f1565b506002810180546001600160a01b0319169055600060038201819055600482018190556005820181905560068201805460ff19908116909155600783018290556008830182905560098301829055600a830191909155600b90910180549091169055606082015115611d0357606082015160208301515160011015611cb257600354606084015160208501518051611c9c936001600160a01b031692919060009061132257fe5b611caf8360200151846080015130613ccf565b90505b6000611cd23385602001518487604001518860c001518960a00151613ff8565b60035460208601518051929350611d00926001600160a01b0390921691849190600019810190811061132257fe5b50505b815160208301518051611d419291906000198101908110611d2057fe5b602002602001015184604001518560a001518660c001518760e001516140d7565b611d5082610100015185613de8565b81600001516001600160a01b03167f1be316b94d38c07bd41cdb4913772d0a0a82802786a2f8b657b6e85dbcdfc64183602001518460400151856060015186608001518760a001518860c001518960e001518a61010001516118828c610120015143613e6190919063ffffffff16565b6002546001600160a01b03163314611e0d576040805162461bcd60e51b815260206004820152601e6024820152600080516020615ad2833981519152604482015290519081900360640190fd5b60138290556014819055604080518381526020810183905281517febb0f666150f4be5b60c45df8f3e49992510b0128027fe58eea6110f296493bc929181900390910190a15050565b60026000541415611e9c576040805162461bcd60e51b815260206004820152601f6024820152600080516020615972833981519152604482015290519081900360640190fd5b6002600055600c54821015611ee25760405162461bcd60e51b815260040180806020018281038252602481526020018061594e6024913960400191505060405180910390fd5b81341015611f215760405162461bcd60e51b81526004018080602001828103825260218152602001806159926021913960400191505060405180910390fd5b875160011480611f32575087516002145b611f6d5760405162461bcd60e51b81526004018080602001828103825260248152602001806159fe6024913960400191505060405180910390fd5b60055488516001600160a01b03909116908990600090611f8957fe5b60200260200101516001600160a01b031614611fda576040805162461bcd60e51b815260206004820152601d6024820152600080516020615a5c833981519152604482015290519081900360640190fd5b611fe26145d4565b611feb81614640565b6000611ff73484613e61565b905061200c338a8a848b8b8b8b8b60016146b4565b5050600160005550505050505050565b6002546001600160a01b03163314612069576040805162461bcd60e51b815260206004820152601e6024820152600080516020615ad2833981519152604482015290519081900360640190fd5b6001600160a01b038216600081815260156020908152604091829020805460ff1916851515908117909155825190815291517ffbabc02389290a451c6e600d05bf9887b99bfad39d8e1237e4e3df042e4941fe9281900390910190a25050565b60156020526000908152604090205460ff1681565b600e5481565b60105460ff1681565b6005546001600160a01b031681565b6002546001600160a01b03163314612149576040805162461bcd60e51b815260206004820152601e6024820152600080516020615ad2833981519152604482015290519081900360640190fd5b600d839055600e829055600f819055604080518481526020810184905280820183905290517fb98e759701eaca2e60c25e91109003c1c7442ef731b5d569037063005da8254d9181900360600190a1505050565b6012818154811061106357fe5b6002546001600160a01b031633146121f7576040805162461bcd60e51b815260206004820152601e6024820152600080516020615ad2833981519152604482015290519081900360640190fd5b60068190556040805182815290517f974fd3c1fcb4653dfc4fb740c4c692cd212d55c28f163f310128cb64d83006759181900360200190a150565b600d5481565b606061224261576a565b60008381526019602090815260409182902082516101a08101845281546001600160a01b03168152600182018054855181860281018601909652808652919492938581019392908301828280156122c257602002820191906000526020600020905b81546001600160a01b031681526001909101906020018083116122a4575b505050918352505060028201546001600160a01b039081166020808401919091526003840154604084015260048401546060840152600584015460ff808216151560808601526101009182900490931660a0850152600685015460c0850152600785015460e08501526008850154908401526009840154610120840152600a840154610140840152600b909301541615156101609091015201519392505050565b6000600260005414156123ab576040805162461bcd60e51b815260206004820152601f6024820152600080516020615972833981519152604482015290519081900360640190fd5b60026000556123b861576a565b60008481526019602090815260409182902082516101a08101845281546001600160a01b031681526001820180548551818602810186019096528086529194929385810193929083018282801561243857602002820191906000526020600020905b81546001600160a01b0316815260019091019060200180831161241a575b505050918352505060028201546001600160a01b0390811660208301526003830154604083015260048301546060830152600583015460ff8082161515608085015261010091829004831660a0850152600685015460c0850152600785015460e08501526008850154918401919091526009840154610120840152600a840154610140840152600b909301549092161515610160909101528151919250166124e45760019150506114e3565b60006124ff8261014001518361016001518460000151613ea3565b905080612511576000925050506114e3565b600085815260196020526040812080546001600160a01b03191681559061253b60018301826157f1565b506002810180546001600160a01b0319169055600060038201819055600482018190556005820180546001600160a81b031916905560068201819055600782018190556008820181905560098201819055600a820155600b01805460ff191690556101208201516125ac9085613de8565b81600001516001600160a01b03167f87abfd78e844f28318363bdf3da99eab2f4a2da9ff7ae365484507f7b6c3f80583602001518460400151856060015186608001518760a001518860c001518960e001518a61010001518b61012001516126228d610140015143613e6190919063ffffffff16565b6101608e0151612633904290613e61565b60405180806020018c6001600160a01b031681526020018b81526020018a81526020018915158152602001886001600160a01b0316815260200187815260200186815260200185815260200184815260200183815260200182810382528d818151815260200191508051906020019060200280838360005b838110156126c35781810151838201526020016126ab565b505050509050019c5050505050505050505050505060405180910390a2600192505050600160005592915050565b6000828260405160200180836001600160a01b031660601b8152601401828152602001925050506040516020818303038152906040528051906020012090505b92915050565b60166020526000908152604090205481565b600c5481565b60065481565b6001546001600160a01b031633146127a2576040805162461bcd60e51b815260206004820152601560248201526000805160206159b3833981519152604482015290519081900360640190fd5b600280546001600160a01b0383166001600160a01b0319909116811790915560408051918252517f5a272403b402d892977df56625f4164ccaf70ca3863991c43ecfe76a6905b0a19181900360200190a150565b6002546001600160a01b03163314612843576040805162461bcd60e51b815260206004820152601e6024820152600080516020615ad2833981519152604482015290519081900360640190fd5b6010805482151560ff19909116811790915560408051918252517f4eb87a5935d402aa24c01b45bfb30adefcd2328b480f2d967864de4b64ea929f9181900360200190a150565b606061289461580f565b60008381526017602090815260409182902082516101808101845281546001600160a01b031681526001820180548551818602810186019096528086529194929385810193929083018282801561291457602002820191906000526020600020905b81546001600160a01b031681526001909101906020018083116128f6575b505050918352505060028201546001600160a01b0316602080830191909152600383015460408301526004830154606083015260058301546080830152600683015460ff908116151560a0840152600784015460c0840152600884015460e08401526009840154610100840152600a840154610120840152600b9093015490921615156101409091015201519392505050565b600b6020526000908152604090205481565b60075481565b3360009081526015602052604090205460ff16612a11576040805162461bcd60e51b81526020600482015260196024820152600080516020615bc4833981519152604482015290519081900360640190fd5b601354601154808210612a25575050611a29565b80841115612a31578093505b83821015612b9757600060118381548110612a4857fe5b90600052602060002001549050306001600160a01b03166327b42c0f82866040518363ffffffff1660e01b815260040180838152602001826001600160a01b0316815260200192505050602060405180830381600087803b158015612aac57600080fd5b505af1925050508015612ad157506040513d6020811015612acc57600080fd5b505160015b612b65576040805163225fc9fd60e01b8152600481018390526001600160a01b03861660248201529051309163225fc9fd9160448083019260209291908290030181600087803b158015612b2457600080fd5b505af1925050508015612b4957506040513d6020811015612b4457600080fd5b505160015b612b5257612b60565b80612b5e575050612b97565b505b612b73565b80612b71575050612b97565b505b60118381548110612b8057fe5b600091825260208220015550600190910190612a31565b506013555050565b60135481565b6002546001600160a01b03163314612bf2576040805162461bcd60e51b815260206004820152601e6024820152600080516020615ad2833981519152604482015290519081900360640190fd5b600880546001600160a01b0383166001600160a01b0319909116811790915560408051918252517f828abcccea18192c21d645e575652c49e20b986dab777906fc473d056b01b6a89181900360200190a150565b60026000541415612c8c576040805162461bcd60e51b815260206004820152601f6024820152600080516020615972833981519152604482015290519081900360640190fd5b6002600055600c54821015612cd25760405162461bcd60e51b815260040180806020018281038252602481526020018061594e6024913960400191505060405180910390fd5b813414612d105760405162461bcd60e51b81526004018080602001828103825260218152602001806159926021913960400191505060405180910390fd5b885160011480612d21575088516002145b612d5c5760405162461bcd60e51b81526004018080602001828103825260248152602001806159fe6024913960400191505060405180910390fd5b612d646145d4565b612d6d81614640565b8615612e1f5760045489516001600160a01b0390911690631b827878908b90600090612d9557fe5b602002602001015133308b6040518563ffffffff1660e01b815260040180856001600160a01b03168152602001846001600160a01b03168152602001836001600160a01b03168152602001828152602001945050505050600060405180830381600087803b158015612e0657600080fd5b505af1158015612e1a573d6000803e3d6000fd5b505050505b61200c338a8a8a8a8a8a8a8a60006146b4565b600f5481565b6001546001600160a01b03163314612e85576040805162461bcd60e51b815260206004820152601560248201526000805160206159b3833981519152604482015290519081900360640190fd5b600180546001600160a01b0319166001600160a01b0392909216919091179055565b6001546001600160a01b03163314612ef4576040805162461bcd60e51b815260206004820152601560248201526000805160206159b3833981519152604482015290519081900360640190fd5b826001600160a01b031663095ea7b383836040518363ffffffff1660e01b815260040180836001600160a01b0316815260200182815260200192505050602060405180830381600087803b158015612f4b57600080fd5b505af1158015612f5f573d6000803e3d6000fd5b505050506040513d6020811015612f7557600080fd5b5050505050565b60026000541415612fc2576040805162461bcd60e51b815260206004820152601f6024820152600080516020615972833981519152604482015290519081900360640190fd5b6002600055600c548210156130085760405162461bcd60e51b815260040180806020018281038252602481526020018061594e6024913960400191505060405180910390fd5b8134146130465760405162461bcd60e51b81526004018080602001828103825260218152602001806159926021913960400191505060405180910390fd5b895160011480613057575089516002145b6130925760405162461bcd60e51b81526004018080602001828103825260248152602001806159fe6024913960400191505060405180910390fd5b801561310a576005548a516001600160a01b03909116908b9060001981019081106130b957fe5b60200260200101516001600160a01b03161461310a576040805162461bcd60e51b815260206004820152601d6024820152600080516020615a5c833981519152604482015290519081900360640190fd5b6131126145d4565b613125338b8b8b8b8b8b8b8b8b8b614994565b505060016000555050505050505050565b6002546001600160a01b03163314613183576040805162461bcd60e51b815260206004820152601e6024820152600080516020615ad2833981519152604482015290519081900360640190fd5b60005b835181101561321e57600084828151811061319d57fe5b602002602001015190508382815181106131b357fe5b6020026020010151600a6000836001600160a01b03166001600160a01b03168152602001908152602001600020819055508282815181106131f057fe5b6020908102919091018101516001600160a01b039092166000908152600b9091526040902055600101613186565b507fae32d569b058895b9620d6552b09aaffedc9a6f396be4d595a224ad09f8b213983838360405180806020018060200180602001848103845287818151815260200191508051906020019060200280838360005b8381101561328b578181015183820152602001613273565b50505050905001848103835286818151815260200191508051906020019060200280838360005b838110156132ca5781810151838201526020016132b2565b50505050905001848103825285818151815260200191508051906020019060200280838360005b838110156133095781810151838201526020016132f1565b50505050905001965050505050505060405180910390a1505050565b6002546001600160a01b03163314613372576040805162461bcd60e51b815260206004820152601e6024820152600080516020615ad2833981519152604482015290519081900360640190fd5b6001600160a01b038216600090815260096020526040902054806133965750611a29565b6001600160a01b0383166000818152600960205260408120556133ba908383613c78565b604080516001600160a01b0380861682528416602082015280820183905290517f4f1b51dd7a2fcb861aa2670f668be66835c4ee12b4bbbf037e4d0018f39819e49181900360600190a1505050565b60135460115460145460125490919293565b3360009081526015602052604090205460ff1661346d576040805162461bcd60e51b81526020600482015260196024820152600080516020615bc4833981519152604482015290519081900360640190fd5b601454601254808210613481575050611a29565b8084111561348d578093505b838210156135f3576000601283815481106134a457fe5b90600052602060002001549050306001600160a01b0316630d4d003d82866040518363ffffffff1660e01b815260040180838152602001826001600160a01b0316815260200192505050602060405180830381600087803b15801561350857600080fd5b505af192505050801561352d57506040513d602081101561352857600080fd5b505160015b6135c15760408051633051b17160e11b8152600481018390526001600160a01b0386166024820152905130916360a362e29160448083019260209291908290030181600087803b15801561358057600080fd5b505af19250505080156135a557506040513d60208110156135a057600080fd5b505160015b6135ae576135bc565b806135ba5750506135f3565b505b6135cf565b806135cd5750506135f3565b505b601283815481106135dc57fe5b60009182526020822001555060019091019061348d565b506014555050565b6002546001600160a01b031681565b6004546001600160a01b031681565b60186020526000908152604090205481565b6017602052600090815260409020805460028201546003830154600484015460058501546006860154600787015460088801546009890154600a8a0154600b909a01546001600160a01b03998a169a999098169896979596949560ff94851695939492939192168b565b6003546001600160a01b031681565b6002546001600160a01b031633146136f1576040805162461bcd60e51b815260206004820152601e6024820152600080516020615ad2833981519152604482015290519081900360640190fd5b600c8190556040805182815290517f52a8358457e20bbb36e4086b83fb0749599f1893fe4c35a876c46dc4886d12db9181900360200190a150565b600042613744600f5485614cbb90919063ffffffff16565b116137805760405162461bcd60e51b8152600401808060200182810382526023815260200180615c316023913960400191505060405180910390fd5b60003330148061379f57503360009081526015602052604090205460ff165b60105490915060ff161580156137b3575080155b156137f3576040805162461bcd60e51b81526020600482015260196024820152600080516020615bc4833981519152604482015290519081900360640190fd5b8015613819574361380f600d5487614cbb90919063ffffffff16565b11159150506138bd565b336001600160a01b03841614613864576040805162461bcd60e51b81526020600482015260196024820152600080516020615bc4833981519152604482015290519081900360640190fd5b4261387a600e5486614cbb90919063ffffffff16565b11156138b75760405162461bcd60e51b8152600401808060200182810382526028815260200180615b736028913960400191505060405180910390fd5b60019150505b9392505050565b6003546000906001600160a01b031684156139955782816001600160a01b03166381a612d68a6040518263ffffffff1660e01b815260040180826001600160a01b0316815260200191505060206040518083038186803b15801561392757600080fd5b505afa15801561393b573d6000803e3d6000fd5b505050506040513d602081101561395157600080fd5b505110156139905760405162461bcd60e51b8152600401808060200182810382526030815260200180615aa26030913960400191505060405180910390fd5b613a4c565b82816001600160a01b031663e124e6d28a6040518263ffffffff1660e01b815260040180826001600160a01b0316815260200191505060206040518083038186803b1580156139e357600080fd5b505afa1580156139f7573d6000803e3d6000fd5b505050506040513d6020811015613a0d57600080fd5b50511115613a4c5760405162461bcd60e51b8152600401808060200182810382526031815260200180615b426031913960400191505060405180910390fd5b6000816001600160a01b03166312d43a516040518163ffffffff1660e01b815260040160206040518083038186803b158015613a8757600080fd5b505afa158015613a9b573d6000803e3d6000fd5b505050506040513d6020811015613ab157600080fd5b5051604080516306d63c1d60e41b81526001600160a01b038581166004830152915192935090831691636d63c1d09160248082019260009290919082900301818387803b158015613b0157600080fd5b505af1158015613b15573d6000803e3d6000fd5b505050506000600460009054906101000a90046001600160a01b03166001600160a01b0316632662166b8d8d8d8d8d8d8d6040518863ffffffff1660e01b815260040180886001600160a01b03168152602001876001600160a01b03168152602001866001600160a01b031681526020018581526020018481526020018315158152602001826001600160a01b03168152602001975050505050505050602060405180830381600087803b158015613bcc57600080fd5b505af1158015613be0573d6000803e3d6000fd5b505050506040513d6020811015613bf657600080fd5b50516040805163d3c87bbb60e01b81526001600160a01b03868116600483015291519293509084169163d3c87bbb9160248082019260009290919082900301818387803b158015613c4657600080fd5b505af1158015613c5a573d6000803e3d6000fd5b50505050613c698c8b8a614d13565b9b9a5050505050505050505050565b604080516001600160a01b038416602482015260448082018490528251808303909101815260649091019091526020810180516001600160e01b031663a9059cbb60e01b179052613cca908490614f11565b505050565b6000835160021415613d1657613d0f84600081518110613ceb57fe5b602002602001015185600181518110613d0057fe5b60200260200101518585614fc2565b90506138bd565b60405162461bcd60e51b8152600401808060200182810382526029815260200180615b9b6029913960400191505060405180910390fd5b60055460408051632e1a7d4d60e01b81526004810185905290516001600160a01b0390921691632e1a7d4d9160248082019260009290919082900301818387803b158015613d9a57600080fd5b505af1158015613dae573d6000803e3d6000fd5b50506040516001600160a01b038416925084156108fc02915084906000818181858888f19350505050158015613cca573d6000803e3d6000fd5b60055460408051632e1a7d4d60e01b81526004810185905290516001600160a01b0390921691632e1a7d4d9160248082019260009290919082900301818387803b158015613e3557600080fd5b505af1158015613e49573d6000803e3d6000fd5b50611a29925050506001600160a01b03821683613f13565b60006138bd83836040518060400160405280601e81526020017f536166654d6174683a207375627472616374696f6e206f766572666c6f770000815250615098565b6000803330148061379f57503360009081526015602052604090205460ff1660105490915060ff161580156137b35750806137f3576040805162461bcd60e51b81526020600482015260196024820152600080516020615bc4833981519152604482015290519081900360640190fd5b80471015613f68576040805162461bcd60e51b815260206004820152601d60248201527f416464726573733a20696e73756666696369656e742062616c616e6365000000604482015290519081900360640190fd5b6040516000906001600160a01b0384169083908381818185875af1925050503d8060008114613fb3576040519150601f19603f3d011682016040523d82523d6000602084013e613fb8565b606091505b5050905080613cca5760405162461bcd60e51b815260040180806020018281038252603a815260200180615a22603a913960400191505060405180910390fd5b60008061400988888888888861512f565b905080156140c857600061404061271061403a614033600654612710613e6190919063ffffffff16565b8a9061530c565b90615365565b9050600061404e8883613e61565b905060008960018b51038151811061406257fe5b602002602001015190506140a48260096000846001600160a01b03166001600160a01b0316815260200190815260200160002054614cbb90919063ffffffff16565b6001600160a01b039091166000908152600960205260409020555091506140cd9050565b859150505b9695505050505050565b6003546001600160a01b031682156141a55781816001600160a01b031663e124e6d2876040518263ffffffff1660e01b815260040180826001600160a01b0316815260200191505060206040518083038186803b15801561413757600080fd5b505afa15801561414b573d6000803e3d6000fd5b505050506040513d602081101561416157600080fd5b505111156141a05760405162461bcd60e51b8152600401808060200182810382526031815260200180615b426031913960400191505060405180910390fd5b61425c565b81816001600160a01b03166381a612d6876040518263ffffffff1660e01b815260040180826001600160a01b0316815260200191505060206040518083038186803b1580156141f357600080fd5b505afa158015614207573d6000803e3d6000fd5b505050506040513d602081101561421d57600080fd5b5051101561425c5760405162461bcd60e51b8152600401808060200182810382526030815260200180615aa26030913960400191505060405180910390fd5b821561434d576001600160a01b0385166000908152600a6020526040902054801580159061430b57508061430986846001600160a01b031663f07456ce8a6040518263ffffffff1660e01b815260040180826001600160a01b0316815260200191505060206040518083038186803b1580156142d757600080fd5b505afa1580156142eb573d6000803e3d6000fd5b505050506040513d602081101561430157600080fd5b505190614cbb565b115b156143475760405162461bcd60e51b815260040180806020018281038252602e815260200180615920602e913960400191505060405180910390fd5b50614402565b6001600160a01b0385166000908152600b602052604090205480158015906143c45750806143c286846001600160a01b0316638a78daa88a6040518263ffffffff1660e01b815260040180826001600160a01b0316815260200191505060206040518083038186803b1580156142d757600080fd5b115b156144005760405162461bcd60e51b815260040180806020018281038252602f815260200180615af2602f913960400191505060405180910390fd5b505b6000816001600160a01b03166312d43a516040518163ffffffff1660e01b815260040160206040518083038186803b15801561443d57600080fd5b505afa158015614451573d6000803e3d6000fd5b505050506040513d602081101561446757600080fd5b5051604080516306d63c1d60e41b81526001600160a01b038581166004830152915192935090831691636d63c1d09160248082019260009290919082900301818387803b1580156144b757600080fd5b505af11580156144cb573d6000803e3d6000fd5b50506004805460408051630f8ee8bb60e11b81526001600160a01b038e8116948201949094528c841660248201528b84166044820152606481018b905289151560848201529051929091169350631f1dd176925060a48082019260009290919082900301818387803b15801561454057600080fd5b505af1158015614554573d6000803e3d6000fd5b50505050806001600160a01b031663d3c87bbb836040518263ffffffff1660e01b815260040180826001600160a01b03168152602001915050600060405180830381600087803b1580156145a757600080fd5b505af11580156145bb573d6000803e3d6000fd5b505050506145ca8887876153a4565b5050505050505050565b341561463e57600560009054906101000a90046001600160a01b03166001600160a01b031663d0e30db0346040518263ffffffff1660e01b81526004016000604051808303818588803b15801561462a57600080fd5b505af1158015612f75573d6000803e3d6000fd5b565b801580159061465957506008546001600160a01b031615155b156146b157600854604080516356b4b2ad60e01b81523360048201526024810184905290516001600160a01b03909216916356b4b2ad9160448082019260009290919082900301818387803b15801561462a57600080fd5b50565b6001600160a01b038a166000908152601660205260408120546146d8906001614cbb565b6001600160a01b038c16600090815260166020526040902081905590506146fd61580f565b6040518061018001604052808d6001600160a01b031681526020018c81526020018b6001600160a01b031681526020018a81526020018981526020018881526020018715158152602001868152602001858152602001438152602001428152602001841515815250905060006147738d846126f1565b6000818152601760209081526040909120845181546001600160a01b0319166001600160a01b03909116178155848201518051939450859391926147bf92600185019290910190615886565b5060408201518160020160006101000a8154816001600160a01b0302191690836001600160a01b03160217905550606082015181600301556080820151816004015560a0820151816005015560c08201518160060160006101000a81548160ff02191690831515021790555060e082015181600701556101008201518160080155610120820151816009015561014082015181600a015561016082015181600b0160006101000a81548160ff02191690831515021790555090505060118190806001815401808255809150506001900390600052602060002001600090919091909150558c6001600160a01b03167fa89f00a1c1cd0de066abac1a05f9314520fef2a9b98f6a99ff4548ed1161c03c8d8d8d8d8d8d8d8d8c43423a60405180806020018d6001600160a01b031681526020018c81526020018b81526020018a8152602001891515815260200188815260200187815260200186815260200185815260200184815260200183815260200182810382528e818151815260200191508051906020019060200280838360005b8381101561496757818101518382015260200161494f565b505050509050019d505050505050505050505050505060405180910390a250505050505050505050505050565b6001600160a01b038b166000908152601860205260408120546149b8906001614cbb565b6001600160a01b038d16600090815260186020526040902081905590506149dd61576a565b604051806101a001604052808e6001600160a01b031681526020018d81526020018c6001600160a01b031681526020018b81526020018a81526020018915158152602001886001600160a01b0316815260200187815260200186815260200185815260200143815260200142815260200184151581525090506000614a628e846126f1565b6000818152601960209081526040909120845181546001600160a01b0319166001600160a01b0390911617815584820151805193945085939192614aae92600185019290910190615886565b5060408201518160020160006101000a8154816001600160a01b0302191690836001600160a01b03160217905550606082015181600301556080820151816004015560a08201518160050160006101000a81548160ff02191690831515021790555060c08201518160050160016101000a8154816001600160a01b0302191690836001600160a01b0316021790555060e0820151816006015561010082015181600701556101208201518160080155610140820151816009015561016082015181600a015561018082015181600b0160006101000a81548160ff02191690831515021790555090505060128190806001815401808255809150506001900390600052602060002001600090919091909150558d6001600160a01b03167f506f2634e4508d88b04b7511af75c6d4c29b2b6f4f5067676b9400b28f3761d28e8e8e8e8e8e8e8e8e8d434260405180806020018d6001600160a01b031681526020018c81526020018b81526020018a15158152602001896001600160a01b0316815260200188815260200187815260200186815260200185815260200184815260200183815260200182810382528e818151815260200191508051906020019060200280838360005b83811015614c8d578181015183820152602001614c75565b505050509050019d505050505050505050505050505060405180910390a25050505050505050505050505050565b6000828201838110156138bd576040805162461bcd60e51b815260206004820152601b60248201527a536166654d6174683a206164646974696f6e206f766572666c6f7760281b604482015290519081900360640190fd5b6008546001600160a01b031680614d2a5750613cca565b600080826001600160a01b031663534ef883876040518263ffffffff1660e01b815260040180826001600160a01b03168152602001915050604080518083038186803b158015614d7957600080fd5b505afa158015614d8d573d6000803e3d6000fd5b505050506040513d6040811015614da357600080fd5b508051602090910151909250905081614dbe57505050613cca565b60035460408051630d11c1bd60e41b815290516000926001600160a01b03169163d11c1bd0916004808301926020929190829003018186803b158015614e0357600080fd5b505afa158015614e17573d6000803e3d6000fd5b505050506040513d6020811015614e2d57600080fd5b505160408051630f18bc8560e11b81526001600160a01b03898116600483015291519293507f474c763ff84bf2c2039a6d9fea955ecd0f724030e3c365b91169c6a16fe751b7928a92899290861691631e31790a91602480820192602092909190829003018186803b158015614ea257600080fd5b505afa158015614eb6573d6000803e3d6000fd5b505050506040513d6020811015614ecc57600080fd5b5051604080516001600160a01b03948516815260208101939093528281019190915260608201879052918516608082015290519081900360a00190a150505050505050565b6060614f66826040518060400160405280602081526020017f5361666545524332303a206c6f772d6c6576656c2063616c6c206661696c6564815250856001600160a01b03166155269092919063ffffffff16565b805190915015613cca57808060200190516020811015614f8557600080fd5b5051613cca5760405162461bcd60e51b815260040180806020018281038252602a815260200180615c07602a913960400191505060405180910390fd5b60035460408051634998b10960e11b81526001600160a01b03878116600483015286811660248301528481166044830152915160009384931691639331621291606480830192602092919082900301818787803b15801561502257600080fd5b505af1158015615036573d6000803e3d6000fd5b505050506040513d602081101561504c57600080fd5b505190508381101561508f5760405162461bcd60e51b815260040180806020018281038252602b8152602001806159d3602b913960400191505060405180910390fd5b95945050505050565b600081848411156151275760405162461bcd60e51b81526004018080602001828103825283818151815260200191508051906020019080838360005b838110156150ec5781810151838201526020016150d4565b50505050905090810190601f1680156151195780820380516001836020036101000a031916815260200191505b509250505060405180910390fd5b505050900390565b60008261513e575060006140cd565b8161514b575060016140cd565b60008660018851038151811061515d57fe5b602090810291909101015160035460408051634a3f088d60e01b81526001600160a01b038c81166004830152808516602483015289811660448301528815156064830152915193945091169160009182918491634a3f088d91608480830192610100929190829003018186803b1580156151d657600080fd5b505afa1580156151ea573d6000803e3d6000fd5b505050506040513d61010081101561520157600080fd5b5080516020909101519092509050816152215760009450505050506140cd565b600061522d8388614cbb565b90506000846001600160a01b0316630a48d5a9878d6040518363ffffffff1660e01b815260040180836001600160a01b031681526020018281526020019250505060206040518083038186803b15801561528657600080fd5b505afa15801561529a573d6000803e3d6000fd5b505050506040513d60208110156152b057600080fd5b5051905060006152c08483614cbb565b905060006152d48561403a8861271061530c565b905060006152f58361403a600754612710018861530c90919063ffffffff16565b919091109f9e505050505050505050505050505050565b60008261531b57506000612731565b8282028284828161532857fe5b04146138bd5760405162461bcd60e51b8152600401808060200182810382526021815260200180615b216021913960400191505060405180910390fd5b60006138bd83836040518060400160405280601a815260200179536166654d6174683a206469766973696f6e206279207a65726f60301b81525061553d565b6008546001600160a01b0316806153bb5750613cca565b600080826001600160a01b031663534ef883876040518263ffffffff1660e01b815260040180826001600160a01b03168152602001915050604080518083038186803b15801561540a57600080fd5b505afa15801561541e573d6000803e3d6000fd5b505050506040513d604081101561543457600080fd5b50805160209182015160035460408051630d11c1bd60e41b815290519396509194506000936001600160a01b039091169263d11c1bd0926004808201939291829003018186803b15801561548757600080fd5b505afa15801561549b573d6000803e3d6000fd5b505050506040513d60208110156154b157600080fd5b505160408051633c32f30d60e01b81526001600160a01b03898116600483015291519293507fc2414023ce7002ee98557d1e7be21e5559073336f2217ee5f9b2e50fd85f71ee928a92899290861691633c32f30d91602480820192602092909190829003018186803b158015614ea257600080fd5b606061553584846000856155a2565b949350505050565b6000818361558c5760405162461bcd60e51b81526020600482018181528351602484015283519092839260449091019190850190808383600083156150ec5781810151838201526020016150d4565b50600083858161559857fe5b0495945050505050565b6060824710156155e35760405162461bcd60e51b8152600401808060200182810382526026815260200180615a7c6026913960400191505060405180910390fd5b6155ec856156fe565b61563d576040805162461bcd60e51b815260206004820152601d60248201527f416464726573733a2063616c6c20746f206e6f6e2d636f6e7472616374000000604482015290519081900360640190fd5b60006060866001600160a01b031685876040518082805190602001908083835b6020831061567c5780518252601f19909201916020918201910161565d565b6001836020036101000a03801982511681845116808217855250505050505090500191505060006040518083038185875af1925050503d80600081146156de576040519150601f19603f3d011682016040523d82523d6000602084013e6156e3565b606091505b50915091506156f3828286615704565b979650505050505050565b3b151590565b606083156157135750816138bd565b8251156157235782518084602001fd5b60405162461bcd60e51b81526020600482018181528451602484015284518593919283926044019190850190808383600083156150ec5781810151838201526020016150d4565b604051806101a0016040528060006001600160a01b031681526020016060815260200160006001600160a01b03168152602001600081526020016000815260200160001515815260200160006001600160a01b0316815260200160008152602001600081526020016000815260200160008152602001600081526020016000151581525090565b50805460008255906000526020600020908101906146b191906158eb565b60405180610180016040528060006001600160a01b031681526020016060815260200160006001600160a01b03168152602001600081526020016000815260200160008152602001600015158152602001600081526020016000815260200160008152602001600081526020016000151581525090565b8280548282559060005260206000209081019282156158db579160200282015b828111156158db57825182546001600160a01b0319166001600160a01b039091161782556020909201916001909101906158a6565b506158e7929150615900565b5090565b5b808211156158e757600081556001016158ec565b5b808211156158e75780546001600160a01b031916815560010161590156fe42617365506f736974696f6e4d616e616765723a206d617820676c6f62616c206c6f6e6773206578636565646564506f736974696f6e526f757465723a20696e76616c696420657865637574696f6e4665655265656e7472616e637947756172643a207265656e7472616e742063616c6c00506f736974696f6e526f757465723a20696e76616c6964206d73672e76616c7565476f7665726e61626c653a20666f7262696464656e000000000000000000000042617365506f736974696f6e4d616e616765723a20696e73756666696369656e7420616d6f756e744f7574506f736974696f6e526f757465723a20696e76616c6964205f70617468206c656e677468416464726573733a20756e61626c6520746f2073656e642076616c75652c20726563697069656e74206d61792068617665207265766572746564506f736974696f6e526f757465723a20696e76616c6964205f70617468000000416464726573733a20696e73756666696369656e742062616c616e636520666f722063616c6c42617365506f736974696f6e4d616e616765723a206d61726b207072696365206c6f776572207468616e206c696d697442617365506f736974696f6e4d616e616765723a20666f7262696464656e000042617365506f736974696f6e4d616e616765723a206d617820676c6f62616c2073686f727473206578636565646564536166654d6174683a206d756c7469706c69636174696f6e206f766572666c6f7742617365506f736974696f6e4d616e616765723a206d61726b20707269636520686967686572207468616e206c696d6974506f736974696f6e526f757465723a206d696e2064656c6179206e6f74207965742070617373656442617365506f736974696f6e4d616e616765723a20696e76616c6964205f706174682e6c656e677468506f736974696f6e526f757465723a20666f7262696464656e0000000000000042617365506f736974696f6e4d616e616765723a20696e76616c69642073656e6465725361666545524332303a204552433230206f7065726174696f6e20646964206e6f742073756363656564506f736974696f6e526f757465723a2072657175657374206861732065787069726564a26469706673582212201f9b8099884af5c68e89a73105da7f3e1c655cb9be798819ef75d456948c1bc364736f6c634300060c0033",
  "linkReferences": {},
  "deployedLinkReferences": {}
}