{
  "_format": "hh-sol-artifact-1",
  "contractName": "SwapRouter",
  "sourceName": "contracts/core/SwapRouter.sol",
  "abi": [
    {
      "inputs": [
        {
          "internalType": "address",
          "name": "_vault",
          "type": "address"
        },
        {
          "internalType": "address",
          "name": "_router",
          "type": "address"
        },
        {
          "internalType": "address",
          "name": "_weth",
          "type": "address"
        },
        {
          "internalType": "uint256",
          "name": "_minExecutionFee",
          "type": "uint256"
        }
      ],
      "stateMutability": "nonpayable",
      "type": "constructor"
    },
    {
      "anonymous": false,
      "inputs": [
        {
          "indexed": true,
          "internalType": "address",
          "name": "account",
          "type": "address"
        },
        {
          "indexed": false,
          "internalType": "address[]",
          "name": "path",
          "type": "address[]"
        },
        {
          "indexed": false,
          "internalType": "uint256",
          "name": "amountIn",
          "type": "uint256"
        },
        {
          "indexed": false,
          "internalType": "uint256",
          "name": "minOut",
          "type": "uint256"
        },
        {
          "indexed": false,
          "internalType": "address",
          "name": "receiver",
          "type": "address"
        },
        {
          "indexed": false,
          "internalType": "uint256",
          "name": "acceptableRatio",
          "type": "uint256"
        },
        {
          "indexed": false,
          "internalType": "uint256",
          "name": "executionFee",
          "type": "uint256"
        },
        {
          "indexed": false,
          "internalType": "uint256",
          "name": "blockGap",
          "type": "uint256"
        },
        {
          "indexed": false,
          "internalType": "uint256",
          "name": "timeGap",
          "type": "uint256"
        }
      ],
      "name": "CancelSwap",
      "type": "event"
    },
    {
      "anonymous": false,
      "inputs": [
        {
          "indexed": true,
          "internalType": "address",
          "name": "account",
          "type": "address"
        },
        {
          "indexed": false,
          "internalType": "address[]",
          "name": "path",
          "type": "address[]"
        },
        {
          "indexed": false,
          "internalType": "uint256",
          "name": "amountIn",
          "type": "uint256"
        },
        {
          "indexed": false,
          "internalType": "uint256",
          "name": "minOut",
          "type": "uint256"
        },
        {
          "indexed": false,
          "internalType": "address",
          "name": "receiver",
          "type": "address"
        },
        {
          "indexed": false,
          "internalType": "uint256",
          "name": "acceptableRatio",
          "type": "uint256"
        },
        {
          "indexed": false,
          "internalType": "uint256",
          "name": "executionFee",
          "type": "uint256"
        },
        {
          "indexed": false,
          "internalType": "uint256",
          "name": "index",
          "type": "uint256"
        },
        {
          "indexed": false,
          "internalType": "uint256",
          "name": "blockNumber",
          "type": "uint256"
        },
        {
          "indexed": false,
          "internalType": "uint256",
          "name": "blockTime",
          "type": "uint256"
        }
      ],
      "name": "CreateSwap",
      "type": "event"
    },
    {
      "anonymous": false,
      "inputs": [
        {
          "indexed": true,
          "internalType": "address",
          "name": "account",
          "type": "address"
        },
        {
          "indexed": false,
          "internalType": "address[]",
          "name": "path",
          "type": "address[]"
        },
        {
          "indexed": false,
          "internalType": "uint256",
          "name": "amountIn",
          "type": "uint256"
        },
        {
          "indexed": false,
          "internalType": "uint256",
          "name": "amountOut",
          "type": "uint256"
        },
        {
          "indexed": false,
          "internalType": "uint256",
          "name": "minOut",
          "type": "uint256"
        },
        {
          "indexed": false,
          "internalType": "address",
          "name": "receiver",
          "type": "address"
        },
        {
          "indexed": false,
          "internalType": "uint256",
          "name": "acceptableRatio",
          "type": "uint256"
        },
        {
          "indexed": false,
          "internalType": "uint256",
          "name": "executionFee",
          "type": "uint256"
        },
        {
          "indexed": false,
          "internalType": "uint256",
          "name": "blockGap",
          "type": "uint256"
        },
        {
          "indexed": false,
          "internalType": "uint256",
          "name": "timeGap",
          "type": "uint256"
        }
      ],
      "name": "ExecuteSwap",
      "type": "event"
    },
    {
      "anonymous": false,
      "inputs": [
        {
          "indexed": false,
          "internalType": "address",
          "name": "admin",
          "type": "address"
        }
      ],
      "name": "SetAdmin",
      "type": "event"
    },
    {
      "anonymous": false,
      "inputs": [
        {
          "indexed": false,
          "internalType": "uint256",
          "name": "minBlockDelayKeeper",
          "type": "uint256"
        },
        {
          "indexed": false,
          "internalType": "uint256",
          "name": "minTimeDelayPublic",
          "type": "uint256"
        },
        {
          "indexed": false,
          "internalType": "uint256",
          "name": "maxTimeDelay",
          "type": "uint256"
        }
      ],
      "name": "SetDelayValues",
      "type": "event"
    },
    {
      "anonymous": false,
      "inputs": [
        {
          "indexed": false,
          "internalType": "uint256",
          "name": "minExecutionFee",
          "type": "uint256"
        }
      ],
      "name": "SetMinExecutionFee",
      "type": "event"
    },
    {
      "anonymous": false,
      "inputs": [
        {
          "indexed": true,
          "internalType": "address",
          "name": "account",
          "type": "address"
        },
        {
          "indexed": false,
          "internalType": "bool",
          "name": "isActive",
          "type": "bool"
        }
      ],
      "name": "SetRequestKeeper",
      "type": "event"
    },
    {
      "anonymous": false,
      "inputs": [
        {
          "indexed": false,
          "internalType": "uint256",
          "name": "swapRequestKeysStart",
          "type": "uint256"
        }
      ],
      "name": "SetRequestKeysStartValue",
      "type": "event"
    },
    {
      "inputs": [],
      "name": "PRICE_PRECISION",
      "outputs": [
        {
          "internalType": "uint256",
          "name": "",
          "type": "uint256"
        }
      ],
      "stateMutability": "view",
      "type": "function"
    },
    {
      "inputs": [],
      "name": "admin",
      "outputs": [
        {
          "internalType": "address",
          "name": "",
          "type": "address"
        }
      ],
      "stateMutability": "view",
      "type": "function"
    },
    {
      "inputs": [
        {
          "internalType": "address",
          "name": "_token",
          "type": "address"
        },
        {
          "internalType": "address",
          "name": "_spender",
          "type": "address"
        },
        {
          "internalType": "uint256",
          "name": "_amount",
          "type": "uint256"
        }
      ],
      "name": "approve",
      "outputs": [],
      "stateMutability": "nonpayable",
      "type": "function"
    },
    {
      "inputs": [
        {
          "internalType": "bytes32",
          "name": "_key",
          "type": "bytes32"
        },
        {
          "internalType": "address payable",
          "name": "_executionFeeReceiver",
          "type": "address"
        }
      ],
      "name": "cancelSwap",
      "outputs": [
        {
          "internalType": "bool",
          "name": "",
          "type": "bool"
        }
      ],
      "stateMutability": "nonpayable",
      "type": "function"
    },
    {
      "inputs": [
        {
          "internalType": "address[]",
          "name": "_path",
          "type": "address[]"
        },
        {
          "internalType": "uint256",
          "name": "_amountIn",
          "type": "uint256"
        },
        {
          "internalType": "uint256",
          "name": "_minOut",
          "type": "uint256"
        },
        {
          "internalType": "address",
          "name": "_receiver",
          "type": "address"
        },
        {
          "internalType": "uint256",
          "name": "_acceptableRatio",
          "type": "uint256"
        },
        {
          "internalType": "uint256",
          "name": "_executionFee",
          "type": "uint256"
        },
        {
          "internalType": "bool",
          "name": "_isETHOut",
          "type": "bool"
        }
      ],
      "name": "createSwap",
      "outputs": [],
      "stateMutability": "payable",
      "type": "function"
    },
    {
      "inputs": [
        {
          "internalType": "address[]",
          "name": "_path",
          "type": "address[]"
        },
        {
          "internalType": "uint256",
          "name": "_minOut",
          "type": "uint256"
        },
        {
          "internalType": "address",
          "name": "_receiver",
          "type": "address"
        },
        {
          "internalType": "uint256",
          "name": "_acceptableRatio",
          "type": "uint256"
        },
        {
          "internalType": "uint256",
          "name": "_executionFee",
          "type": "uint256"
        }
      ],
      "name": "createSwapETHToTokens",
      "outputs": [],
      "stateMutability": "payable",
      "type": "function"
    },
    {
      "inputs": [
        {
          "internalType": "bytes32",
          "name": "_key",
          "type": "bytes32"
        },
        {
          "internalType": "address payable",
          "name": "_executionFeeReceiver",
          "type": "address"
        }
      ],
      "name": "executeSwap",
      "outputs": [
        {
          "internalType": "bool",
          "name": "",
          "type": "bool"
        }
      ],
      "stateMutability": "nonpayable",
      "type": "function"
    },
    {
      "inputs": [
        {
          "internalType": "uint256",
          "name": "_endIndex",
          "type": "uint256"
        },
        {
          "internalType": "address payable",
          "name": "_executionFeeReceiver",
          "type": "address"
        }
      ],
      "name": "executeSwaps",
      "outputs": [],
      "stateMutability": "nonpayable",
      "type": "function"
    },
    {
      "inputs": [
        {
          "internalType": "address",
          "name": "_account",
          "type": "address"
        },
        {
          "internalType": "uint256",
          "name": "_index",
          "type": "uint256"
        }
      ],
      "name": "getRequestKey",
      "outputs": [
        {
          "internalType": "bytes32",
          "name": "",
          "type": "bytes32"
        }
      ],
      "stateMutability": "pure",
      "type": "function"
    },
    {
      "inputs": [],
      "name": "getRequestQueueLengths",
      "outputs": [
        {
          "internalType": "uint256",
          "name": "",
          "type": "uint256"
        },
        {
          "internalType": "uint256",
          "name": "",
          "type": "uint256"
        }
      ],
      "stateMutability": "view",
      "type": "function"
    },
    {
      "inputs": [
        {
          "internalType": "bytes32",
          "name": "_key",
          "type": "bytes32"
        }
      ],
      "name": "getSwapRequestPath",
      "outputs": [
        {
          "internalType": "address[]",
          "name": "",
          "type": "address[]"
        }
      ],
      "stateMutability": "view",
      "type": "function"
    },
    {
      "inputs": [],
      "name": "gov",
      "outputs": [
        {
          "internalType": "address",
          "name": "",
          "type": "address"
        }
      ],
      "stateMutability": "view",
      "type": "function"
    },
    {
      "inputs": [
        {
          "internalType": "address",
          "name": "",
          "type": "address"
        }
      ],
      "name": "isRequestKeeper",
      "outputs": [
        {
          "internalType": "bool",
          "name": "",
          "type": "bool"
        }
      ],
      "stateMutability": "view",
      "type": "function"
    },
    {
      "inputs": [],
      "name": "maxTimeDelay",
      "outputs": [
        {
          "internalType": "uint256",
          "name": "",
          "type": "uint256"
        }
      ],
      "stateMutability": "view",
      "type": "function"
    },
    {
      "inputs": [],
      "name": "minBlockDelayKeeper",
      "outputs": [
        {
          "internalType": "uint256",
          "name": "",
          "type": "uint256"
        }
      ],
      "stateMutability": "view",
      "type": "function"
    },
    {
      "inputs": [],
      "name": "minExecutionFee",
      "outputs": [
        {
          "internalType": "uint256",
          "name": "",
          "type": "uint256"
        }
      ],
      "stateMutability": "view",
      "type": "function"
    },
    {
      "inputs": [],
      "name": "minTimeDelayPublic",
      "outputs": [
        {
          "internalType": "uint256",
          "name": "",
          "type": "uint256"
        }
      ],
      "stateMutability": "view",
      "type": "function"
    },
    {
      "inputs": [],
      "name": "router",
      "outputs": [
        {
          "internalType": "address",
          "name": "",
          "type": "address"
        }
      ],
      "stateMutability": "view",
      "type": "function"
    },
    {
      "inputs": [
        {
          "internalType": "address payable",
          "name": "_receiver",
          "type": "address"
        },
        {
          "internalType": "uint256",
          "name": "_amount",
          "type": "uint256"
        }
      ],
      "name": "sendValue",
      "outputs": [],
      "stateMutability": "nonpayable",
      "type": "function"
    },
    {
      "inputs": [
        {
          "internalType": "address",
          "name": "_admin",
          "type": "address"
        }
      ],
      "name": "setAdmin",
      "outputs": [],
      "stateMutability": "nonpayable",
      "type": "function"
    },
    {
      "inputs": [
        {
          "internalType": "uint256",
          "name": "_minBlockDelayKeeper",
          "type": "uint256"
        },
        {
          "internalType": "uint256",
          "name": "_minTimeDelayPublic",
          "type": "uint256"
        },
        {
          "internalType": "uint256",
          "name": "_maxTimeDelay",
          "type": "uint256"
        }
      ],
      "name": "setDelayValues",
      "outputs": [],
      "stateMutability": "nonpayable",
      "type": "function"
    },
    {
      "inputs": [
        {
          "internalType": "address",
          "name": "_gov",
          "type": "address"
        }
      ],
      "name": "setGov",
      "outputs": [],
      "stateMutability": "nonpayable",
      "type": "function"
    },
    {
      "inputs": [
        {
          "internalType": "uint256",
          "name": "_minExecutionFee",
          "type": "uint256"
        }
      ],
      "name": "setMinExecutionFee",
      "outputs": [],
      "stateMutability": "nonpayable",
      "type": "function"
    },
    {
      "inputs": [
        {
          "internalType": "address",
          "name": "_account",
          "type": "address"
        },
        {
          "internalType": "bool",
          "name": "_isActive",
          "type": "bool"
        }
      ],
      "name": "setRequestKeeper",
      "outputs": [],
      "stateMutability": "nonpayable",
      "type": "function"
    },
    {
      "inputs": [
        {
          "internalType": "uint256",
          "name": "_swapRequestKeysStart",
          "type": "uint256"
        }
      ],
      "name": "setRequestKeysStartValue",
      "outputs": [],
      "stateMutability": "nonpayable",
      "type": "function"
    },
    {
      "inputs": [
        {
          "internalType": "uint256",
          "name": "",
          "type": "uint256"
        }
      ],
      "name": "swapRequestKeys",
      "outputs": [
        {
          "internalType": "bytes32",
          "name": "",
          "type": "bytes32"
        }
      ],
      "stateMutability": "view",
      "type": "function"
    },
    {
      "inputs": [],
      "name": "swapRequestKeysStart",
      "outputs": [
        {
          "internalType": "uint256",
          "name": "",
          "type": "uint256"
        }
      ],
      "stateMutability": "view",
      "type": "function"
    },
    {
      "inputs": [
        {
          "internalType": "bytes32",
          "name": "",
          "type": "bytes32"
        }
      ],
      "name": "swapRequests",
      "outputs": [
        {
          "internalType": "address",
          "name": "account",
          "type": "address"
        },
        {
          "internalType": "uint256",
          "name": "amountIn",
          "type": "uint256"
        },
        {
          "internalType": "uint256",
          "name": "minOut",
          "type": "uint256"
        },
        {
          "internalType": "address",
          "name": "receiver",
          "type": "address"
        },
        {
          "internalType": "uint256",
          "name": "acceptableRatio",
          "type": "uint256"
        },
        {
          "internalType": "uint256",
          "name": "executionFee",
          "type": "uint256"
        },
        {
          "internalType": "uint256",
          "name": "blockNumber",
          "type": "uint256"
        },
        {
          "internalType": "uint256",
          "name": "blockTime",
          "type": "uint256"
        },
        {
          "internalType": "bool",
          "name": "isETHIn",
          "type": "bool"
        },
        {
          "internalType": "bool",
          "name": "isETHOut",
          "type": "bool"
        }
      ],
      "stateMutability": "view",
      "type": "function"
    },
    {
      "inputs": [
        {
          "internalType": "address",
          "name": "",
          "type": "address"
        }
      ],
      "name": "swapsIndex",
      "outputs": [
        {
          "internalType": "uint256",
          "name": "",
          "type": "uint256"
        }
      ],
      "stateMutability": "view",
      "type": "function"
    },
    {
      "inputs": [],
      "name": "vault",
      "outputs": [
        {
          "internalType": "address",
          "name": "",
          "type": "address"
        }
      ],
      "stateMutability": "view",
      "type": "function"
    },
    {
      "inputs": [],
      "name": "weth",
      "outputs": [
        {
          "internalType": "address",
          "name": "",
          "type": "address"
        }
      ],
      "stateMutability": "view",
      "type": "function"
    },
    {
      "stateMutability": "payable",
      "type": "receive"
    }
  ],
  "bytecode": "0x608060405234801561001057600080fd5b5060405161317b38038061317b8339818101604052608081101561003357600080fd5b50805160208201516040830151606090930151600160008181558154336001600160a01b031991821681179093556003805482166001600160a01b03978816179055600480548216958716959095179094556005805485169590961694909417909455600655600280549091169092179091556130c59081906100b690396000f3fe60806040526004361061016c5760003560e01c806306dbbac9146101c15780631206252d146101fc57806312d43a511461023557806324a084df146102665780633a2a80c71461029f5780633e029427146102c65780633fc8cef3146103525780634067b13214610367578063572d72521461039d578063582c1e10146103ea5780635841fcaa146104145780635c05d703146104295780635ddfc9bb146104f257806362f8a3fe1461050757806363ae210314610540578063704b6c021461055557806376d1308f14610588578063816cdade146105bb57806395082d2514610635578063a42b13b41461064a578063b75b8d1e14610705578063cb0269c91461072f578063cfad57a214610744578063e1f21c6714610777578063e7775534146107ba578063ea076934146107ed578063f2cea6a514610826578063f851a44014610854578063f887ea4014610869578063fbfa77cf1461087e578063fc2cee6214610893576101bc565b366101bc576005546001600160a01b031633146101ba5760405162461bcd60e51b8152600401808060200182810382526021815260200180612f966021913960400191505060405180910390fd5b005b600080fd5b3480156101cd57600080fd5b506101ba600480360360408110156101e457600080fd5b506001600160a01b03813516906020013515156108bd565b34801561020857600080fd5b506101ba6004803603604081101561021f57600080fd5b50803590602001356001600160a01b031661096a565b34801561024157600080fd5b5061024a610b4b565b604080516001600160a01b039092168252519081900360200190f35b34801561027257600080fd5b506101ba6004803603604081101561028957600080fd5b506001600160a01b038135169060200135610b5a565b3480156102ab57600080fd5b506102b4610bba565b60408051918252519081900360200190f35b3480156102d257600080fd5b506102f0600480360360208110156102e957600080fd5b5035610bc0565b604080516001600160a01b039b8c168152602081019a909a5289810198909852959098166060880152608087019390935260a086019190915260c085015260e08401529215156101008301529115156101208201529051908190036101400190f35b34801561035e57600080fd5b5061024a610c23565b34801561037357600080fd5b506101ba6004803603606081101561038a57600080fd5b5080359060208101359060400135610c32565b3480156103a957600080fd5b506103d6600480360360408110156103c057600080fd5b50803590602001356001600160a01b0316610cd3565b604080519115158252519081900360200190f35b3480156103f657600080fd5b506101ba6004803603602081101561040d57600080fd5b503561105a565b34801561042057600080fd5b506102b46110e2565b6101ba600480360360e081101561043f57600080fd5b810190602081018135600160201b81111561045957600080fd5b82018360208201111561046b57600080fd5b803590602001918460208302840111600160201b8311171561048c57600080fd5b919080806020026020016040519081016040528093929190818152602001838360200280828437600092019190915250929550508235935050506020810135906001600160a01b036040820135169060608101359060808101359060a0013515156110e8565b3480156104fe57600080fd5b506102b461135b565b34801561051357600080fd5b506102b46004803603604081101561052a57600080fd5b506001600160a01b038135169060200135611361565b34801561054c57600080fd5b506102b46113a7565b34801561056157600080fd5b506101ba6004803603602081101561057857600080fd5b50356001600160a01b03166113ad565b34801561059457600080fd5b506102b4600480360360208110156105ab57600080fd5b50356001600160a01b031661144e565b3480156105c757600080fd5b506105e5600480360360208110156105de57600080fd5b5035611460565b60408051602080825283518183015283519192839290830191858101910280838360005b83811015610621578181015183820152602001610609565b505050509050019250505060405180910390f35b34801561064157600080fd5b506102b4611572565b6101ba600480360360a081101561066057600080fd5b810190602081018135600160201b81111561067a57600080fd5b82018360208201111561068c57600080fd5b803590602001918460208302840111600160201b831117156106ad57600080fd5b9190808060200260200160405190810160405280939291908181526020018383602002808284376000920191909152509295505082359350506001600160a01b03602083013516916040810135915060600135611582565b34801561071157600080fd5b506102b46004803603602081101561072857600080fd5b503561174e565b34801561073b57600080fd5b506102b461176c565b34801561075057600080fd5b506101ba6004803603602081101561076757600080fd5b50356001600160a01b0316611772565b34801561078357600080fd5b506101ba6004803603606081101561079a57600080fd5b506001600160a01b038135811691602081013590911690604001356117e1565b3480156107c657600080fd5b506103d6600480360360208110156107dd57600080fd5b50356001600160a01b03166118b6565b3480156107f957600080fd5b506103d66004803603604081101561081057600080fd5b50803590602001356001600160a01b03166118cb565b34801561083257600080fd5b5061083b611e15565b6040805192835260208301919091528051918290030190f35b34801561086057600080fd5b5061024a611e1f565b34801561087557600080fd5b5061024a611e2e565b34801561088a57600080fd5b5061024a611e3d565b34801561089f57600080fd5b506101ba600480360360208110156108b657600080fd5b5035611e4c565b6002546001600160a01b0316331461090a576040805162461bcd60e51b815260206004820152601c6024820152600080516020613070833981519152604482015290519081900360640190fd5b6001600160a01b0382166000818152600a6020908152604091829020805460ff1916851515908117909155825190815291517f38c87837ee352fb6ae2968d4ef6bb04291853609f4f7bde55227a6cfd31f45ec9281900390910190a25050565b336000908152600a602052604090205460ff166109bc576040805162461bcd60e51b815260206004820152601c6024820152600080516020613070833981519152604482015290519081900360640190fd5b600c54600b548082106109d0575050610b47565b808411156109dc578093505b83821015610b42576000600b83815481106109f357fe5b90600052602060002001549050306001600160a01b031663ea07693482866040518363ffffffff1660e01b815260040180838152602001826001600160a01b0316815260200192505050602060405180830381600087803b158015610a5757600080fd5b505af1925050508015610a7c57506040513d6020811015610a7757600080fd5b505160015b610b105760408051632b96b92960e11b8152600481018390526001600160a01b03861660248201529051309163572d72529160448083019260209291908290030181600087803b158015610acf57600080fd5b505af1925050508015610af457506040513d6020811015610aef57600080fd5b505160015b610afd57610b0b565b80610b09575050610b42565b505b610b1e565b80610b1c575050610b42565b505b600b8381548110610b2b57fe5b6000918252602082200155506001909101906109dc565b50600c555b5050565b6001546001600160a01b031681565b6001546001600160a01b03163314610ba7576040805162461bcd60e51b81526020600482015260156024820152600080516020612ecb833981519152604482015290519081900360640190fd5b610b476001600160a01b03831682611ed4565b60085481565b600e602052600090815260409020805460028201546003830154600484015460058501546006860154600787015460088801546009909801546001600160a01b039788169896979596959094169492939192909160ff808216916101009004168a565b6005546001600160a01b031681565b6002546001600160a01b03163314610c7f576040805162461bcd60e51b815260206004820152601c6024820152600080516020613070833981519152604482015290519081900360640190fd5b600783905560088290556009819055604080518481526020810184905280820183905290517fb98e759701eaca2e60c25e91109003c1c7442ef731b5d569037063005da8254d9181900360600190a1505050565b600060026000541415610d1b576040805162461bcd60e51b815260206004820152601f6024820152600080516020612e8b833981519152604482015290519081900360640190fd5b6002600055610d28612d3e565b6000848152600e602090815260409182902082516101608101845281546001600160a01b0316815260018201805485518186028101860190965280865291949293858101939290830182828015610da857602002820191906000526020600020905b81546001600160a01b03168152600190910190602001808311610d8a575b5050509183525050600282015460208201526003820154604082015260048201546001600160a01b03908116606083015260058301546080830152600683015460a0830152600783015460c0830152600883015460e083015260099092015460ff80821615156101008085019190915290910416151561012090910152815191925016610e3957600191505061104f565b6000610e538260e001518361010001518460000151611fbe565b905080610e655760009250505061104f565b6000858152600e6020526040812080546001600160a01b031916815590610e8f6001830182612dae565b50600060028201819055600382018190556004820180546001600160a01b03191690556005820181905560068201819055600782018190556008820155600901805461ffff1916905561012082015115610efa57610ef5826040015183600001516120b1565b610f38565b610f38826000015183604001518460200151600081518110610f1857fe5b60200260200101516001600160a01b031661214c9092919063ffffffff16565b610f468260c001518561219e565b81600001516001600160a01b03167f9a021ac4a4e5853abfdde663bf3daaeb4dc76e89e4897b3f36f809c069fa7fba83602001518460400151856060015186608001518760a001518860c00151610faa8a60e001514361221790919063ffffffff16565b6101008b0151610fbb904290612217565b6040518080602001898152602001888152602001876001600160a01b0316815260200186815260200185815260200184815260200183815260200182810382528a818151815260200191508051906020019060200280838360005b8381101561102e578181015183820152602001611016565b50505050905001995050505050505050505060405180910390a26001925050505b600160005592915050565b6002546001600160a01b031633146110a7576040805162461bcd60e51b815260206004820152601c6024820152600080516020613070833981519152604482015290519081900360640190fd5b600c8190556040805182815290517f393fd4607d7e7d3284ad0ea68ec4771f89d85a6ae64747eca9b70f59c97fddf69181900360200190a150565b60075481565b60065482101561112d576040805162461bcd60e51b81526020600482018190526024820152600080516020612eab833981519152604482015290519081900360640190fd5b81341461116f576040805162461bcd60e51b815260206004820152601d6024820152600080516020612f16833981519152604482015290519081900360640190fd5b86516002146111b3576040805162461bcd60e51b81526020600482018190526024820152600080516020613026833981519152604482015290519081900360640190fd5b60008611611207576040805162461bcd60e51b815260206004820152601c60248201527b29bbb0b82937baba32b91d1034b73b30b634b21030b6b7bab73a24b760211b604482015290519081900360640190fd5b801561128d5760055487516001600160a01b03909116908890600019810190811061122e57fe5b60200260200101516001600160a01b03161461128d576040805162461bcd60e51b81526020600482015260196024820152780a6eec2e0a4deeae8cae47440d2dcecc2d8d2c840bee0c2e8d603b1b604482015290519081900360640190fd5b611295612259565b60045487516001600160a01b0390911690631b8278789089906000906112b757fe5b602002602001015133308a6040518563ffffffff1660e01b815260040180856001600160a01b03168152602001846001600160a01b03168152602001836001600160a01b03168152602001828152602001945050505050600060405180830381600087803b15801561132857600080fd5b505af115801561133c573d6000803e3d6000fd5b50505050611352338888888888886000896122c5565b50505050505050565b600c5481565b6000828260405160200180836001600160a01b031660601b8152601401828152602001925050506040516020818303038152906040528051906020012090505b92915050565b60065481565b6001546001600160a01b031633146113fa576040805162461bcd60e51b81526020600482015260156024820152600080516020612ecb833981519152604482015290519081900360640190fd5b600280546001600160a01b0383166001600160a01b0319909116811790915560408051918252517f5a272403b402d892977df56625f4164ccaf70ca3863991c43ecfe76a6905b0a19181900360200190a150565b600d6020526000908152604090205481565b606061146a612d3e565b6000838152600e602090815260409182902082516101608101845281546001600160a01b03168152600182018054855181860281018601909652808652919492938581019392908301828280156114ea57602002820191906000526020600020905b81546001600160a01b031681526001909101906020018083116114cc575b505050918352505060028201546020808301919091526003830154604083015260048301546001600160a01b0316606083015260058301546080830152600683015460a0830152600783015460c0830152600883015460e083015260099092015460ff8082161515610100808501919091529091041615156101209091015201519392505050565b68327cb2734119d3b7a9601e1b81565b6006548110156115c7576040805162461bcd60e51b81526020600482018190526024820152600080516020612eab833981519152604482015290519081900360640190fd5b8034101561160a576040805162461bcd60e51b815260206004820152601d6024820152600080516020612f16833981519152604482015290519081900360640190fd5b845160021461164e576040805162461bcd60e51b81526020600482018190526024820152600080516020613026833981519152604482015290519081900360640190fd5b60055485516001600160a01b0390911690869060009061166a57fe5b60200260200101516001600160a01b0316146116c9576040805162461bcd60e51b81526020600482015260196024820152780a6eec2e0a4deeae8cae47440d2dcecc2d8d2c840bee0c2e8d603b1b604482015290519081900360640190fd5b6116d1612259565b60006116dd3483612217565b905060008111611733576040805162461bcd60e51b815260206004820152601c60248201527b29bbb0b82937baba32b91d1034b73b30b634b21030b6b7bab73a24b760211b604482015290519081900360640190fd5b61174633878388888888600160006122c5565b505050505050565b600b818154811061175b57fe5b600091825260209091200154905081565b60095481565b6001546001600160a01b031633146117bf576040805162461bcd60e51b81526020600482015260156024820152600080516020612ecb833981519152604482015290519081900360640190fd5b600180546001600160a01b0319166001600160a01b0392909216919091179055565b6001546001600160a01b0316331461182e576040805162461bcd60e51b81526020600482015260156024820152600080516020612ecb833981519152604482015290519081900360640190fd5b826001600160a01b031663095ea7b383836040518363ffffffff1660e01b815260040180836001600160a01b0316815260200182815260200192505050602060405180830381600087803b15801561188557600080fd5b505af1158015611899573d6000803e3d6000fd5b505050506040513d60208110156118af57600080fd5b5050505050565b600a6020526000908152604090205460ff1681565b600060026000541415611913576040805162461bcd60e51b815260206004820152601f6024820152600080516020612e8b833981519152604482015290519081900360640190fd5b6002600055611920612d3e565b6000848152600e602090815260409182902082516101608101845281546001600160a01b03168152600182018054855181860281018601909652808652919492938581019392908301828280156119a057602002820191906000526020600020905b81546001600160a01b03168152600190910190602001808311611982575b5050509183525050600282015460208201526003820154604082015260048201546001600160a01b03908116606083015260058301546080830152600683015460a0830152600783015460c0830152600883015460e083015260099092015460ff80821615156101008085019190915290910416151561012090910152815191925016611a3157600191505061104f565b6000611a4b8260e001518361010001518460000151612579565b905080611a5d5760009250505061104f565b60035460208301518051600092611bb2926001600160a01b039091169163e124e6d291906001908110611a8c57fe5b60200260200101516040518263ffffffff1660e01b815260040180826001600160a01b0316815260200191505060206040518083038186803b158015611ad157600080fd5b505afa158015611ae5573d6000803e3d6000fd5b505050506040513d6020811015611afb57600080fd5b505160035460208601518051611bac9268327cb2734119d3b7a9601e1b926001600160a01b03909116916381a612d69190600090611b3557fe5b60200260200101516040518263ffffffff1660e01b815260040180826001600160a01b0316815260200191505060206040518083038186803b158015611b7a57600080fd5b505afa158015611b8e573d6000803e3d6000fd5b505050506040513d6020811015611ba457600080fd5b505190612608565b90612661565b90508260a00151811015611bf75760405162461bcd60e51b8152600401808060200182810382526028815260200180612ffe6028913960400191505060405180910390fd5b6000868152600e6020526040812080546001600160a01b031916815590611c216001830182612dae565b5060006002820181905560038083018290556004830180546001600160a01b0319169055600583018290556006830182905560078301829055600883018290556009909201805461ffff191690559054604085015160208601518051611c94946001600160a01b039094169390610f1857fe5b6000611ca984602001518560600151306126a0565b905083610140015115611cc957611cc48185608001516120b1565b611cea565b611cea846080015182866020015160018860200151510381518110610f1857fe5b611cf88460c001518761219e565b83600001516001600160a01b03167fa17359d2c3dad2ce9e367baecbe23f6edac661480739f25a46a74a65af9c78338560200151866040015184886060015189608001518a60a001518b60c00151611d5d8d60e001514361221790919063ffffffff16565b6101008e0151611d6e904290612217565b60405180806020018a8152602001898152602001888152602001876001600160a01b0316815260200186815260200185815260200184815260200183815260200182810382528b818151815260200191508051906020019060200280838360005b83811015611de7578181015183820152602001611dcf565b505050509050019a505050505050505050505060405180910390a26001945050505050600160005592915050565b600c54600b549091565b6002546001600160a01b031681565b6004546001600160a01b031681565b6003546001600160a01b031681565b6002546001600160a01b03163314611e99576040805162461bcd60e51b815260206004820152601c6024820152600080516020613070833981519152604482015290519081900360640190fd5b60068190556040805182815290517f52a8358457e20bbb36e4086b83fb0749599f1893fe4c35a876c46dc4886d12db9181900360200190a150565b80471015611f29576040805162461bcd60e51b815260206004820152601d60248201527f416464726573733a20696e73756666696369656e742062616c616e6365000000604482015290519081900360640190fd5b6040516000906001600160a01b0384169083908381818185875af1925050503d8060008114611f74576040519150601f19603f3d011682016040523d82523d6000602084013e611f79565b606091505b5050905080611fb95760405162461bcd60e51b815260040180806020018281038252603a815260200180612f36603a913960400191505060405180910390fd5b505050565b60008033301480611fde5750336000908152600a602052604090205460ff165b905080156120065743611ffc6007548761273490919063ffffffff16565b11159150506120aa565b336001600160a01b03841614612051576040805162461bcd60e51b815260206004820152601c6024820152600080516020613070833981519152604482015290519081900360640190fd5b426120676008548661273490919063ffffffff16565b11156120a45760405162461bcd60e51b815260040180806020018281038252602b815260200180612eeb602b913960400191505060405180910390fd5b60019150505b9392505050565b60055460408051632e1a7d4d60e01b81526004810185905290516001600160a01b0390921691632e1a7d4d9160248082019260009290919082900301818387803b1580156120fe57600080fd5b505af1158015612112573d6000803e3d6000fd5b50506040516001600160a01b038416925084156108fc02915084906000818181858888f19350505050158015611fb9573d6000803e3d6000fd5b604080516001600160a01b038416602482015260448082018490528251808303909101815260649091019091526020810180516001600160e01b031663a9059cbb60e01b179052611fb990849061278c565b60055460408051632e1a7d4d60e01b81526004810185905290516001600160a01b0390921691632e1a7d4d9160248082019260009290919082900301818387803b1580156121eb57600080fd5b505af11580156121ff573d6000803e3d6000fd5b50610b47925050506001600160a01b03821683611ed4565b60006120aa83836040518060400160405280601e81526020017f536166654d6174683a207375627472616374696f6e206f766572666c6f77000081525061283d565b34156122c357600560009054906101000a90046001600160a01b03166001600160a01b031663d0e30db0346040518263ffffffff1660e01b81526004016000604051808303818588803b1580156122af57600080fd5b505af11580156118af573d6000803e3d6000fd5b565b6001600160a01b0389166000908152600d60205260408120546122e9906001612734565b6001600160a01b038b166000908152600d60205260409020819055905061230e612d3e565b6040518061016001604052808c6001600160a01b031681526020018b81526020018a8152602001898152602001886001600160a01b0316815260200187815260200186815260200143815260200142815260200185151581526020018415158152509050600061237e8c84611361565b6000818152600e60209081526040909120845181546001600160a01b0319166001600160a01b03909116178155848201518051939450859391926123ca92600185019290910190612dcf565b50604082015181600201556060820151816003015560808201518160040160006101000a8154816001600160a01b0302191690836001600160a01b0316021790555060a0820151816005015560c0820151816006015560e0820151816007015561010082015181600801556101208201518160090160006101000a81548160ff0219169083151502179055506101408201518160090160016101000a81548160ff021916908315150217905550905050600b8190806001815401808255809150506001900390600052602060002001600090919091909150558b6001600160a01b03167f1153d45668cf48981f714d8ec9214c04d1d593fbd775e638d5a2f499b415c5ab8c8c8c8c8c8c8a434260405180806020018a8152602001898152602001886001600160a01b0316815260200187815260200186815260200185815260200184815260200183815260200182810382528b818151815260200191508051906020019060200280838360005b83811015612550578181015183820152602001612538565b505050509050019a505050505050505050505060405180910390a2505050505050505050505050565b6000426125916009548561273490919063ffffffff16565b116125cd5760405162461bcd60e51b8152600401808060200182810382526026815260200180612fd86026913960400191505060405180910390fd5b600033301480611fde575050336000908152600a602052604090205460ff1680156120065743611ffc6007548761273490919063ffffffff16565b600082612617575060006113a1565b8282028284828161262457fe5b04146120aa5760405162461bcd60e51b8152600401808060200182810382526021815260200180612fb76021913960400191505060405180910390fd5b60006120aa83836040518060400160405280601a815260200179536166654d6174683a206469766973696f6e206279207a65726f60301b8152506128d4565b60008351600214156126e7576126e0846000815181106126bc57fe5b6020026020010151856001815181106126d157fe5b60200260200101518585612939565b90506120aa565b6040805162461bcd60e51b815260206004820181905260248201527f53776170526f757465723a20696e76616c6964205f706174682e6c656e677468604482015290519081900360640190fd5b6000828201838110156120aa576040805162461bcd60e51b815260206004820152601b60248201527a536166654d6174683a206164646974696f6e206f766572666c6f7760281b604482015290519081900360640190fd5b60606127e1826040518060400160405280602081526020017f5361666545524332303a206c6f772d6c6576656c2063616c6c206661696c6564815250856001600160a01b0316612b5f9092919063ffffffff16565b805190915015611fb95780806020019051602081101561280057600080fd5b5051611fb95760405162461bcd60e51b815260040180806020018281038252602a815260200180613046602a913960400191505060405180910390fd5b600081848411156128cc5760405162461bcd60e51b81526004018080602001828103825283818151815260200191508051906020019080838360005b83811015612891578181015183820152602001612879565b50505050905090810190601f1680156128be5780820380516001836020036101000a031916815260200191505b509250505060405180910390fd5b505050900390565b600081836129235760405162461bcd60e51b8152602060048201818152835160248401528351909283926044909101919085019080838360008315612891578181015183820152602001612879565b50600083858161292f57fe5b0495945050505050565b600080600360009054906101000a90046001600160a01b03166001600160a01b03166312d43a516040518163ffffffff1660e01b815260040160206040518083038186803b15801561298a57600080fd5b505afa15801561299e573d6000803e3d6000fd5b505050506040513d60208110156129b457600080fd5b5051600354604080516371278dab60e01b81526001600160a01b0392831660048201529051929350908316916371278dab9160248082019260009290919082900301818387803b158015612a0757600080fd5b505af1158015612a1b573d6000803e3d6000fd5b505060035460408051634998b10960e11b81526001600160a01b038b811660048301528a81166024830152888116604483015291516000955091909216925063933162129160648082019260209290919082900301818787803b158015612a8157600080fd5b505af1158015612a95573d6000803e3d6000fd5b505050506040513d6020811015612aab57600080fd5b505160035460408051633b4fcd8360e21b81526001600160a01b03928316600482015290519293509084169163ed3f360c9160248082019260009290919082900301818387803b158015612afe57600080fd5b505af1158015612b12573d6000803e3d6000fd5b5050505084811015612b555760405162461bcd60e51b8152600401808060200182810382526022815260200180612e696022913960400191505060405180910390fd5b9695505050505050565b6060612b6e8484600085612b76565b949350505050565b606082471015612bb75760405162461bcd60e51b8152600401808060200182810382526026815260200180612f706026913960400191505060405180910390fd5b612bc085612cd2565b612c11576040805162461bcd60e51b815260206004820152601d60248201527f416464726573733a2063616c6c20746f206e6f6e2d636f6e7472616374000000604482015290519081900360640190fd5b60006060866001600160a01b031685876040518082805190602001908083835b60208310612c505780518252601f199092019160209182019101612c31565b6001836020036101000a03801982511681845116808217855250505050505090500191505060006040518083038185875af1925050503d8060008114612cb2576040519150601f19603f3d011682016040523d82523d6000602084013e612cb7565b606091505b5091509150612cc7828286612cd8565b979650505050505050565b3b151590565b60608315612ce75750816120aa565b825115612cf75782518084602001fd5b60405162461bcd60e51b8152602060048201818152845160248401528451859391928392604401919085019080838360008315612891578181015183820152602001612879565b60405180610160016040528060006001600160a01b0316815260200160608152602001600081526020016000815260200160006001600160a01b03168152602001600081526020016000815260200160008152602001600081526020016000151581526020016000151581525090565b5080546000825590600052602060002090810190612dcc9190612e34565b50565b828054828255906000526020600020908101928215612e24579160200282015b82811115612e2457825182546001600160a01b0319166001600160a01b03909116178255602090920191600190910190612def565b50612e30929150612e49565b5090565b5b80821115612e305760008155600101612e35565b5b80821115612e305780546001600160a01b0319168155600101612e4a56fe53776170526f757465723a20696e73756666696369656e7420616d6f756e744f75745265656e7472616e637947756172643a207265656e7472616e742063616c6c0053776170526f757465723a20696e76616c696420657865637574696f6e466565476f7665726e61626c653a20666f7262696464656e00000000000000000000004261736552657175657374526f757465723a206d696e2064656c6179206e6f74207965742070617373656453776170526f757465723a20696e76616c6964206d73672e76616c7565000000416464726573733a20756e61626c6520746f2073656e642076616c75652c20726563697069656e74206d61792068617665207265766572746564416464726573733a20696e73756666696369656e742062616c616e636520666f722063616c6c4261736552657175657374526f757465723a20696e76616c69642073656e646572536166654d6174683a206d756c7469706c69636174696f6e206f766572666c6f774261736552657175657374526f757465723a207265717565737420686173206578706972656453776170526f757465723a20707269636520726174696f206c6f776572207468616e206c696d697453776170526f757465723a20696e76616c6964205f70617468206c656e6774685361666545524332303a204552433230206f7065726174696f6e20646964206e6f7420737563636565644261736552657175657374526f757465723a20666f7262696464656e00000000a26469706673582212200b2c44596ddc0b7cdc6d3db3b5c9e3987ef38b137dc3d38bfcca965e2e8b768d64736f6c634300060c0033",
  "linkReferences": {},
  "deployedLinkReferences": {}
}