{
  "_format": "hh-sol-artifact-1",
  "contractName": "Vault",
  "sourceName": "contracts/core/Vault.sol",
  "abi": [
    {
      "inputs": [],
      "stateMutability": "nonpayable",
      "type": "constructor"
    },
    {
      "anonymous": false,
      "inputs": [
        {
          "indexed": false,
          "internalType": "address",
          "name": "account",
          "type": "address"
        },
        {
          "indexed": false,
          "internalType": "address",
          "name": "token",
          "type": "address"
        },
        {
          "indexed": false,
          "internalType": "uint256",
          "name": "tokenAmount",
          "type": "uint256"
        },
        {
          "indexed": false,
          "internalType": "uint256",
          "name": "usdfAmount",
          "type": "uint256"
        },
        {
          "indexed": false,
          "internalType": "uint256",
          "name": "feeBasisPoints",
          "type": "uint256"
        }
      ],
      "name": "BuyUSDF",
      "type": "event"
    },
    {
      "anonymous": false,
      "inputs": [
        {
          "indexed": false,
          "internalType": "bytes32",
          "name": "key",
          "type": "bytes32"
        },
        {
          "indexed": false,
          "internalType": "uint256",
          "name": "size",
          "type": "uint256"
        },
        {
          "indexed": false,
          "internalType": "uint256",
          "name": "collateral",
          "type": "uint256"
        },
        {
          "indexed": false,
          "internalType": "uint256",
          "name": "averagePrice",
          "type": "uint256"
        },
        {
          "indexed": false,
          "internalType": "uint256",
          "name": "entryRolloverRate",
          "type": "uint256"
        },
        {
          "indexed": false,
          "internalType": "uint256",
          "name": "reserveAmount",
          "type": "uint256"
        },
        {
          "indexed": false,
          "internalType": "int256",
          "name": "realisedPnl",
          "type": "int256"
        }
      ],
      "name": "ClosePosition",
      "type": "event"
    },
    {
      "anonymous": false,
      "inputs": [
        {
          "indexed": false,
          "internalType": "address",
          "name": "token",
          "type": "address"
        },
        {
          "indexed": false,
          "internalType": "uint256",
          "name": "feeUsd",
          "type": "uint256"
        },
        {
          "indexed": false,
          "internalType": "uint256",
          "name": "feeTokens",
          "type": "uint256"
        }
      ],
      "name": "CollectPositionTradeFees",
      "type": "event"
    },
    {
      "anonymous": false,
      "inputs": [
        {
          "indexed": false,
          "internalType": "address",
          "name": "token",
          "type": "address"
        },
        {
          "indexed": false,
          "internalType": "uint256",
          "name": "feeUsd",
          "type": "uint256"
        },
        {
          "indexed": false,
          "internalType": "uint256",
          "name": "feeTokens",
          "type": "uint256"
        }
      ],
      "name": "CollectSwapFees",
      "type": "event"
    },
    {
      "anonymous": false,
      "inputs": [
        {
          "indexed": false,
          "internalType": "address",
          "name": "token",
          "type": "address"
        },
        {
          "indexed": false,
          "internalType": "uint256",
          "name": "amount",
          "type": "uint256"
        }
      ],
      "name": "DecreaseGuaranteedUsd",
      "type": "event"
    },
    {
      "anonymous": false,
      "inputs": [
        {
          "indexed": false,
          "internalType": "address",
          "name": "token",
          "type": "address"
        },
        {
          "indexed": false,
          "internalType": "uint256",
          "name": "amount",
          "type": "uint256"
        }
      ],
      "name": "DecreasePoolAmount",
      "type": "event"
    },
    {
      "anonymous": false,
      "inputs": [
        {
          "indexed": false,
          "internalType": "bytes32",
          "name": "key",
          "type": "bytes32"
        },
        {
          "indexed": false,
          "internalType": "address",
          "name": "account",
          "type": "address"
        },
        {
          "indexed": false,
          "internalType": "address",
          "name": "collateralToken",
          "type": "address"
        },
        {
          "indexed": false,
          "internalType": "address",
          "name": "indexToken",
          "type": "address"
        },
        {
          "indexed": false,
          "internalType": "uint256",
          "name": "collateralDelta",
          "type": "uint256"
        },
        {
          "indexed": false,
          "internalType": "uint256",
          "name": "sizeDelta",
          "type": "uint256"
        },
        {
          "indexed": false,
          "internalType": "bool",
          "name": "isLong",
          "type": "bool"
        },
        {
          "indexed": false,
          "internalType": "uint256",
          "name": "price",
          "type": "uint256"
        },
        {
          "indexed": false,
          "internalType": "uint256",
          "name": "fee",
          "type": "uint256"
        }
      ],
      "name": "DecreasePosition",
      "type": "event"
    },
    {
      "anonymous": false,
      "inputs": [
        {
          "indexed": false,
          "internalType": "address",
          "name": "token",
          "type": "address"
        },
        {
          "indexed": false,
          "internalType": "uint256",
          "name": "amount",
          "type": "uint256"
        }
      ],
      "name": "DecreaseReservedAmount",
      "type": "event"
    },
    {
      "anonymous": false,
      "inputs": [
        {
          "indexed": false,
          "internalType": "address",
          "name": "token",
          "type": "address"
        },
        {
          "indexed": false,
          "internalType": "uint256",
          "name": "amount",
          "type": "uint256"
        }
      ],
      "name": "DecreaseUsdfAmount",
      "type": "event"
    },
    {
      "anonymous": false,
      "inputs": [
        {
          "indexed": false,
          "internalType": "address",
          "name": "token",
          "type": "address"
        },
        {
          "indexed": false,
          "internalType": "uint256",
          "name": "amount",
          "type": "uint256"
        }
      ],
      "name": "DirectPoolDeposit",
      "type": "event"
    },
    {
      "anonymous": false,
      "inputs": [
        {
          "indexed": false,
          "internalType": "address",
          "name": "token",
          "type": "address"
        },
        {
          "indexed": false,
          "internalType": "uint256",
          "name": "amount",
          "type": "uint256"
        }
      ],
      "name": "IncreaseGuaranteedUsd",
      "type": "event"
    },
    {
      "anonymous": false,
      "inputs": [
        {
          "indexed": false,
          "internalType": "address",
          "name": "token",
          "type": "address"
        },
        {
          "indexed": false,
          "internalType": "uint256",
          "name": "amount",
          "type": "uint256"
        }
      ],
      "name": "IncreasePoolAmount",
      "type": "event"
    },
    {
      "anonymous": false,
      "inputs": [
        {
          "indexed": false,
          "internalType": "bytes32",
          "name": "key",
          "type": "bytes32"
        },
        {
          "indexed": false,
          "internalType": "address",
          "name": "account",
          "type": "address"
        },
        {
          "indexed": false,
          "internalType": "address",
          "name": "collateralToken",
          "type": "address"
        },
        {
          "indexed": false,
          "internalType": "address",
          "name": "indexToken",
          "type": "address"
        },
        {
          "indexed": false,
          "internalType": "uint256",
          "name": "collateralDelta",
          "type": "uint256"
        },
        {
          "indexed": false,
          "internalType": "uint256",
          "name": "sizeDelta",
          "type": "uint256"
        },
        {
          "indexed": false,
          "internalType": "bool",
          "name": "isLong",
          "type": "bool"
        },
        {
          "indexed": false,
          "internalType": "uint256",
          "name": "price",
          "type": "uint256"
        },
        {
          "indexed": false,
          "internalType": "uint256",
          "name": "fee",
          "type": "uint256"
        }
      ],
      "name": "IncreasePosition",
      "type": "event"
    },
    {
      "anonymous": false,
      "inputs": [
        {
          "indexed": false,
          "internalType": "address",
          "name": "token",
          "type": "address"
        },
        {
          "indexed": false,
          "internalType": "uint256",
          "name": "amount",
          "type": "uint256"
        }
      ],
      "name": "IncreaseReservedAmount",
      "type": "event"
    },
    {
      "anonymous": false,
      "inputs": [
        {
          "indexed": false,
          "internalType": "address",
          "name": "token",
          "type": "address"
        },
        {
          "indexed": false,
          "internalType": "uint256",
          "name": "amount",
          "type": "uint256"
        }
      ],
      "name": "IncreaseUsdfAmount",
      "type": "event"
    },
    {
      "anonymous": false,
      "inputs": [
        {
          "indexed": false,
          "internalType": "bytes32",
          "name": "key",
          "type": "bytes32"
        },
        {
          "indexed": false,
          "internalType": "address",
          "name": "account",
          "type": "address"
        },
        {
          "indexed": false,
          "internalType": "address",
          "name": "collateralToken",
          "type": "address"
        },
        {
          "indexed": false,
          "internalType": "address",
          "name": "indexToken",
          "type": "address"
        },
        {
          "indexed": false,
          "internalType": "bool",
          "name": "isLong",
          "type": "bool"
        },
        {
          "indexed": false,
          "internalType": "uint256",
          "name": "size",
          "type": "uint256"
        },
        {
          "indexed": false,
          "internalType": "uint256",
          "name": "collateral",
          "type": "uint256"
        },
        {
          "indexed": false,
          "internalType": "uint256",
          "name": "reserveAmount",
          "type": "uint256"
        },
        {
          "indexed": false,
          "internalType": "int256",
          "name": "realisedPnl",
          "type": "int256"
        },
        {
          "indexed": false,
          "internalType": "uint256",
          "name": "markPrice",
          "type": "uint256"
        }
      ],
      "name": "LiquidatePosition",
      "type": "event"
    },
    {
      "anonymous": false,
      "inputs": [
        {
          "indexed": false,
          "internalType": "address",
          "name": "account",
          "type": "address"
        },
        {
          "indexed": false,
          "internalType": "address",
          "name": "token",
          "type": "address"
        },
        {
          "indexed": false,
          "internalType": "uint256",
          "name": "usdfAmount",
          "type": "uint256"
        },
        {
          "indexed": false,
          "internalType": "uint256",
          "name": "tokenAmount",
          "type": "uint256"
        },
        {
          "indexed": false,
          "internalType": "uint256",
          "name": "feeBasisPoints",
          "type": "uint256"
        }
      ],
      "name": "SellUSDF",
      "type": "event"
    },
    {
      "anonymous": false,
      "inputs": [
        {
          "indexed": false,
          "internalType": "address",
          "name": "account",
          "type": "address"
        },
        {
          "indexed": false,
          "internalType": "address",
          "name": "tokenIn",
          "type": "address"
        },
        {
          "indexed": false,
          "internalType": "address",
          "name": "tokenOut",
          "type": "address"
        },
        {
          "indexed": false,
          "internalType": "uint256",
          "name": "amountIn",
          "type": "uint256"
        },
        {
          "indexed": false,
          "internalType": "uint256",
          "name": "amountOut",
          "type": "uint256"
        },
        {
          "indexed": false,
          "internalType": "uint256",
          "name": "amountOutAfterFees",
          "type": "uint256"
        },
        {
          "indexed": false,
          "internalType": "uint256",
          "name": "feeBasisPoints",
          "type": "uint256"
        }
      ],
      "name": "Swap",
      "type": "event"
    },
    {
      "anonymous": false,
      "inputs": [
        {
          "indexed": false,
          "internalType": "bytes32",
          "name": "key",
          "type": "bytes32"
        },
        {
          "indexed": false,
          "internalType": "bool",
          "name": "hasProfit",
          "type": "bool"
        },
        {
          "indexed": false,
          "internalType": "uint256",
          "name": "delta",
          "type": "uint256"
        }
      ],
      "name": "UpdatePnl",
      "type": "event"
    },
    {
      "anonymous": false,
      "inputs": [
        {
          "indexed": false,
          "internalType": "bytes32",
          "name": "key",
          "type": "bytes32"
        },
        {
          "indexed": false,
          "internalType": "uint256",
          "name": "size",
          "type": "uint256"
        },
        {
          "indexed": false,
          "internalType": "uint256",
          "name": "collateral",
          "type": "uint256"
        },
        {
          "indexed": false,
          "internalType": "uint256",
          "name": "averagePrice",
          "type": "uint256"
        },
        {
          "indexed": false,
          "internalType": "uint256",
          "name": "entryRolloverRate",
          "type": "uint256"
        },
        {
          "indexed": false,
          "internalType": "uint256",
          "name": "reserveAmount",
          "type": "uint256"
        },
        {
          "indexed": false,
          "internalType": "int256",
          "name": "realisedPnl",
          "type": "int256"
        },
        {
          "indexed": false,
          "internalType": "uint256",
          "name": "markPrice",
          "type": "uint256"
        }
      ],
      "name": "UpdatePosition",
      "type": "event"
    },
    {
      "inputs": [],
      "name": "BASIS_POINTS_DIVISOR",
      "outputs": [
        {
          "internalType": "uint256",
          "name": "",
          "type": "uint256"
        }
      ],
      "stateMutability": "view",
      "type": "function"
    },
    {
      "inputs": [],
      "name": "FUNDING_RATE_PRECISION",
      "outputs": [
        {
          "internalType": "uint256",
          "name": "",
          "type": "uint256"
        }
      ],
      "stateMutability": "view",
      "type": "function"
    },
    {
      "inputs": [],
      "name": "MIN_LEVERAGE",
      "outputs": [
        {
          "internalType": "uint256",
          "name": "",
          "type": "uint256"
        }
      ],
      "stateMutability": "view",
      "type": "function"
    },
    {
      "inputs": [],
      "name": "PRICE_PRECISION",
      "outputs": [
        {
          "internalType": "uint256",
          "name": "",
          "type": "uint256"
        }
      ],
      "stateMutability": "view",
      "type": "function"
    },
    {
      "inputs": [],
      "name": "USDF_DECIMALS",
      "outputs": [
        {
          "internalType": "uint256",
          "name": "",
          "type": "uint256"
        }
      ],
      "stateMutability": "view",
      "type": "function"
    },
    {
      "inputs": [
        {
          "internalType": "address",
          "name": "_router",
          "type": "address"
        }
      ],
      "name": "addRouter",
      "outputs": [],
      "stateMutability": "nonpayable",
      "type": "function"
    },
    {
      "inputs": [
        {
          "internalType": "uint256",
          "name": "_amount",
          "type": "uint256"
        },
        {
          "internalType": "address",
          "name": "_tokenDiv",
          "type": "address"
        },
        {
          "internalType": "address",
          "name": "_tokenMul",
          "type": "address"
        }
      ],
      "name": "adjustForDecimals",
      "outputs": [
        {
          "internalType": "uint256",
          "name": "",
          "type": "uint256"
        }
      ],
      "stateMutability": "view",
      "type": "function"
    },
    {
      "inputs": [
        {
          "internalType": "uint256",
          "name": "",
          "type": "uint256"
        }
      ],
      "name": "allWhitelistedTokens",
      "outputs": [
        {
          "internalType": "address",
          "name": "",
          "type": "address"
        }
      ],
      "stateMutability": "view",
      "type": "function"
    },
    {
      "inputs": [],
      "name": "allWhitelistedTokensLength",
      "outputs": [
        {
          "internalType": "uint256",
          "name": "",
          "type": "uint256"
        }
      ],
      "stateMutability": "view",
      "type": "function"
    },
    {
      "inputs": [
        {
          "internalType": "address",
          "name": "",
          "type": "address"
        },
        {
          "internalType": "address",
          "name": "",
          "type": "address"
        }
      ],
      "name": "approvedRouters",
      "outputs": [
        {
          "internalType": "bool",
          "name": "",
          "type": "bool"
        }
      ],
      "stateMutability": "view",
      "type": "function"
    },
    {
      "inputs": [
        {
          "internalType": "address",
          "name": "",
          "type": "address"
        }
      ],
      "name": "bufferAmounts",
      "outputs": [
        {
          "internalType": "uint256",
          "name": "",
          "type": "uint256"
        }
      ],
      "stateMutability": "view",
      "type": "function"
    },
    {
      "inputs": [
        {
          "internalType": "address",
          "name": "_token",
          "type": "address"
        },
        {
          "internalType": "address",
          "name": "_receiver",
          "type": "address"
        }
      ],
      "name": "buyUSDF",
      "outputs": [
        {
          "internalType": "uint256",
          "name": "",
          "type": "uint256"
        }
      ],
      "stateMutability": "nonpayable",
      "type": "function"
    },
    {
      "inputs": [
        {
          "internalType": "address",
          "name": "_token",
          "type": "address"
        }
      ],
      "name": "clearTokenConfig",
      "outputs": [],
      "stateMutability": "nonpayable",
      "type": "function"
    },
    {
      "inputs": [
        {
          "internalType": "address",
          "name": "_account",
          "type": "address"
        },
        {
          "internalType": "address",
          "name": "_collateralToken",
          "type": "address"
        },
        {
          "internalType": "address",
          "name": "_indexToken",
          "type": "address"
        },
        {
          "internalType": "uint256",
          "name": "_collateralDelta",
          "type": "uint256"
        },
        {
          "internalType": "uint256",
          "name": "_sizeDelta",
          "type": "uint256"
        },
        {
          "internalType": "bool",
          "name": "_isLong",
          "type": "bool"
        },
        {
          "internalType": "address",
          "name": "_receiver",
          "type": "address"
        }
      ],
      "name": "decreasePosition",
      "outputs": [
        {
          "internalType": "uint256",
          "name": "",
          "type": "uint256"
        }
      ],
      "stateMutability": "nonpayable",
      "type": "function"
    },
    {
      "inputs": [
        {
          "internalType": "address",
          "name": "_token",
          "type": "address"
        }
      ],
      "name": "directPoolDeposit",
      "outputs": [],
      "stateMutability": "nonpayable",
      "type": "function"
    },
    {
      "inputs": [],
      "name": "errorController",
      "outputs": [
        {
          "internalType": "address",
          "name": "",
          "type": "address"
        }
      ],
      "stateMutability": "view",
      "type": "function"
    },
    {
      "inputs": [
        {
          "internalType": "uint256",
          "name": "",
          "type": "uint256"
        }
      ],
      "name": "errors",
      "outputs": [
        {
          "internalType": "string",
          "name": "",
          "type": "string"
        }
      ],
      "stateMutability": "view",
      "type": "function"
    },
    {
      "inputs": [
        {
          "internalType": "address",
          "name": "",
          "type": "address"
        }
      ],
      "name": "feeReserves",
      "outputs": [
        {
          "internalType": "uint256",
          "name": "",
          "type": "uint256"
        }
      ],
      "stateMutability": "view",
      "type": "function"
    },
    {
      "inputs": [],
      "name": "feeUtils",
      "outputs": [
        {
          "internalType": "contract IFeeUtils",
          "name": "",
          "type": "address"
        }
      ],
      "stateMutability": "view",
      "type": "function"
    },
    {
      "inputs": [
        {
          "internalType": "address",
          "name": "_indexToken",
          "type": "address"
        },
        {
          "internalType": "uint256",
          "name": "_size",
          "type": "uint256"
        },
        {
          "internalType": "uint256",
          "name": "_averagePrice",
          "type": "uint256"
        },
        {
          "internalType": "bool",
          "name": "_isLong",
          "type": "bool"
        },
        {
          "internalType": "uint256",
          "name": "_lastIncreasedTime",
          "type": "uint256"
        }
      ],
      "name": "getDelta",
      "outputs": [
        {
          "internalType": "bool",
          "name": "",
          "type": "bool"
        },
        {
          "internalType": "uint256",
          "name": "",
          "type": "uint256"
        }
      ],
      "stateMutability": "view",
      "type": "function"
    },
    {
      "inputs": [],
      "name": "getFeeUtils",
      "outputs": [
        {
          "internalType": "address",
          "name": "",
          "type": "address"
        }
      ],
      "stateMutability": "view",
      "type": "function"
    },
    {
      "inputs": [
        {
          "internalType": "address",
          "name": "_token",
          "type": "address"
        }
      ],
      "name": "getGlobalShortDelta",
      "outputs": [
        {
          "internalType": "bool",
          "name": "",
          "type": "bool"
        },
        {
          "internalType": "uint256",
          "name": "",
          "type": "uint256"
        }
      ],
      "stateMutability": "view",
      "type": "function"
    },
    {
      "inputs": [
        {
          "internalType": "address",
          "name": "_token",
          "type": "address"
        }
      ],
      "name": "getMaxPrice",
      "outputs": [
        {
          "internalType": "uint256",
          "name": "",
          "type": "uint256"
        }
      ],
      "stateMutability": "view",
      "type": "function"
    },
    {
      "inputs": [
        {
          "internalType": "address",
          "name": "_token",
          "type": "address"
        }
      ],
      "name": "getMinPrice",
      "outputs": [
        {
          "internalType": "uint256",
          "name": "",
          "type": "uint256"
        }
      ],
      "stateMutability": "view",
      "type": "function"
    },
    {
      "inputs": [
        {
          "internalType": "address",
          "name": "_indexToken",
          "type": "address"
        },
        {
          "internalType": "uint256",
          "name": "_size",
          "type": "uint256"
        },
        {
          "internalType": "uint256",
          "name": "_averagePrice",
          "type": "uint256"
        },
        {
          "internalType": "bool",
          "name": "_isLong",
          "type": "bool"
        },
        {
          "internalType": "uint256",
          "name": "_nextPrice",
          "type": "uint256"
        },
        {
          "internalType": "uint256",
          "name": "_sizeDelta",
          "type": "uint256"
        },
        {
          "internalType": "uint256",
          "name": "_lastIncreasedTime",
          "type": "uint256"
        }
      ],
      "name": "getNextAveragePrice",
      "outputs": [
        {
          "internalType": "uint256",
          "name": "",
          "type": "uint256"
        }
      ],
      "stateMutability": "view",
      "type": "function"
    },
    {
      "inputs": [
        {
          "internalType": "address",
          "name": "_indexToken",
          "type": "address"
        },
        {
          "internalType": "uint256",
          "name": "_nextPrice",
          "type": "uint256"
        },
        {
          "internalType": "uint256",
          "name": "_sizeDelta",
          "type": "uint256"
        }
      ],
      "name": "getNextGlobalShortAveragePrice",
      "outputs": [
        {
          "internalType": "uint256",
          "name": "",
          "type": "uint256"
        }
      ],
      "stateMutability": "view",
      "type": "function"
    },
    {
      "inputs": [
        {
          "internalType": "address",
          "name": "_account",
          "type": "address"
        },
        {
          "internalType": "address",
          "name": "_collateralToken",
          "type": "address"
        },
        {
          "internalType": "address",
          "name": "_indexToken",
          "type": "address"
        },
        {
          "internalType": "bool",
          "name": "_isLong",
          "type": "bool"
        }
      ],
      "name": "getPosition",
      "outputs": [
        {
          "internalType": "uint256",
          "name": "",
          "type": "uint256"
        },
        {
          "internalType": "uint256",
          "name": "",
          "type": "uint256"
        },
        {
          "internalType": "uint256",
          "name": "",
          "type": "uint256"
        },
        {
          "internalType": "uint256",
          "name": "",
          "type": "uint256"
        },
        {
          "internalType": "uint256",
          "name": "",
          "type": "uint256"
        },
        {
          "internalType": "uint256",
          "name": "",
          "type": "uint256"
        },
        {
          "internalType": "bool",
          "name": "",
          "type": "bool"
        },
        {
          "internalType": "uint256",
          "name": "",
          "type": "uint256"
        }
      ],
      "stateMutability": "view",
      "type": "function"
    },
    {
      "inputs": [
        {
          "internalType": "address",
          "name": "_account",
          "type": "address"
        },
        {
          "internalType": "address",
          "name": "_collateralToken",
          "type": "address"
        },
        {
          "internalType": "address",
          "name": "_indexToken",
          "type": "address"
        },
        {
          "internalType": "bool",
          "name": "_isLong",
          "type": "bool"
        }
      ],
      "name": "getPositionDelta",
      "outputs": [
        {
          "internalType": "bool",
          "name": "",
          "type": "bool"
        },
        {
          "internalType": "uint256",
          "name": "",
          "type": "uint256"
        }
      ],
      "stateMutability": "view",
      "type": "function"
    },
    {
      "inputs": [
        {
          "internalType": "address",
          "name": "_account",
          "type": "address"
        },
        {
          "internalType": "address",
          "name": "_collateralToken",
          "type": "address"
        },
        {
          "internalType": "address",
          "name": "_indexToken",
          "type": "address"
        },
        {
          "internalType": "bool",
          "name": "_isLong",
          "type": "bool"
        }
      ],
      "name": "getPositionKey",
      "outputs": [
        {
          "internalType": "bytes32",
          "name": "",
          "type": "bytes32"
        }
      ],
      "stateMutability": "pure",
      "type": "function"
    },
    {
      "inputs": [
        {
          "internalType": "address",
          "name": "_account",
          "type": "address"
        },
        {
          "internalType": "address",
          "name": "_collateralToken",
          "type": "address"
        },
        {
          "internalType": "address",
          "name": "_indexToken",
          "type": "address"
        },
        {
          "internalType": "bool",
          "name": "_isLong",
          "type": "bool"
        }
      ],
      "name": "getPositionLeverage",
      "outputs": [
        {
          "internalType": "uint256",
          "name": "",
          "type": "uint256"
        }
      ],
      "stateMutability": "view",
      "type": "function"
    },
    {
      "inputs": [
        {
          "internalType": "address",
          "name": "_token",
          "type": "address"
        },
        {
          "internalType": "uint256",
          "name": "_usdfAmount",
          "type": "uint256"
        }
      ],
      "name": "getRedemptionAmount",
      "outputs": [
        {
          "internalType": "uint256",
          "name": "",
          "type": "uint256"
        }
      ],
      "stateMutability": "view",
      "type": "function"
    },
    {
      "inputs": [
        {
          "internalType": "address",
          "name": "_token",
          "type": "address"
        }
      ],
      "name": "getRedemptionCollateral",
      "outputs": [
        {
          "internalType": "uint256",
          "name": "",
          "type": "uint256"
        }
      ],
      "stateMutability": "view",
      "type": "function"
    },
    {
      "inputs": [
        {
          "internalType": "address",
          "name": "_token",
          "type": "address"
        }
      ],
      "name": "getRedemptionCollateralUsd",
      "outputs": [
        {
          "internalType": "uint256",
          "name": "",
          "type": "uint256"
        }
      ],
      "stateMutability": "view",
      "type": "function"
    },
    {
      "inputs": [
        {
          "internalType": "address",
          "name": "_token",
          "type": "address"
        }
      ],
      "name": "getTargetUsdfAmount",
      "outputs": [
        {
          "internalType": "uint256",
          "name": "",
          "type": "uint256"
        }
      ],
      "stateMutability": "view",
      "type": "function"
    },
    {
      "inputs": [
        {
          "internalType": "address",
          "name": "_token",
          "type": "address"
        }
      ],
      "name": "getUtilisation",
      "outputs": [
        {
          "internalType": "uint256",
          "name": "",
          "type": "uint256"
        }
      ],
      "stateMutability": "view",
      "type": "function"
    },
    {
      "inputs": [],
      "name": "getVaultUtils",
      "outputs": [
        {
          "internalType": "address",
          "name": "",
          "type": "address"
        }
      ],
      "stateMutability": "view",
      "type": "function"
    },
    {
      "inputs": [
        {
          "internalType": "address",
          "name": "",
          "type": "address"
        }
      ],
      "name": "globalShortAveragePrices",
      "outputs": [
        {
          "internalType": "uint256",
          "name": "",
          "type": "uint256"
        }
      ],
      "stateMutability": "view",
      "type": "function"
    },
    {
      "inputs": [
        {
          "internalType": "address",
          "name": "",
          "type": "address"
        }
      ],
      "name": "globalShortSizes",
      "outputs": [
        {
          "internalType": "uint256",
          "name": "",
          "type": "uint256"
        }
      ],
      "stateMutability": "view",
      "type": "function"
    },
    {
      "inputs": [],
      "name": "gov",
      "outputs": [
        {
          "internalType": "address",
          "name": "",
          "type": "address"
        }
      ],
      "stateMutability": "view",
      "type": "function"
    },
    {
      "inputs": [
        {
          "internalType": "address",
          "name": "",
          "type": "address"
        }
      ],
      "name": "guaranteedUsd",
      "outputs": [
        {
          "internalType": "uint256",
          "name": "",
          "type": "uint256"
        }
      ],
      "stateMutability": "view",
      "type": "function"
    },
    {
      "inputs": [],
      "name": "inManagerMode",
      "outputs": [
        {
          "internalType": "bool",
          "name": "",
          "type": "bool"
        }
      ],
      "stateMutability": "view",
      "type": "function"
    },
    {
      "inputs": [],
      "name": "inPrivateLiquidationMode",
      "outputs": [
        {
          "internalType": "bool",
          "name": "",
          "type": "bool"
        }
      ],
      "stateMutability": "view",
      "type": "function"
    },
    {
      "inputs": [],
      "name": "includeAmmPrice",
      "outputs": [
        {
          "internalType": "bool",
          "name": "",
          "type": "bool"
        }
      ],
      "stateMutability": "view",
      "type": "function"
    },
    {
      "inputs": [
        {
          "internalType": "address",
          "name": "_account",
          "type": "address"
        },
        {
          "internalType": "address",
          "name": "_collateralToken",
          "type": "address"
        },
        {
          "internalType": "address",
          "name": "_indexToken",
          "type": "address"
        },
        {
          "internalType": "uint256",
          "name": "_sizeDelta",
          "type": "uint256"
        },
        {
          "internalType": "bool",
          "name": "_isLong",
          "type": "bool"
        }
      ],
      "name": "increasePosition",
      "outputs": [],
      "stateMutability": "nonpayable",
      "type": "function"
    },
    {
      "inputs": [
        {
          "internalType": "address",
          "name": "_router",
          "type": "address"
        },
        {
          "internalType": "address",
          "name": "_usdf",
          "type": "address"
        },
        {
          "internalType": "address",
          "name": "_priceFeed",
          "type": "address"
        }
      ],
      "name": "initialize",
      "outputs": [],
      "stateMutability": "nonpayable",
      "type": "function"
    },
    {
      "inputs": [],
      "name": "isInitialized",
      "outputs": [
        {
          "internalType": "bool",
          "name": "",
          "type": "bool"
        }
      ],
      "stateMutability": "view",
      "type": "function"
    },
    {
      "inputs": [],
      "name": "isLeverageEnabled",
      "outputs": [
        {
          "internalType": "bool",
          "name": "",
          "type": "bool"
        }
      ],
      "stateMutability": "view",
      "type": "function"
    },
    {
      "inputs": [
        {
          "internalType": "address",
          "name": "",
          "type": "address"
        }
      ],
      "name": "isLiquidator",
      "outputs": [
        {
          "internalType": "bool",
          "name": "",
          "type": "bool"
        }
      ],
      "stateMutability": "view",
      "type": "function"
    },
    {
      "inputs": [
        {
          "internalType": "address",
          "name": "",
          "type": "address"
        }
      ],
      "name": "isManager",
      "outputs": [
        {
          "internalType": "bool",
          "name": "",
          "type": "bool"
        }
      ],
      "stateMutability": "view",
      "type": "function"
    },
    {
      "inputs": [],
      "name": "isSwapEnabled",
      "outputs": [
        {
          "internalType": "bool",
          "name": "",
          "type": "bool"
        }
      ],
      "stateMutability": "view",
      "type": "function"
    },
    {
      "inputs": [
        {
          "internalType": "address",
          "name": "_account",
          "type": "address"
        },
        {
          "internalType": "address",
          "name": "_collateralToken",
          "type": "address"
        },
        {
          "internalType": "address",
          "name": "_indexToken",
          "type": "address"
        },
        {
          "internalType": "bool",
          "name": "_isLong",
          "type": "bool"
        },
        {
          "internalType": "address",
          "name": "_feeReceiver",
          "type": "address"
        }
      ],
      "name": "liquidatePosition",
      "outputs": [],
      "stateMutability": "nonpayable",
      "type": "function"
    },
    {
      "inputs": [],
      "name": "maxGasPrice",
      "outputs": [
        {
          "internalType": "uint256",
          "name": "",
          "type": "uint256"
        }
      ],
      "stateMutability": "view",
      "type": "function"
    },
    {
      "inputs": [
        {
          "internalType": "address",
          "name": "",
          "type": "address"
        }
      ],
      "name": "maxGlobalShortSizes",
      "outputs": [
        {
          "internalType": "uint256",
          "name": "",
          "type": "uint256"
        }
      ],
      "stateMutability": "view",
      "type": "function"
    },
    {
      "inputs": [],
      "name": "maxLeverage",
      "outputs": [
        {
          "internalType": "uint256",
          "name": "",
          "type": "uint256"
        }
      ],
      "stateMutability": "view",
      "type": "function"
    },
    {
      "inputs": [
        {
          "internalType": "address",
          "name": "",
          "type": "address"
        }
      ],
      "name": "maxUsdfAmounts",
      "outputs": [
        {
          "internalType": "uint256",
          "name": "",
          "type": "uint256"
        }
      ],
      "stateMutability": "view",
      "type": "function"
    },
    {
      "inputs": [
        {
          "internalType": "address",
          "name": "",
          "type": "address"
        }
      ],
      "name": "minProfitBasisPoints",
      "outputs": [
        {
          "internalType": "uint256",
          "name": "",
          "type": "uint256"
        }
      ],
      "stateMutability": "view",
      "type": "function"
    },
    {
      "inputs": [],
      "name": "minProfitTime",
      "outputs": [
        {
          "internalType": "uint256",
          "name": "",
          "type": "uint256"
        }
      ],
      "stateMutability": "view",
      "type": "function"
    },
    {
      "inputs": [
        {
          "internalType": "address",
          "name": "",
          "type": "address"
        }
      ],
      "name": "poolAmounts",
      "outputs": [
        {
          "internalType": "uint256",
          "name": "",
          "type": "uint256"
        }
      ],
      "stateMutability": "view",
      "type": "function"
    },
    {
      "inputs": [
        {
          "internalType": "bytes32",
          "name": "",
          "type": "bytes32"
        }
      ],
      "name": "positions",
      "outputs": [
        {
          "internalType": "uint256",
          "name": "size",
          "type": "uint256"
        },
        {
          "internalType": "uint256",
          "name": "collateral",
          "type": "uint256"
        },
        {
          "internalType": "uint256",
          "name": "averagePrice",
          "type": "uint256"
        },
        {
          "internalType": "uint256",
          "name": "entryRolloverRate",
          "type": "uint256"
        },
        {
          "internalType": "uint256",
          "name": "reserveAmount",
          "type": "uint256"
        },
        {
          "internalType": "int256",
          "name": "realisedPnl",
          "type": "int256"
        },
        {
          "internalType": "uint256",
          "name": "lastIncreasedTime",
          "type": "uint256"
        }
      ],
      "stateMutability": "view",
      "type": "function"
    },
    {
      "inputs": [],
      "name": "priceFeed",
      "outputs": [
        {
          "internalType": "address",
          "name": "",
          "type": "address"
        }
      ],
      "stateMutability": "view",
      "type": "function"
    },
    {
      "inputs": [
        {
          "internalType": "address",
          "name": "_router",
          "type": "address"
        }
      ],
      "name": "removeRouter",
      "outputs": [],
      "stateMutability": "nonpayable",
      "type": "function"
    },
    {
      "inputs": [
        {
          "internalType": "address",
          "name": "",
          "type": "address"
        }
      ],
      "name": "reservedAmounts",
      "outputs": [
        {
          "internalType": "uint256",
          "name": "",
          "type": "uint256"
        }
      ],
      "stateMutability": "view",
      "type": "function"
    },
    {
      "inputs": [],
      "name": "router",
      "outputs": [
        {
          "internalType": "address",
          "name": "",
          "type": "address"
        }
      ],
      "stateMutability": "view",
      "type": "function"
    },
    {
      "inputs": [
        {
          "internalType": "address",
          "name": "_token",
          "type": "address"
        },
        {
          "internalType": "address",
          "name": "_receiver",
          "type": "address"
        }
      ],
      "name": "sellUSDF",
      "outputs": [
        {
          "internalType": "uint256",
          "name": "",
          "type": "uint256"
        }
      ],
      "stateMutability": "nonpayable",
      "type": "function"
    },
    {
      "inputs": [
        {
          "internalType": "address",
          "name": "_token",
          "type": "address"
        },
        {
          "internalType": "uint256",
          "name": "_amount",
          "type": "uint256"
        }
      ],
      "name": "setBufferAmount",
      "outputs": [],
      "stateMutability": "nonpayable",
      "type": "function"
    },
    {
      "inputs": [
        {
          "internalType": "uint256",
          "name": "_errorCode",
          "type": "uint256"
        },
        {
          "internalType": "string",
          "name": "_error",
          "type": "string"
        }
      ],
      "name": "setError",
      "outputs": [],
      "stateMutability": "nonpayable",
      "type": "function"
    },
    {
      "inputs": [
        {
          "internalType": "address",
          "name": "_errorController",
          "type": "address"
        }
      ],
      "name": "setErrorController",
      "outputs": [],
      "stateMutability": "nonpayable",
      "type": "function"
    },
    {
      "inputs": [
        {
          "internalType": "contract IFeeUtils",
          "name": "_feeUtils",
          "type": "address"
        }
      ],
      "name": "setFeeUtils",
      "outputs": [],
      "stateMutability": "nonpayable",
      "type": "function"
    },
    {
      "inputs": [
        {
          "internalType": "address",
          "name": "_gov",
          "type": "address"
        }
      ],
      "name": "setGov",
      "outputs": [],
      "stateMutability": "nonpayable",
      "type": "function"
    },
    {
      "inputs": [
        {
          "internalType": "bool",
          "name": "_inManagerMode",
          "type": "bool"
        }
      ],
      "name": "setInManagerMode",
      "outputs": [],
      "stateMutability": "nonpayable",
      "type": "function"
    },
    {
      "inputs": [
        {
          "internalType": "bool",
          "name": "_inPrivateLiquidationMode",
          "type": "bool"
        }
      ],
      "name": "setInPrivateLiquidationMode",
      "outputs": [],
      "stateMutability": "nonpayable",
      "type": "function"
    },
    {
      "inputs": [
        {
          "internalType": "bool",
          "name": "_isLeverageEnabled",
          "type": "bool"
        }
      ],
      "name": "setIsLeverageEnabled",
      "outputs": [],
      "stateMutability": "nonpayable",
      "type": "function"
    },
    {
      "inputs": [
        {
          "internalType": "bool",
          "name": "_isSwapEnabled",
          "type": "bool"
        }
      ],
      "name": "setIsSwapEnabled",
      "outputs": [],
      "stateMutability": "nonpayable",
      "type": "function"
    },
    {
      "inputs": [
        {
          "internalType": "address",
          "name": "_liquidator",
          "type": "address"
        },
        {
          "internalType": "bool",
          "name": "_isActive",
          "type": "bool"
        }
      ],
      "name": "setLiquidator",
      "outputs": [],
      "stateMutability": "nonpayable",
      "type": "function"
    },
    {
      "inputs": [
        {
          "internalType": "address",
          "name": "_manager",
          "type": "address"
        },
        {
          "internalType": "bool",
          "name": "_isManager",
          "type": "bool"
        }
      ],
      "name": "setManager",
      "outputs": [],
      "stateMutability": "nonpayable",
      "type": "function"
    },
    {
      "inputs": [
        {
          "internalType": "uint256",
          "name": "_maxGasPrice",
          "type": "uint256"
        }
      ],
      "name": "setMaxGasPrice",
      "outputs": [],
      "stateMutability": "nonpayable",
      "type": "function"
    },
    {
      "inputs": [
        {
          "internalType": "address",
          "name": "_token",
          "type": "address"
        },
        {
          "internalType": "uint256",
          "name": "_amount",
          "type": "uint256"
        }
      ],
      "name": "setMaxGlobalShortSize",
      "outputs": [],
      "stateMutability": "nonpayable",
      "type": "function"
    },
    {
      "inputs": [
        {
          "internalType": "uint256",
          "name": "_maxLeverage",
          "type": "uint256"
        }
      ],
      "name": "setMaxLeverage",
      "outputs": [],
      "stateMutability": "nonpayable",
      "type": "function"
    },
    {
      "inputs": [
        {
          "internalType": "uint256",
          "name": "_minProfitTime",
          "type": "uint256"
        }
      ],
      "name": "setMinProfitTime",
      "outputs": [],
      "stateMutability": "nonpayable",
      "type": "function"
    },
    {
      "inputs": [
        {
          "internalType": "address",
          "name": "_priceFeed",
          "type": "address"
        }
      ],
      "name": "setPriceFeed",
      "outputs": [],
      "stateMutability": "nonpayable",
      "type": "function"
    },
    {
      "inputs": [
        {
          "internalType": "address",
          "name": "_token",
          "type": "address"
        },
        {
          "internalType": "uint256",
          "name": "_tokenDecimals",
          "type": "uint256"
        },
        {
          "internalType": "uint256",
          "name": "_tokenWeight",
          "type": "uint256"
        },
        {
          "internalType": "uint256",
          "name": "_minProfitBps",
          "type": "uint256"
        },
        {
          "internalType": "uint256",
          "name": "_maxUsdfAmount",
          "type": "uint256"
        },
        {
          "internalType": "bool",
          "name": "_isStable",
          "type": "bool"
        },
        {
          "internalType": "bool",
          "name": "_isShortable",
          "type": "bool"
        }
      ],
      "name": "setTokenConfig",
      "outputs": [],
      "stateMutability": "nonpayable",
      "type": "function"
    },
    {
      "inputs": [
        {
          "internalType": "address",
          "name": "_token",
          "type": "address"
        },
        {
          "internalType": "uint256",
          "name": "_amount",
          "type": "uint256"
        }
      ],
      "name": "setUsdfAmount",
      "outputs": [],
      "stateMutability": "nonpayable",
      "type": "function"
    },
    {
      "inputs": [
        {
          "internalType": "contract IVaultUtils",
          "name": "_vaultUtils",
          "type": "address"
        }
      ],
      "name": "setVaultUtils",
      "outputs": [],
      "stateMutability": "nonpayable",
      "type": "function"
    },
    {
      "inputs": [
        {
          "internalType": "address",
          "name": "",
          "type": "address"
        }
      ],
      "name": "shortableTokens",
      "outputs": [
        {
          "internalType": "bool",
          "name": "",
          "type": "bool"
        }
      ],
      "stateMutability": "view",
      "type": "function"
    },
    {
      "inputs": [
        {
          "internalType": "address",
          "name": "",
          "type": "address"
        }
      ],
      "name": "stableTokens",
      "outputs": [
        {
          "internalType": "bool",
          "name": "",
          "type": "bool"
        }
      ],
      "stateMutability": "view",
      "type": "function"
    },
    {
      "inputs": [
        {
          "internalType": "address",
          "name": "_tokenIn",
          "type": "address"
        },
        {
          "internalType": "address",
          "name": "_tokenOut",
          "type": "address"
        },
        {
          "internalType": "address",
          "name": "_receiver",
          "type": "address"
        }
      ],
      "name": "swap",
      "outputs": [
        {
          "internalType": "uint256",
          "name": "",
          "type": "uint256"
        }
      ],
      "stateMutability": "nonpayable",
      "type": "function"
    },
    {
      "inputs": [
        {
          "internalType": "address",
          "name": "",
          "type": "address"
        }
      ],
      "name": "tokenBalances",
      "outputs": [
        {
          "internalType": "uint256",
          "name": "",
          "type": "uint256"
        }
      ],
      "stateMutability": "view",
      "type": "function"
    },
    {
      "inputs": [
        {
          "internalType": "address",
          "name": "",
          "type": "address"
        }
      ],
      "name": "tokenDecimals",
      "outputs": [
        {
          "internalType": "uint256",
          "name": "",
          "type": "uint256"
        }
      ],
      "stateMutability": "view",
      "type": "function"
    },
    {
      "inputs": [
        {
          "internalType": "address",
          "name": "_token",
          "type": "address"
        },
        {
          "internalType": "uint256",
          "name": "_tokenAmount",
          "type": "uint256"
        }
      ],
      "name": "tokenToUsdMin",
      "outputs": [
        {
          "internalType": "uint256",
          "name": "",
          "type": "uint256"
        }
      ],
      "stateMutability": "view",
      "type": "function"
    },
    {
      "inputs": [
        {
          "internalType": "address",
          "name": "",
          "type": "address"
        }
      ],
      "name": "tokenWeights",
      "outputs": [
        {
          "internalType": "uint256",
          "name": "",
          "type": "uint256"
        }
      ],
      "stateMutability": "view",
      "type": "function"
    },
    {
      "inputs": [],
      "name": "totalTokenWeights",
      "outputs": [
        {
          "internalType": "uint256",
          "name": "",
          "type": "uint256"
        }
      ],
      "stateMutability": "view",
      "type": "function"
    },
    {
      "inputs": [
        {
          "internalType": "address",
          "name": "_newVault",
          "type": "address"
        },
        {
          "internalType": "address",
          "name": "_token",
          "type": "address"
        },
        {
          "internalType": "uint256",
          "name": "_amount",
          "type": "uint256"
        }
      ],
      "name": "upgradeVault",
      "outputs": [],
      "stateMutability": "nonpayable",
      "type": "function"
    },
    {
      "inputs": [
        {
          "internalType": "address",
          "name": "_token",
          "type": "address"
        },
        {
          "internalType": "uint256",
          "name": "_usdAmount",
          "type": "uint256"
        },
        {
          "internalType": "uint256",
          "name": "_price",
          "type": "uint256"
        }
      ],
      "name": "usdToToken",
      "outputs": [
        {
          "internalType": "uint256",
          "name": "",
          "type": "uint256"
        }
      ],
      "stateMutability": "view",
      "type": "function"
    },
    {
      "inputs": [
        {
          "internalType": "address",
          "name": "_token",
          "type": "address"
        },
        {
          "internalType": "uint256",
          "name": "_usdAmount",
          "type": "uint256"
        }
      ],
      "name": "usdToTokenMax",
      "outputs": [
        {
          "internalType": "uint256",
          "name": "",
          "type": "uint256"
        }
      ],
      "stateMutability": "view",
      "type": "function"
    },
    {
      "inputs": [
        {
          "internalType": "address",
          "name": "_token",
          "type": "address"
        },
        {
          "internalType": "uint256",
          "name": "_usdAmount",
          "type": "uint256"
        }
      ],
      "name": "usdToTokenMin",
      "outputs": [
        {
          "internalType": "uint256",
          "name": "",
          "type": "uint256"
        }
      ],
      "stateMutability": "view",
      "type": "function"
    },
    {
      "inputs": [],
      "name": "usdf",
      "outputs": [
        {
          "internalType": "address",
          "name": "",
          "type": "address"
        }
      ],
      "stateMutability": "view",
      "type": "function"
    },
    {
      "inputs": [
        {
          "internalType": "address",
          "name": "",
          "type": "address"
        }
      ],
      "name": "usdfAmounts",
      "outputs": [
        {
          "internalType": "uint256",
          "name": "",
          "type": "uint256"
        }
      ],
      "stateMutability": "view",
      "type": "function"
    },
    {
      "inputs": [],
      "name": "useSwapPricing",
      "outputs": [
        {
          "internalType": "bool",
          "name": "",
          "type": "bool"
        }
      ],
      "stateMutability": "view",
      "type": "function"
    },
    {
      "inputs": [
        {
          "internalType": "address",
          "name": "_account",
          "type": "address"
        },
        {
          "internalType": "address",
          "name": "_collateralToken",
          "type": "address"
        },
        {
          "internalType": "address",
          "name": "_indexToken",
          "type": "address"
        },
        {
          "internalType": "bool",
          "name": "_isLong",
          "type": "bool"
        },
        {
          "internalType": "bool",
          "name": "_raise",
          "type": "bool"
        }
      ],
      "name": "validateLiquidation",
      "outputs": [
        {
          "internalType": "uint256",
          "name": "",
          "type": "uint256"
        },
        {
          "internalType": "uint256",
          "name": "",
          "type": "uint256"
        }
      ],
      "stateMutability": "view",
      "type": "function"
    },
    {
      "inputs": [],
      "name": "vaultUtils",
      "outputs": [
        {
          "internalType": "contract IVaultUtils",
          "name": "",
          "type": "address"
        }
      ],
      "stateMutability": "view",
      "type": "function"
    },
    {
      "inputs": [],
      "name": "whitelistedTokenCount",
      "outputs": [
        {
          "internalType": "uint256",
          "name": "",
          "type": "uint256"
        }
      ],
      "stateMutability": "view",
      "type": "function"
    },
    {
      "inputs": [
        {
          "internalType": "address",
          "name": "",
          "type": "address"
        }
      ],
      "name": "whitelistedTokens",
      "outputs": [
        {
          "internalType": "bool",
          "name": "",
          "type": "bool"
        }
      ],
      "stateMutability": "view",
      "type": "function"
    },
    {
      "inputs": [
        {
          "internalType": "address",
          "name": "_token",
          "type": "address"
        },
        {
          "internalType": "address",
          "name": "_receiver",
          "type": "address"
        }
      ],
      "name": "withdrawFees",
      "outputs": [
        {
          "internalType": "uint256",
          "name": "",
          "type": "uint256"
        }
      ],
      "stateMutability": "nonpayable",
      "type": "function"
    }
  ],
  "bytecode": "0x6080604052600180546201000061010061ff00199092169190911762ff000019161781556207a120600955600c805460ff191690911763ffffff001916905534801561004a57600080fd5b506001600055600780546001600160a01b03191633179055615ba080620000726000396000f3fe608060405234801561001057600080fd5b506004361061048d5760003560e01c806304fef1db146104925780630842b076146104ca5780630a48d5a9146104d25780630fa234a1146104fe578063126082cf1461052457806312d43a511461052c578063181e210e146105505780631ce9cb8f1461056c57806324b0c04d1461059257806324ca984e146105b357806328e67be5146105d9578063298962e51461064e57806329ff9615146106565780632c668ec11461067c5780632d4b0576146106a857806330455ede146106e657806334c1557d14610524578063351a964d14610705578063392e53cd1461070d5780633c5a6e35146107155780633de39c11146107635780633e72a2621461076b578063421528731461077357806342b60b03146107a75780634453a374146107cd57806345a6f370146107fb57806348d91abf1461085457806348f35cbb146108985780634a3f088d146108a05780634a993ee914610921578063514ea4bf1461094757806351723e821461099c578063523fba7f146109da578063529a356f14610a0057806352f55eed14610a265780635a82f59414610a4c5780635c07eaab14610a725780635f7bc11914610ab25780636092219914610ad857806362287a3214610b065780636274980314610b0e5780636790adaf14610b345780636abbe0c814610b625780636ae0b15414610b6a5780636be6026b14610b9057806371089f4d14610b98578063724e78da14610bbe578063741bef1a14610be45780637c2eb9f714610bec5780638097505114610c0b57806381a612d614610c2857806382a0849014610c4e5780638585f4d214610ca257806388b1fbdf14610cce5780638a78daa814610cf45780638ee573ac14610d1a5780638f7b840414610d405780639060b1ca14610d665780639331621214610d6e57806395082d2514610da65780639698d25a14610dae5780639899cd0214610dd45780639d7432ca14610e00578063a42ab3d214610e32578063a5e90eee14610e5e578063a8d29cc914610e8c578063ab08c1c614610eb2578063ab2f3ad414610eba578063ae3302c214610ee0578063b06423f314610ee8578063b136ca4914610ef0578063b305ddce14610f16578063b364accb14610f1e578063b4ebd15e14610f44578063c0c53b8b14610f6a578063c3c7b9e914610fa2578063c744906014610fc8578063cea0c32814610fd0578063cfad57a214611006578063d11c1bd01461102c578063d2fa635e14611034578063d3127e6314611051578063d54d5a9f1461106e578063d9ac4225146110cd578063daf9c210146110d5578063db3555fb146110fb578063db97495f14611121578063dc8f5fac1461116d578063dcfaa23c14611175578063de2ea9481461117d578063e124e6d2146111c5578063e15d5b07146111eb578063e468baf014611219578063e67f59a714611236578063efa10a6e1461125c578063f07456ce14611288578063f07bbf77146112ae578063f14e9e98146112cd578063f2555278146112f9578063f3ae241514611327578063f887ea401461134d578063fa12dbc014611355578063fed1a60614611387575b600080fd5b6104b8600480360360208110156104a857600080fd5b50356001600160a01b0316611419565b60408051918252519081900360200190f35b6104b861147c565b6104b8600480360360408110156104e857600080fd5b506001600160a01b038135169060200135611482565b6104b86004803603602081101561051457600080fd5b50356001600160a01b03166114d5565b6104b8611595565b61053461159b565b604080516001600160a01b039092168252519081900360200190f35b6105586115aa565b604080519115158252519081900360200190f35b6104b86004803603602081101561058257600080fd5b50356001600160a01b03166115ba565b6105b1600480360360208110156105a857600080fd5b503515156115cb565b005b6105b1600480360360208110156105c957600080fd5b50356001600160a01b03166115ef565b6105b1600480360360408110156105ef57600080fd5b81359190810190604081016020820135600160201b81111561061057600080fd5b82018360208201111561062257600080fd5b803590602001918460018302840111600160201b8311171561064357600080fd5b509092509050611620565b61053461169e565b6104b86004803603602081101561066c57600080fd5b50356001600160a01b03166116b4565b6104b86004803603604081101561069257600080fd5b506001600160a01b0381351690602001356116c8565b6104b8600480360360808110156106be57600080fd5b506001600160a01b03813581169160208101358216916040820135169060600135151561170d565b6105b1600480360360208110156106fc57600080fd5b50351515611763565b610558611785565b610558611793565b6105b1600480360360e081101561072b57600080fd5b506001600160a01b038135169060208101359060408101359060608101359060808101359060a081013515159060c00135151561179c565b6104b86118e0565b6105586118e6565b6104b86004803603606081101561078957600080fd5b508035906001600160a01b03602082013581169160400135166118f5565b610558600480360360208110156107bd57600080fd5b50356001600160a01b0316611997565b6105b1600480360360408110156107e357600080fd5b506001600160a01b03813516906020013515156119ac565b6108396004803603608081101561081157600080fd5b506001600160a01b0381358116916020810135821691604082013516906060013515156119df565b60408051921515835260208301919091528051918290030190f35b6105b1600480360360a081101561086a57600080fd5b506001600160a01b038135811691602081013582169160408201351690606081013590608001351515611a7d565b610534611f74565b6108de600480360360808110156108b657600080fd5b506001600160a01b038135811691602081013582169160408201351690606001351515611f83565b604080519889526020890197909752878701959095526060870193909352608086019190915260a0850152151560c084015260e083015251908190036101000190f35b6104b86004803603602081101561093757600080fd5b50356001600160a01b0316612079565b6109646004803603602081101561095d57600080fd5b503561208b565b604080519788526020880196909652868601949094526060860192909252608085015260a084015260c0830152519081900360e00190f35b6104b8600480360360808110156109b257600080fd5b506001600160a01b0381358116916020810135821691604082013516906060013515156120c8565b6104b8600480360360208110156109f057600080fd5b50356001600160a01b031661216e565b61055860048036036020811015610a1657600080fd5b50356001600160a01b0316612180565b6104b860048036036020811015610a3c57600080fd5b50356001600160a01b0316612195565b6104b860048036036020811015610a6257600080fd5b50356001600160a01b03166121a7565b610839600480360360a0811015610a8857600080fd5b506001600160a01b03813516906020810135906040810135906060810135151590608001356121b9565b6105b160048036036020811015610ac857600080fd5b50356001600160a01b03166122b1565b61055860048036036040811015610aee57600080fd5b506001600160a01b0381358116916020013516612394565b6104b86123b4565b6104b860048036036020811015610b2457600080fd5b50356001600160a01b03166123ba565b6104b860048036036040811015610b4a57600080fd5b506001600160a01b03813581169160200135166123cc565b6105346126b6565b6105b160048036036020811015610b8057600080fd5b50356001600160a01b03166126cc565b6104b86126fa565b6105b160048036036020811015610bae57600080fd5b50356001600160a01b0316612701565b6105b160048036036020811015610bd457600080fd5b50356001600160a01b0316612735565b61053461275f565b6105b160048036036020811015610c0257600080fd5b5035151561276e565b6105b160048036036020811015610c2157600080fd5b5035612792565b6104b860048036036020811015610c3e57600080fd5b50356001600160a01b031661279f565b6104b8600480360360e0811015610c6457600080fd5b506001600160a01b0381358116916020810135821691604082013581169160608101359160808201359160a081013515159160c09091013516612849565b6105b160048036036040811015610cb857600080fd5b506001600160a01b0381351690602001356128c7565b6104b860048036036020811015610ce457600080fd5b50356001600160a01b03166128eb565b6104b860048036036020811015610d0a57600080fd5b50356001600160a01b03166128fd565b6104b860048036036020811015610d3057600080fd5b50356001600160a01b031661290f565b6105b160048036036020811015610d5657600080fd5b50356001600160a01b0316612921565b61055861294b565b6104b860048036036060811015610d8457600080fd5b506001600160a01b03813581169160208101358216916040909101351661295a565b6104b8612cf2565b6104b860048036036020811015610dc457600080fd5b50356001600160a01b0316612d02565b6104b860048036036040811015610dea57600080fd5b506001600160a01b038135169060200135612d14565b6104b860048036036060811015610e1657600080fd5b506001600160a01b038135169060208101359060400135612d36565b6104b860048036036040811015610e4857600080fd5b506001600160a01b038135169060200135612ddf565b6105b160048036036040811015610e7457600080fd5b506001600160a01b0381351690602001351515612dfc565b6105b160048036036020811015610ea257600080fd5b50356001600160a01b0316612e2f565b610558612e59565b6104b860048036036020811015610ed057600080fd5b50356001600160a01b0316612e62565b6104b8612e74565b610558612e7a565b6104b860048036036020811015610f0657600080fd5b50356001600160a01b0316612e88565b6104b8612f29565b61083960048036036020811015610f3457600080fd5b50356001600160a01b0316612f2e565b6104b860048036036020811015610f5a57600080fd5b50356001600160a01b0316612fc6565b6105b160048036036060811015610f8057600080fd5b506001600160a01b038135811691602081013582169160409091013516612fd8565b6104b860048036036020811015610fb857600080fd5b50356001600160a01b031661303f565b610534613051565b6105b160048036036060811015610fe657600080fd5b506001600160a01b03813581169160208101359091169060400135613060565b6105b16004803603602081101561101c57600080fd5b50356001600160a01b0316613081565b6105346130ab565b6105b16004803603602081101561104a57600080fd5b50356130ba565b6105b16004803603602081101561106757600080fd5b50356130c7565b6110b4600480360360a081101561108457600080fd5b506001600160a01b03813581169160208101358216916040820135169060608101351515906080013515156130e3565b6040805192835260208301919091528051918290030190f35b6104b861319a565b610558600480360360208110156110eb57600080fd5b50356001600160a01b03166131a0565b6105586004803603602081101561111157600080fd5b50356001600160a01b03166131b5565b6104b8600480360360e081101561113757600080fd5b506001600160a01b0381351690602081013590604081013590606081013515159060808101359060a08101359060c001356131ca565b6104b861325b565b610534613261565b6105b1600480360360a081101561119357600080fd5b506001600160a01b03813581169160208101358216916040820135811691606081013515159160809091013516613270565b6104b8600480360360208110156111db57600080fd5b50356001600160a01b0316613741565b6104b86004803603604081101561120157600080fd5b506001600160a01b03813581169160200135166137b8565b6105346004803603602081101561122f57600080fd5b5035613ade565b6105b16004803603602081101561124c57600080fd5b50356001600160a01b0316613b05565b6105b16004803603604081101561127257600080fd5b506001600160a01b038135169060200135613cb9565b6104b86004803603602081101561129e57600080fd5b50356001600160a01b0316613cdd565b6105b1600480360360208110156112c457600080fd5b50351515613cef565b6105b1600480360360408110156112e357600080fd5b506001600160a01b038135169060200135613d15565b6104b86004803603604081101561130f57600080fd5b506001600160a01b0381358116916020013516613d6e565b6105586004803603602081101561133d57600080fd5b50356001600160a01b0316613dc2565b610534613dd7565b6104b86004803603606081101561136b57600080fd5b506001600160a01b038135169060208101359060400135613de6565b6113a46004803603602081101561139d57600080fd5b5035613e29565b6040805160208082528351818301528351919283929083019185019080838360005b838110156113de5781810151838201526020016113c6565b50505050905090810190601f16801561140b5780820380516001836020036101000a031916815260200191505b509250505060405180910390f35b6001600160a01b0381166000908152601b602052604081205480611441576000915050611477565b6001600160a01b0383166000908152601c602052604090205461147390829061146d90620f4240613ec4565b90613f1d565b9150505b919050565b60115490565b600081611491575060006114cf565b600061149c8461279f565b6001600160a01b0385166000908152601360205260409020549091506114ca600a82900a61146d8685613ec4565b925050505b92915050565b600080600660009054906101000a90046001600160a01b03166001600160a01b03166318160ddd6040518163ffffffff1660e01b815260040160206040518083038186803b15801561152657600080fd5b505afa15801561153a573d6000803e3d6000fd5b505050506040513d602081101561155057600080fd5b5051905080611563576000915050611477565b6001600160a01b038316600090815260186020526040902054600b5461158d9061146d8385613ec4565b949350505050565b61271081565b6007546001600160a01b031681565b600c546301000000900460ff1681565b602080526000908152604090205481565b6115d3613f5c565b600c8054911515620100000262ff000019909216919091179055565b336000908152600e602090815260408083206001600160a01b0394909416835292905220805460ff19166001179055565b6003546001600160a01b0316331461167f576040805162461bcd60e51b815260206004820152601e60248201527f5661756c743a20696e76616c6964206572726f72436f6e74726f6c6c65720000604482015290519081900360640190fd5b60008381526024602052604090206116989083836159af565b50505050565b600154630100000090046001600160a01b031690565b60006114cf826116c384612e88565b611482565b6000806116d484613741565b905060006116f28261146d8668327cb2734119d3b7a9601e1b613ec4565b6006549091506114ca9082906001600160a01b0316876118f5565b604080516001600160601b0319606096871b811660208084019190915295871b811660348301529390951b9092166048850152151560f81b605c8401528051603d818503018152605d9093019052815191012090565b61176b613f5c565b600180549115156101000261ff0019909216919091179055565b600154610100900460ff1681565b60015460ff1681565b6117a4613f5c565b6001600160a01b03871660009081526012602052604090205460ff16611821576008546117d2906001613f77565b600855601180546001810182556000919091527f31ecc21a745e3968a04e9570e4425bc18fa8019c68028196b546d1669c200c680180546001600160a01b0319166001600160a01b0389161790555b600b546001600160a01b038816600090815260186020526040902054611848908290613fcf565b6001600160a01b03891660009081526012602090815260408083208054600160ff1991821617909155601383528184208c9055601883528184208b9055601483528184208a9055601a835281842089905560158352818420805482168915151790556016909252909120805490911684151517905590506118c98187613f77565b600b556118d588613741565b505050505050505050565b600d5481565b60015462010000900460ff1681565b60065460009081906001600160a01b0385811691161461192d576001600160a01b038416600090815260136020526040902054611930565b60125b6006549091506000906001600160a01b03858116911614611969576001600160a01b03841660009081526013602052604090205461196c565b60125b905061198b82600a0a61146d83600a0a89613ec490919063ffffffff16565b925050505b9392505050565b60156020526000908152604090205460ff1681565b6119b4613f5c565b6001600160a01b03919091166000908152600f60205260409020805460ff1916911515919091179055565b60008060006119f08787878761170d565b90506119fa615a2d565b506000818152601f6020908152604091829020825160e081018452815480825260018301549382019390935260028201549381018490526003820154606082015260048201546080820152600582015460a082015260069091015460c082018190529092611a6e92899290919089906121b9565b93509350505094509492505050565b60026000541415611ac3576040805162461bcd60e51b815260206004820152601f6024820152600080516020615aa0833981519152604482015290519081900360640190fd5b6002600055600154611adf9062010000900460ff16601c614011565b611ae76140bd565b611af0856140d9565b611afb84848361413c565b60015460408051634eae147d60e11b81526001600160a01b038881166004830152878116602483015286811660448301526064820186905284151560848301529151630100000090930490911691639d5c28fa9160a480820192600092909190829003018186803b158015611b6f57600080fd5b505afa158015611b83573d6000803e3d6000fd5b5050600254604080516319cf5d5160e21b81526001600160a01b038981166004830152915191909216935063673d75449250602480830192600092919082900301818387803b158015611bd557600080fd5b505af1158015611be9573d6000803e3d6000fd5b505050506000611bfb8686868561170d565b6000818152601f6020526040812091925083611c1f57611c1a8661279f565b611c28565b611c2886613741565b8254909150611c3957600282018190555b815415801590611c495750600085115b15611c6f57611c69868360000154846002015487858a88600601546131ca565b60028301555b6000611c88898989888a88600001548960030154614252565b90506000611c9589614410565b90506000611ca38a83611482565b6001860154909150611cb59082613f77565b60018601819055611cca90841115601d614011565b6001850154611cd99084613fcf565b60018601556002546040805163f2070c7160e01b81526001600160a01b038d811660048301529151919092169163f2070c71916024808301926020929190829003018186803b158015611d2b57600080fd5b505afa158015611d3f573d6000803e3d6000fd5b505050506040513d6020811015611d5557600080fd5b505160038601558454611d689089613f77565b808655426006870155611d7e901515601e614011565b611d90856000015486600101546144bd565b611d9e8b8b8b8a60016130e3565b50506000611dac8b8a612ddf565b6004870154909150611dbe9082613f77565b6004870155611dcd8b826144e1565b8715611e1257611de68b611de18b87613f77565b614581565b611df08b83614600565b611dfa8b8461467f565b611e0d8b611e088d87612d14565b614797565b611e7e565b6001600160a01b038a16600090815260216020526040902054611e4f576001600160a01b038a166000908152602260205260409020859055611e74565b611e5a8a868b612d36565b6001600160a01b038b166000908152602260205260409020555b611e7e8a8a61486a565b604080518881526001600160a01b03808f166020830152808e16828401528c1660608201526080810184905260a081018b905289151560c082015260e08101879052610100810186905290517f2fe68525253654c21998f35787a8d0f361905ef647c854092430ab65f2f15022918190036101200190a1855460018701546002880154600389015460048a015460058b0154604080518e81526020810197909752868101959095526060860193909352608085019190915260a084015260c083015260e0820187905251600080516020615ac0833981519152918190036101000190a15050600160005550505050505050505050565b6003546001600160a01b031681565b6000806000806000806000806000611f9d8d8d8d8d61170d565b9050611fa7615a2d565b601f60008381526020019081526020016000206040518060e001604052908160008201548152602001600182015481526020016002820154815260200160038201548152602001600482015481526020016005820154815260200160068201548152505090506000808260a0015113612027578160a0015160000361202d565b8160a001515b9050816000015182602001518360400151846060015185608001518560008860a0015112158860c001519a509a509a509a509a509a509a509a5050505094995094995094999196509450565b601d6020526000908152604090205481565b601f602052600090815260409020805460018201546002830154600384015460048501546005860154600690960154949593949293919290919087565b6000806120d78686868661170d565b90506120e1615a2d565b506000818152601f6020908152604091829020825160e0810184528154815260018201549281018390526002820154938101939093526003810154606084015260048101546080840152600581015460a08401526006015460c083015261214b9015156025614011565b60208101518151612163919061146d90612710613ec4565b979650505050505050565b60176020526000908152604090205481565b600f6020526000908152604090205460ff1681565b601b6020526000908152604090205481565b601a6020526000908152604090205481565b6000806121ca600086116026614011565b6000846121df576121da88613741565b6121e8565b6121e88861279f565b90506000818711612202576121fd8288613fcf565b61220c565b61220c8783613fcf565b9050600061221e8861146d8b85613ec4565b9050600087156122315750878311612236565b508288115b600061224d600a5489613f7790919063ffffffff16565b4211612271576001600160a01b038c16600090815260146020526040902054612274565b60005b905081801561229757506122888b82613ec4565b61229484612710613ec4565b11155b156122a157600092505b509a909950975050505050505050565b600260005414156122f7576040805162461bcd60e51b815260206004820152601f6024820152600080516020615aa0833981519152604482015290519081900360640190fd5b600260009081556001600160a01b0382168152601260205260409020546123229060ff16600e614011565b600061232d82614410565b905061233d60008211600f614011565b612347828261467f565b604080516001600160a01b03841681526020810183905281517fa5a389190ebf6170a133bda5c769b77f4d6715b8aa172ec0ddf8473d0b4944bd929181900390910190a150506001600055565b600e60209081526000928352604080842090915290825290205460ff1681565b60085481565b60226020526000908152604090205481565b600060026000541415612414576040805162461bcd60e51b815260206004820152601f6024820152600080516020615aa0833981519152604482015290519081900360640190fd5b6002600055612421614922565b6001600160a01b0383166000908152601260205260409020546124489060ff166013614011565b600c805461ff00191661010017905560065460009061246f906001600160a01b0316614410565b905061247f600082116014614011565b600254604080516319cf5d5160e21b81526001600160a01b0387811660048301529151919092169163673d754491602480830192600092919082900301818387803b1580156124cd57600080fd5b505af11580156124e1573d6000803e3d6000fd5b5050505060006124f185836116c8565b9050612501600082116015614011565b61250b8583614951565b6125158582614797565b60065460408051632770a7eb60e21b81523060048201526024810185905290516001600160a01b0390921691639dc29fac9160448082019260009290919082900301818387803b15801561256857600080fd5b505af115801561257c573d6000803e3d6000fd5b505060065461259692506001600160a01b03169050614a0f565b600254604080516337c7342b60e21b81526001600160a01b038881166004830152602482018690529151600093929092169163df1cd0ac91604480820192602092909190829003018186803b1580156125ee57600080fd5b505afa158015612602573d6000803e3d6000fd5b505050506040513d602081101561261857600080fd5b505190506000612629878484614aaa565b9050612639600082116016614011565b612644878288614b70565b604080516001600160a01b03808916825289166020820152808201869052606081018390526080810184905290517f9c5b76b955be4dbc251b9bfc126c5875f2691b8bab954f4de125cfd6e097d7079181900360a00190a1600c805461ff001916905560016000559695505050505050565b600154630100000090046001600160a01b031681565b336000908152600e602090815260408083206001600160a01b0394909416835292905220805460ff19169055565b620f424081565b612709613f5c565b600180546001600160a01b039092166301000000026301000000600160b81b0319909216919091179055565b61273d613f5c565b600580546001600160a01b0319166001600160a01b0392909216919091179055565b6005546001600160a01b031681565b612776613f5c565b60018054911515620100000262ff000019909216919091179055565b61279a613f5c565b600a55565b600554600c54604080516317e1d38560e11b81526001600160a01b03858116600483015260006024830181905260ff8086161515604485015261010090950490941615156064830152915192939190911691632fc3a70a91608480820192602092909190829003018186803b15801561281757600080fd5b505afa15801561282b573d6000803e3d6000fd5b505050506040513d602081101561284157600080fd5b505192915050565b600060026000541415612891576040805162461bcd60e51b815260206004820152601f6024820152600080516020615aa0833981519152604482015290519081900360640190fd5b600260005561289e6140bd565b6128a7886140d9565b6128b688888888888888614c17565b600160005598975050505050505050565b6128cf613f5c565b6001600160a01b039091166000908152601d6020526040902055565b60146020526000908152604090205481565b60216020526000908152604090205481565b60136020526000908152604090205481565b612929613f5c565b600380546001600160a01b0319166001600160a01b0392909216919091179055565b600c5462010000900460ff1681565b6000600260005414156129a2576040805162461bcd60e51b815260206004820152601f6024820152600080516020615aa0833981519152604482015290519081900360640190fd5b60026000556001546129bd90610100900460ff166017614011565b6001600160a01b0384166000908152601260205260409020546129e49060ff166018614011565b6001600160a01b038316600090815260126020526040902054612a0b9060ff166019614011565b612a2b836001600160a01b0316856001600160a01b03161415601a614011565b600c805461ff001916610100179055600254604080516319cf5d5160e21b81526001600160a01b0387811660048301529151919092169163673d754491602480830192600092919082900301818387803b158015612a8857600080fd5b505af1158015612a9c573d6000803e3d6000fd5b5050600254604080516319cf5d5160e21b81526001600160a01b038881166004830152915191909216935063673d75449250602480830192600092919082900301818387803b158015612aee57600080fd5b505af1158015612b02573d6000803e3d6000fd5b505050506000612b1185614410565b9050612b2160008211601b614011565b6000612b2c8661279f565b90506000612b3986613741565b90506000612b4b8261146d8686613ec4565b9050612b588189896118f5565b90506000612b7668327cb2734119d3b7a9601e1b61146d8787613ec4565b600654909150612b929082908b906001600160a01b03166118f5565b60025460408051636d099c0b60e11b81526001600160a01b038d811660048301528c81166024830152604482018590529151939450600093919092169163da133816916064808301926020929190829003018186803b158015612bf457600080fd5b505afa158015612c08573d6000803e3d6000fd5b505050506040513d6020811015612c1e57600080fd5b505190506000612c2f8a8584614aaa565b9050612c3b8b84615171565b612c458a84614951565b612c4f8b8861467f565b612c598a85614797565b612c628a61522f565b612c6d8a828b614b70565b604080516001600160a01b03808c168252808e1660208301528c1681830152606081018990526080810186905260a0810183905260c0810184905290517f0874b2d545cb271cdbda4e093020c452328b24af12382ed62c4d00f5c26709db9181900360e00190a1600c805461ff001916905560016000559a9950505050505050505050565b68327cb2734119d3b7a9601e1b81565b60236020526000908152604090205481565b600081612d23575060006114cf565b6119908383612d3186613741565b613de6565b6001600160a01b038316600090815260216020908152604080832054602290925282205482858211612d7157612d6c8683613fcf565b612d7b565b612d7b8287613fcf565b90506000612d8d8361146d8685613ec4565b90508683116000612d9e8689613f77565b9050600082612db657612db18285613f77565b612dc0565b612dc08285613fcf565b9050612dd08161146d8c85613ec4565b9b9a5050505050505050505050565b600081612dee575060006114cf565b6119908383612d318661279f565b612e04613f5c565b6001600160a01b03919091166000908152601060205260409020805460ff1916911515919091179055565b612e37613f5c565b600280546001600160a01b0319166001600160a01b0392909216919091179055565b600c5460ff1681565b60186020526000908152604090205481565b60095481565b600c54610100900460ff1681565b6001600160a01b03811660009081526015602052604081205460ff1615612ec857506001600160a01b0381166000908152601b6020526040902054611477565b6001600160a01b0382166000908152601e6020526040812054612eec908490612d14565b6001600160a01b0384166000908152601c6020908152604080832054601b9092529091205491925061147391612f23908490613f77565b90613fcf565b601281565b6001600160a01b038116600090815260216020526040812054819080612f5b576000809250925050612fc1565b6000612f6685613741565b6001600160a01b038616600090815260226020526040812054919250828211612f9857612f938383613fcf565b612fa2565b612fa28284613fcf565b90506000612fb48361146d8785613ec4565b9390921195509193505050505b915091565b60196020526000908152604090205481565b612fe0613f5c565b60018054612ff49160ff9091161590614011565b6001805460ff191681179055600480546001600160a01b039485166001600160a01b031991821617909155600680549385169382169390931790925560058054919093169116179055565b601c6020526000908152604090205481565b6002546001600160a01b031681565b613068613f5c565b61307c6001600160a01b03831684836152a4565b505050565b613089613f5c565b600780546001600160a01b0319166001600160a01b0392909216919091179055565b6002546001600160a01b031690565b6130c2613f5c565b600d55565b6130cf613f5c565b6130de61271082116002614011565b600955565b6001546040805163d54d5a9f60e01b81526001600160a01b03888116600483015287811660248301528681166044830152851515606483015284151560848301528251600094859463010000009091049092169263d54d5a9f9260a4808301939192829003018186803b15801561315957600080fd5b505afa15801561316d573d6000803e3d6000fd5b505050506040513d604081101561318357600080fd5b508051602090910151909890975095505050505050565b600a5481565b60126020526000908152604090205460ff1681565b60166020526000908152604090205460ff1681565b60008060006131dc8a8a8a8a886121b9565b909250905060006131ed8a87613f77565b90506000881561321c578361320b576132068284613fcf565b613215565b6132158284613f77565b905061323d565b836132305761322b8284613f77565b61323a565b61323a8284613fcf565b90505b61324b8161146d8a85613ec4565b9c9b505050505050505050505050565b600b5481565b6006546001600160a01b031681565b600260005414156132b6576040805162461bcd60e51b815260206004820152601f6024820152600080516020615aa0833981519152604482015290519081900360640190fd5b6002600055600c546301000000900460ff16156132eb57336000908152600f60205260409020546132eb9060ff166022614011565b600c805460ff19169055600254604080516319cf5d5160e21b81526001600160a01b0387811660048301529151919092169163673d754491602480830192600092919082900301818387803b15801561334357600080fd5b505af1158015613357573d6000803e3d6000fd5b5050505060006133698686868661170d565b9050613373615a2d565b506000818152601f6020908152604091829020825160e08101845281548082526001830154938201939093526002820154938101939093526003810154606084015260048101546080840152600581015460a08401526006015460c08301526133df9015156023614011565b6000806133f08989898960006130e3565b9150915061340382600014156024614011565b816002141561343857613420898989600087600001518b8f614c17565b5050600c805460ff1916600117905550613735915050565b60006134448983612d14565b6001600160a01b038a1660009081526020805260409020549091506134699082613f77565b6001600160a01b038a16600081815260208080526040918290209390935580519182529181018490528082018390529051600080516020615b008339815191529181900360600190a16134c08985608001516152f6565b86156134ef57602084015184516134e1918b916134dc91613fcf565b614600565b6134ef89611e088b85612d14565b600087613504576134ff89613741565b61350d565b61350d8961279f565b90507f2e1f85a64a2f22cf2f0c42584e7c919ed4abe8d53675cff0f62bf1e95a1c676f868c8c8c8c8a600001518b602001518c608001518d60a001518a604051808b81526020018a6001600160a01b03168152602001896001600160a01b03168152602001886001600160a01b0316815260200187151581526020018681526020018581526020018481526020018381526020018281526020019a505050505050505050505060405180910390a1871580156135cc5750846020015183105b156135fa5760208501516000906135e39085613fcf565b90506135f88b6135f38d84612d14565b61467f565b505b8761360d5761360d8986600001516153ab565b6000868152601f6020908152604080832083815560018101849055600280820185905560038201859055600480830186905560058301869055600690920194909455925481516374a5f74960e01b815291516136c5948f94611e089486946001600160a01b0316936374a5f749938281019392829003018186803b15801561369457600080fd5b505afa1580156136a8573d6000803e3d6000fd5b505050506040513d60208110156136be57600080fd5b5051612d14565b6137218a61371b8c600260009054906101000a90046001600160a01b03166001600160a01b03166374a5f7496040518163ffffffff1660e01b815260040160206040518083038186803b15801561369457600080fd5b89614b70565b5050600c805460ff19166001179055505050505b50506001600055505050565b600554600c54604080516317e1d38560e11b81526001600160a01b0385811660048301526001602483015260ff808516151560448401526101009094049093161515606482015290516000939290921691632fc3a70a91608480820192602092909190829003018186803b15801561281757600080fd5b600060026000541415613800576040805162461bcd60e51b815260206004820152601f6024820152600080516020615aa0833981519152604482015290519081900360640190fd5b600260005561380d614922565b6001600160a01b0383166000908152601260205260409020546138349060ff166010614011565b600c805461ff001916610100179055600061384e84614410565b905061385e600082116011614011565b600254604080516319cf5d5160e21b81526001600160a01b0387811660048301529151919092169163673d754491602480830192600092919082900301818387803b1580156138ac57600080fd5b505af11580156138c0573d6000803e3d6000fd5b5050505060006138cf8561279f565b905060006138ed68327cb2734119d3b7a9601e1b61146d8585613ec4565b60065490915061390990829088906001600160a01b03166118f5565b9050613919600082116012614011565b600254604080516305e66d2360e21b81526001600160a01b0389811660048301526024820185905291516000939290921691631799b48c91604480820192602092909190829003018186803b15801561397157600080fd5b505afa158015613985573d6000803e3d6000fd5b505050506040513d602081101561399b57600080fd5b5051905060006139ac888684614aaa565b905060006139ca68327cb2734119d3b7a9601e1b61146d8488613ec4565b6006549091506139e69082908b906001600160a01b03166118f5565b90506139f28982615171565b6139fc898361467f565b600654604080516340c10f1960e01b81526001600160a01b038b8116600483015260248201859052915191909216916340c10f1991604480830192600092919082900301818387803b158015613a5157600080fd5b505af1158015613a65573d6000803e3d6000fd5b5050604080516001600160a01b03808d1682528d1660208201528082018a9052606081018590526080810187905290517f2b9470eb0f944b6fe65deb3444142cbdcab70946d64de114544cb49983cf9f1a93509081900360a0019150a1600c805461ff0019169055600160005598975050505050505050565b60118181548110613aeb57fe5b6000918252602090912001546001600160a01b0316905081565b613b0d613f5c565b6001600160a01b038116600090815260126020526040902054613b349060ff16600d614011565b6001600160a01b038116600090815260186020526040902054600b54613b5991613fcf565b600b556001600160a01b0381166000908152601260209081526040808320805460ff19908116909155601383528184208490556018835281842084905560148352818420849055601a835281842084905560158352818420805482169055601690925290912080549091169055600854613bd4906001613fcf565b6008556011546000805b82811015613c225760118181548110613bf357fe5b6000918252602090912001546001600160a01b0385811691161415613c1a57809150613c22565b600101613bde565b5060116001830381548110613c3357fe5b600091825260209091200154601180546001600160a01b039092169183908110613c5957fe5b9060005260206000200160006101000a8154816001600160a01b0302191690836001600160a01b031602179055506011805480613c9257fe5b600082815260209020810160001990810180546001600160a01b0319169055019055505050565b613cc1613f5c565b6001600160a01b03909116600090815260236020526040902055565b601e6020526000908152604090205481565b613cf7613f5c565b600c805491151563010000000263ff00000019909216919091179055565b613d1d613f5c565b6001600160a01b03821660009081526019602052604090205480821115613d5757613d5183613d4c8484613fcf565b615171565b50613d6a565b61307c83613d658385613fcf565b614951565b5050565b6000613d78613f5c565b6001600160a01b038316600090815260208052604090205480613d9f5760009150506114cf565b6001600160a01b0384166000908152602080526040812055611990848285614b70565b60106020526000908152604090205460ff1681565b6004546001600160a01b031681565b600082613df557506000611990565b6001600160a01b038416600090815260136020526040902054613e208361146d86600a85900a613ec4565b95945050505050565b60246020908152600091825260409182902080548351601f600260001961010060018616150201909316929092049182018490048402810184019094528084529091830182828015613ebc5780601f10613e9157610100808354040283529160200191613ebc565b820191906000526020600020905b815481529060010190602001808311613e9f57829003601f168201915b505050505081565b600082613ed3575060006114cf565b82820282848281613ee057fe5b04146119905760405162461bcd60e51b8152600401808060200182810382526021815260200180615b206021913960400191505060405180910390fd5b600061199083836040518060400160405280601a815260200179536166654d6174683a206469766973696f6e206279207a65726f60301b815250615413565b600754613f75906001600160a01b031633146035614011565b565b600082820183811015611990576040805162461bcd60e51b815260206004820152601b60248201527a536166654d6174683a206164646974696f6e206f766572666c6f7760281b604482015290519081900360640190fd5b600061199083836040518060400160405280601e81526020017f536166654d6174683a207375627472616374696f6e206f766572666c6f7700008152506154b5565b60008181526024602052604090208261307c5760405162461bcd60e51b81526020600482019081528254600260001961010060018416150201909116046024830181905290918291604490910190849080156140ae5780601f10614083576101008083540402835291602001916140ae565b820191906000526020600020905b81548152906001019060200180831161409157829003601f168201915b50509250505060405180910390fd5b600d546140c957613f75565b613f75600d543a11156037614011565b336001600160a01b03821614156140ef57614139565b6004546001600160a01b031633141561410757614139565b6001600160a01b0381166000908152600e602090815260408083203384529091529020546141399060ff166029614011565b50565b80156141b557614161826001600160a01b0316846001600160a01b031614602a614011565b6001600160a01b0383166000908152601260205260409020546141889060ff16602b614011565b6001600160a01b0383166000908152601560205260409020546141b09060ff1615602c614011565b61307c565b6001600160a01b0383166000908152601260205260409020546141dc9060ff16602d614011565b6001600160a01b0383166000908152601560205260409020546142039060ff16602e614011565b6001600160a01b03821660009081526015602052604090205461422b9060ff1615602f614011565b6001600160a01b03821660009081526016602052604090205461307c9060ff166030614011565b60025460408051630d8bfc2d60e41b81526001600160a01b038a811660048301528981166024830152888116604483015287151560648301526084820187905291516000938493169163d8bfc2d09160a4808301926020929190829003018186803b1580156142c057600080fd5b505afa1580156142d4573d6000803e3d6000fd5b505050506040513d60208110156142ea57600080fd5b505160025460408051635110a72b60e01b81526001600160a01b038c81166004830152602482018990526044820188905291519394506000939190921691635110a72b916064808301926020929190829003018186803b15801561434d57600080fd5b505afa158015614361573d6000803e3d6000fd5b505050506040513d602081101561437757600080fd5b505190506143858282613f77565b915060006143938a84612d14565b6001600160a01b038b1660009081526020805260409020549091506143b89082613f77565b6001600160a01b038b16600081815260208080526040918290209390935580519182529181018590528082018390529051600080516020615b008339815191529181900360600190a150909998505050505050505050565b6001600160a01b03811660008181526017602090815260408083205481516370a0823160e01b8152306004820152915193949093859391926370a08231926024808301939192829003018186803b15801561446a57600080fd5b505afa15801561447e573d6000803e3d6000fd5b505050506040513d602081101561449457600080fd5b50516001600160a01b0385166000908152601760205260409020819055905061158d8183613fcf565b816144d3576144ce81156027614011565b613d6a565b613d6a818310156028614011565b6001600160a01b0382166000908152601c60205260409020546145049082613f77565b6001600160a01b0383166000908152601c60208181526040808420859055601b82529092205491526145399111156034614011565b604080516001600160a01b03841681526020810183905281517faa5649d82f5462be9d19b0f2b31a59b2259950a6076550bac9f3a1c07db9f66d929181900390910190a15050565b6001600160a01b0382166000908152601e60205260409020546145a49082613f77565b6001600160a01b0383166000818152601e602090815260409182902093909355805191825291810183905281517fd9d4761f75e0d0103b5cbeab941eeb443d7a56a35b5baf2a0787c03f03f4e474929181900390910190a15050565b6001600160a01b0382166000908152601e60205260409020546146239082613fcf565b6001600160a01b0383166000818152601e602090815260409182902093909355805191825291810183905281517f34e07158b9db50df5613e591c44ea2ebc82834eff4a4dc3a46e000e608261d68929181900390910190a15050565b6001600160a01b0382166000908152601b60205260409020546146a29082613f77565b6001600160a01b0383166000818152601b602090815260408083209490945583516370a0823160e01b8152306004820152935191936370a082319260248083019392829003018186803b1580156146f857600080fd5b505afa15801561470c573d6000803e3d6000fd5b505050506040513d602081101561472257600080fd5b50516001600160a01b0384166000908152601b602052604090205490915061474e908210156031614011565b604080516001600160a01b03851681526020810184905281517f976177fbe09a15e5e43f848844963a42b41ef919ef17ff21a17a5421de8f4737929181900390910190a1505050565b604080518082018252601a81527915985d5b1d0e881c1bdbdb105b5bdd5b9d08195e18d95959195960321b6020808301919091526001600160a01b0385166000908152601b90915291909120546147ef9183906154b5565b6001600160a01b0383166000908152601b60209081526040808320849055601c9091529020546148229110156032614011565b604080516001600160a01b03841681526020810183905281517f112726233fbeaeed0f5b1dba5cb0b2b81883dee49fb35ff99fd98ed9f6d31eb0929181900390910190a15050565b6001600160a01b03821660009081526021602052604090205461488d9082613f77565b6001600160a01b038316600090815260216020908152604080832093909355602390522054801561307c576001600160a01b03831660009081526021602052604090205481101561307c576040805162461bcd60e51b815260206004820152601a60248201527915985d5b1d0e881b585e081cda1bdc9d1cc8195e18d95959195960321b604482015290519081900360640190fd5b600c5462010000900460ff1615613f755733600090815260106020526040902054613f759060ff166036614011565b6001600160a01b0382166000908152601960205260409020548181116149ba576001600160a01b038316600081815260196020908152604080832092909255815192835282018390528051600080516020615a808339815191529281900390910190a150613d6a565b6149c48183613fcf565b6001600160a01b0384166000818152601960209081526040918290209390935580519182529181018490528151600080516020615a80833981519152929181900390910190a1505050565b6000816001600160a01b03166370a08231306040518263ffffffff1660e01b815260040180826001600160a01b0316815260200191505060206040518083038186803b158015614a5e57600080fd5b505afa158015614a72573d6000803e3d6000fd5b505050506040513d6020811015614a8857600080fd5b50516001600160a01b0390921660009081526017602052604090209190915550565b600080614ac761271061146d614ac08287613fcf565b8790613ec4565b90506000614ad58583613fcf565b6001600160a01b0387166000908152602080526040902054909150614afa9082613f77565b6001600160a01b03871660009081526020805260409020557f47cd9dda0e50ce30bcaaacd0488452b596221c07ac402a581cfae4d3933cac2b86614b3e8184611482565b604080516001600160a01b0390931683526020830191909152818101849052519081900360600190a150949350505050565b614b846001600160a01b03841682846152a4565b604080516370a0823160e01b815230600482015290516001600160a01b038516916370a08231916024808301926020929190829003018186803b158015614bca57600080fd5b505afa158015614bde573d6000803e3d6000fd5b505050506040513d6020811015614bf457600080fd5b50516001600160a01b039093166000908152601760205260409020929092555050565b600154604080516381d11a2360e01b81526001600160a01b038a8116600483015289811660248301528881166044830152606482018890526084820187905285151560a483015284811660c4830152915160009363010000009004909216916381d11a239160e4808201928692909190829003018186803b158015614c9b57600080fd5b505afa158015614caf573d6000803e3d6000fd5b5050600254604080516319cf5d5160e21b81526001600160a01b038c81166004830152915191909216935063673d75449250602480830192600092919082900301818387803b158015614d0157600080fd5b505af1158015614d15573d6000803e3d6000fd5b505050506000614d278989898761170d565b6000818152601f60208190526040909120805492935091614d4b9190151590614011565b614d5d86826000015410156020614011565b614d6f87826001015410156021614011565b600181015481546004830154600091614d8c9161146d908b613ec4565b6004840154909150614d9e9082613fcf565b6004840155614dad8b826152f6565b50600080614dbf8d8d8d8d8d8d61550f565b855491935091508914614fad576002546040805163f2070c7160e01b81526001600160a01b038f811660048301529151919092169163f2070c71916024808301926020929190829003018186803b158015614e1957600080fd5b505afa158015614e2d573d6000803e3d6000fd5b505050506040513d6020811015614e4357600080fd5b505160038501558354614e56908a613fcf565b8085556001850154614e6891906144bd565b614e768d8d8d8b60016130e3565b50508715614ea357614e998c611de1866001015486613fcf90919063ffffffff16565b614ea38c8a614600565b600088614eb857614eb38c613741565b614ec1565b614ec18c61279f565b9050600080516020615ae0833981519152868f8f8f8f8f8f88614ee48c8c613fcf565b60408051998a526001600160a01b0398891660208b015296881689880152949096166060880152608087019290925260a0860152151560c085015260e084019290925261010083019190915251908190036101200190a18454600186015460028701546003880154600489015460058a0154604080518d81526020810197909752868101959095526060860193909352608085019190915260a084015260c083015260e0820183905251600080516020615ac0833981519152918190036101000190a15061510f565b8715614fc757614fbd8c84614581565b614fc78c8a614600565b600088614fdc57614fd78c613741565b614fe5565b614fe58c61279f565b9050600080516020615ae0833981519152868f8f8f8f8f8f886150088c8c613fcf565b60408051998a526001600160a01b0398891660208b015296881689880152949096166060880152608087019290925260a0860152151560c085015260e084019290925261010083019190915251908190036101200190a18454600186015460028701546003880154600489015460058a0154604080518d81526020810197909752868101959095526060860193909352608085019190915260a084015260c0830152517f73af1d417d82c240fdb6d319b34ad884487c6bf2845d98980cc52ad9171cb4559181900360e00190a1506000858152601f602052604081208181556001810182905560028101829055600381018290556004810182905560058101829055600601555b8761511e5761511e8b8a6153ab565b811561515e578715615138576151388c611e088e85612d14565b60006151448d83612d14565b90506151518d828a614b70565b9550612163945050505050565b5060009c9b505050505050505050505050565b6001600160a01b0382166000908152601960205260409020546151949082613f77565b6001600160a01b038316600090815260196020908152604080832093909355601a9052205480156151e6576001600160a01b0383166000908152601960205260409020546151e6908210156033614011565b604080516001600160a01b03851681526020810184905281517f8aac32bffdd60b0da736079f6e3812407b22355d3331c03f40b5813e0c2576d3929181900390910190a1505050565b6001600160a01b0381166000908152601d6020908152604080832054601b909252909120541015614139576040805162461bcd60e51b815260206004820152601a6024820152792b30bab63a1d103837b7b620b6b7bab73a101e10313ab33332b960311b604482015290519081900360640190fd5b604080516001600160a01b038416602482015260448082018490528251808303909101815260649091019091526020810180516001600160e01b031663a9059cbb60e01b17905261307c908490615709565b604080518082018252601b81527a5661756c743a20696e73756666696369656e74207265736572766560281b6020808301919091526001600160a01b0385166000908152601c909152919091205461534f9183906154b5565b6001600160a01b0383166000818152601c602090815260409182902093909355805191825291810183905281517f533cb5ed32be6a90284e96b5747a1bfc2d38fdb5768a6b5f67ff7d62144ed67b929181900390910190a15050565b6001600160a01b038216600090815260216020526040902054808211156153eb57506001600160a01b038216600090815260216020526040812055613d6a565b6153f58183613fcf565b6001600160a01b038416600090815260216020526040902055505050565b6000818361549f5760405162461bcd60e51b81526004018080602001828103825283818151815260200191508051906020019080838360005b8381101561546457818101518382015260200161544c565b50505050905090810190601f1680156154915780820380516001836020036101000a031916815260200191505b509250505060405180910390fd5b5060008385816154ab57fe5b0495945050505050565b600081848411156155075760405162461bcd60e51b815260206004820181815283516024840152835190928392604490910191908501908083836000831561546457818101518382015260200161544c565b505050900390565b60008060006155208989898761170d565b6000818152601f6020526040812080546003820154939450909261554d918d918d918d918b918d916157ba565b905060008060008061556e8d876000015488600201548d8a600601546121b9565b875491955085935091506155869061146d8d84613ec4565b9250505060008280156155995750600082115b156155c957506005840180548201905580886155c95760006155bb8e84612d14565b90506155c78e82614797565b505b821580156155d75750600082115b1561561b5760018501546155eb9083613fcf565b60018601558861560f5760006156018e84612d14565b905061560d8e8261467f565b505b60058501805483900390555b8a156156435761562b818c613f77565b600186015490915061563d908c613fcf565b60018601555b84548a141561566657600185015461565c908290613f77565b6000600187015590505b8084811115615680576156798286613fcf565b90506156b4565b600186015461568f9086613fcf565b600187015589156156b45760006156a68f87612d14565b90506156b28f82614797565b505b60408051888152851515602082015280820185905290517f3ff41bdde87755b687ae83d0221a232b6be51a803330ed9661c1b5d0105e0d8a9181900360600190a1909e909d509b505050505050505050505050565b606061575e826040518060400160405280602081526020017f5361666545524332303a206c6f772d6c6576656c2063616c6c206661696c6564815250856001600160a01b03166158289092919063ffffffff16565b80519091501561307c5780806020019051602081101561577d57600080fd5b505161307c5760405162461bcd60e51b815260040180806020018281038252602a815260200180615b41602a913960400191505060405180910390fd5b600254604080516327dd35e160e21b81526001600160a01b038a8116600483015289811660248301528881166044830152871515606483015260848201879052915160009384931691639f74d7849160a4808301926020929190829003018186803b1580156142c057600080fd5b606061158d84846000858561583c85615943565b61588d576040805162461bcd60e51b815260206004820152601d60248201527f416464726573733a2063616c6c20746f206e6f6e2d636f6e7472616374000000604482015290519081900360640190fd5b60006060866001600160a01b031685876040518082805190602001908083835b602083106158cc5780518252601f1990920191602091820191016158ad565b6001836020036101000a03801982511681845116808217855250505050505090500191505060006040518083038185875af1925050503d806000811461592e576040519150601f19603f3d011682016040523d82523d6000602084013e615933565b606091505b5091509150612163828286615949565b3b151590565b60608315615958575081611990565b8251156159685782518084602001fd5b60405162461bcd60e51b815260206004820181815284516024840152845185939192839260440191908501908083836000831561546457818101518382015260200161544c565b828054600181600116156101000203166002900490600052602060002090601f016020900481019282601f106159f05782800160ff19823516178555615a1d565b82800160010185558215615a1d579182015b82811115615a1d578235825591602001919060010190615a02565b50615a29929150615a6a565b5090565b6040518060e00160405280600081526020016000815260200160008152602001600081526020016000815260200160008152602001600081525090565b5b80821115615a295760008155600101615a6b56fed9e43deece66f037571a2c1a0eefd075d5dece698bc8097b3fdc6e1490162e375265656e7472616e637947756172643a207265656e7472616e742063616c6c0020853733b590dce729d9f4628682ebd9a34d2354e72679e66f43a008fc03b77393d75d64d1f84fc6f430a64fc578bdd4c1e090e90ea2d51773e626d19de56d30b3ca8f4344fe3e0ea925f31140b0e867001ea3ca201652f9f13dfe00572d5eb6536166654d6174683a206d756c7469706c69636174696f6e206f766572666c6f775361666545524332303a204552433230206f7065726174696f6e20646964206e6f742073756363656564a2646970667358221220ca51a2af40d318d41801a0b5511bf40d397872997fa71fbfb785592dfd2b20af64736f6c634300060c0033",
  "linkReferences": {},
  "deployedLinkReferences": {}
}